{
	"data": {
		"bytecode": {
			"linkReferences": {},
			"object": "608060405234801561000f575f5ffd5b5061001f3361002460201b60201c565b610118565b8061006460017fdf8b4c520ffe197c5343c6f5aec59570151ef9a492f2c624fd45ddde6135ec425f1c61005791906100e5565b5f1b6100a660201b60201c565b5f015f6101000a81548173ffffffffffffffffffffffffffffffffffffffff021916908373ffffffffffffffffffffffffffffffffffffffff16021790555050565b5f819050919050565b5f819050919050565b7f4e487b71000000000000000000000000000000000000000000000000000000005f52601160045260245ffd5b5f6100ef826100af565b91506100fa836100af565b9250828203905081811115610112576101116100b8565b5b92915050565b61047f806101255f395ff3fe60806040526004361061004d575f3560e01c8063691bd2ae14610060578063893d20e8146100885780639c4b32be146100b2578063a0ab35aa146100dc578063dfb80831146101065761004e565b5b61005e610059610130565b610191565b005b34801561006b575f5ffd5b506100866004803603810190610081919061035c565b6101b0565b005b348015610093575f5ffd5b5061009c61022c565b6040516100a99190610396565b60405180910390f35b3480156100bd575f5ffd5b506100c661028d565b6040516100d391906103c7565b60405180910390f35b3480156100e7575f5ffd5b506100f06102c1565b6040516100fd91906103c7565b60405180910390f35b348015610111575f5ffd5b5061011a610130565b6040516101279190610396565b60405180910390f35b5f61016a60017f486287226df0757af294903da9bc1edb84c92006afe00d704a2e6e2aea90d6b85f1c6101639190610416565b5f1b6102f5565b5f015f9054906101000a900473ffffffffffffffffffffffffffffffffffffffff16905090565b365f5f375f5f365f845af43d5f5f3e805f81146101ac573d5ff35b3d5ffd5b806101ea60017f486287226df0757af294903da9bc1edb84c92006afe00d704a2e6e2aea90d6b85f1c6101e39190610416565b5f1b6102f5565b5f015f6101000a81548173ffffffffffffffffffffffffffffffffffffffff021916908373ffffffffffffffffffffffffffffffffffffffff16021790555050565b5f61026660017fdf8b4c520ffe197c5343c6f5aec59570151ef9a492f2c624fd45ddde6135ec425f1c61025f9190610416565b5f1b6102f5565b5f015f9054906101000a900473ffffffffffffffffffffffffffffffffffffffff16905090565b60017fdf8b4c520ffe197c5343c6f5aec59570151ef9a492f2c624fd45ddde6135ec425f1c6102bc9190610416565b5f1b81565b60017f486287226df0757af294903da9bc1edb84c92006afe00d704a2e6e2aea90d6b85f1c6102f09190610416565b5f1b81565b5f819050919050565b5f5ffd5b5f73ffffffffffffffffffffffffffffffffffffffff82169050919050565b5f61032b82610302565b9050919050565b61033b81610321565b8114610345575f5ffd5b50565b5f8135905061035681610332565b92915050565b5f60208284031215610371576103706102fe565b5b5f61037e84828501610348565b91505092915050565b61039081610321565b82525050565b5f6020820190506103a95f830184610387565b92915050565b5f819050919050565b6103c1816103af565b82525050565b5f6020820190506103da5f8301846103b8565b92915050565b5f819050919050565b7f4e487b71000000000000000000000000000000000000000000000000000000005f52601160045260245ffd5b5f610420826103e0565b915061042b836103e0565b9250828203905081811115610443576104426103e9565b5b9291505056fea26469706673582212202aeeb6d668b1a10556035a60290e8652e2e93e9af18bb811ddd68c37957ba18564736f6c634300081e0033",
			"opcodes": "PUSH1 0x80 PUSH1 0x40 MSTORE CALLVALUE DUP1 ISZERO PUSH2 0xF JUMPI PUSH0 PUSH0 REVERT JUMPDEST POP PUSH2 0x1F CALLER PUSH2 0x24 PUSH1 0x20 SHL PUSH1 0x20 SHR JUMP JUMPDEST PUSH2 0x118 JUMP JUMPDEST DUP1 PUSH2 0x64 PUSH1 0x1 PUSH32 0xDF8B4C520FFE197C5343C6F5AEC59570151EF9A492F2C624FD45DDDE6135EC42 PUSH0 SHR PUSH2 0x57 SWAP2 SWAP1 PUSH2 0xE5 JUMP JUMPDEST PUSH0 SHL PUSH2 0xA6 PUSH1 0x20 SHL PUSH1 0x20 SHR JUMP JUMPDEST PUSH0 ADD PUSH0 PUSH2 0x100 EXP DUP2 SLOAD DUP2 PUSH20 0xFFFFFFFFFFFFFFFFFFFFFFFFFFFFFFFFFFFFFFFF MUL NOT AND SWAP1 DUP4 PUSH20 0xFFFFFFFFFFFFFFFFFFFFFFFFFFFFFFFFFFFFFFFF AND MUL OR SWAP1 SSTORE POP POP JUMP JUMPDEST PUSH0 DUP2 SWAP1 POP SWAP2 SWAP1 POP JUMP JUMPDEST PUSH0 DUP2 SWAP1 POP SWAP2 SWAP1 POP JUMP JUMPDEST PUSH32 0x4E487B7100000000000000000000000000000000000000000000000000000000 PUSH0 MSTORE PUSH1 0x11 PUSH1 0x4 MSTORE PUSH1 0x24 PUSH0 REVERT JUMPDEST PUSH0 PUSH2 0xEF DUP3 PUSH2 0xAF JUMP JUMPDEST SWAP2 POP PUSH2 0xFA DUP4 PUSH2 0xAF JUMP JUMPDEST SWAP3 POP DUP3 DUP3 SUB SWAP1 POP DUP2 DUP2 GT ISZERO PUSH2 0x112 JUMPI PUSH2 0x111 PUSH2 0xB8 JUMP JUMPDEST JUMPDEST SWAP3 SWAP2 POP POP JUMP JUMPDEST PUSH2 0x47F DUP1 PUSH2 0x125 PUSH0 CODECOPY PUSH0 RETURN INVALID PUSH1 0x80 PUSH1 0x40 MSTORE PUSH1 0x4 CALLDATASIZE LT PUSH2 0x4D JUMPI PUSH0 CALLDATALOAD PUSH1 0xE0 SHR DUP1 PUSH4 0x691BD2AE EQ PUSH2 0x60 JUMPI DUP1 PUSH4 0x893D20E8 EQ PUSH2 0x88 JUMPI DUP1 PUSH4 0x9C4B32BE EQ PUSH2 0xB2 JUMPI DUP1 PUSH4 0xA0AB35AA EQ PUSH2 0xDC JUMPI DUP1 PUSH4 0xDFB80831 EQ PUSH2 0x106 JUMPI PUSH2 0x4E JUMP JUMPDEST JUMPDEST PUSH2 0x5E PUSH2 0x59 PUSH2 0x130 JUMP JUMPDEST PUSH2 0x191 JUMP JUMPDEST STOP JUMPDEST CALLVALUE DUP1 ISZERO PUSH2 0x6B JUMPI PUSH0 PUSH0 REVERT JUMPDEST POP PUSH2 0x86 PUSH1 0x4 DUP1 CALLDATASIZE SUB DUP2 ADD SWAP1 PUSH2 0x81 SWAP2 SWAP1 PUSH2 0x35C JUMP JUMPDEST PUSH2 0x1B0 JUMP JUMPDEST STOP JUMPDEST CALLVALUE DUP1 ISZERO PUSH2 0x93 JUMPI PUSH0 PUSH0 REVERT JUMPDEST POP PUSH2 0x9C PUSH2 0x22C JUMP JUMPDEST PUSH1 0x40 MLOAD PUSH2 0xA9 SWAP2 SWAP1 PUSH2 0x396 JUMP JUMPDEST PUSH1 0x40 MLOAD DUP1 SWAP2 SUB SWAP1 RETURN JUMPDEST CALLVALUE DUP1 ISZERO PUSH2 0xBD JUMPI PUSH0 PUSH0 REVERT JUMPDEST POP PUSH2 0xC6 PUSH2 0x28D JUMP JUMPDEST PUSH1 0x40 MLOAD PUSH2 0xD3 SWAP2 SWAP1 PUSH2 0x3C7 JUMP JUMPDEST PUSH1 0x40 MLOAD DUP1 SWAP2 SUB SWAP1 RETURN JUMPDEST CALLVALUE DUP1 ISZERO PUSH2 0xE7 JUMPI PUSH0 PUSH0 REVERT JUMPDEST POP PUSH2 0xF0 PUSH2 0x2C1 JUMP JUMPDEST PUSH1 0x40 MLOAD PUSH2 0xFD SWAP2 SWAP1 PUSH2 0x3C7 JUMP JUMPDEST PUSH1 0x40 MLOAD DUP1 SWAP2 SUB SWAP1 RETURN JUMPDEST CALLVALUE DUP1 ISZERO PUSH2 0x111 JUMPI PUSH0 PUSH0 REVERT JUMPDEST POP PUSH2 0x11A PUSH2 0x130 JUMP JUMPDEST PUSH1 0x40 MLOAD PUSH2 0x127 SWAP2 SWAP1 PUSH2 0x396 JUMP JUMPDEST PUSH1 0x40 MLOAD DUP1 SWAP2 SUB SWAP1 RETURN JUMPDEST PUSH0 PUSH2 0x16A PUSH1 0x1 PUSH32 0x486287226DF0757AF294903DA9BC1EDB84C92006AFE00D704A2E6E2AEA90D6B8 PUSH0 SHR PUSH2 0x163 SWAP2 SWAP1 PUSH2 0x416 JUMP JUMPDEST PUSH0 SHL PUSH2 0x2F5 JUMP JUMPDEST PUSH0 ADD PUSH0 SWAP1 SLOAD SWAP1 PUSH2 0x100 EXP SWAP1 DIV PUSH20 0xFFFFFFFFFFFFFFFFFFFFFFFFFFFFFFFFFFFFFFFF AND SWAP1 POP SWAP1 JUMP JUMPDEST CALLDATASIZE PUSH0 PUSH0 CALLDATACOPY PUSH0 PUSH0 CALLDATASIZE PUSH0 DUP5 GAS DELEGATECALL RETURNDATASIZE PUSH0 PUSH0 RETURNDATACOPY DUP1 PUSH0 DUP2 EQ PUSH2 0x1AC JUMPI RETURNDATASIZE PUSH0 RETURN JUMPDEST RETURNDATASIZE PUSH0 REVERT JUMPDEST DUP1 PUSH2 0x1EA PUSH1 0x1 PUSH32 0x486287226DF0757AF294903DA9BC1EDB84C92006AFE00D704A2E6E2AEA90D6B8 PUSH0 SHR PUSH2 0x1E3 SWAP2 SWAP1 PUSH2 0x416 JUMP JUMPDEST PUSH0 SHL PUSH2 0x2F5 JUMP JUMPDEST PUSH0 ADD PUSH0 PUSH2 0x100 EXP DUP2 SLOAD DUP2 PUSH20 0xFFFFFFFFFFFFFFFFFFFFFFFFFFFFFFFFFFFFFFFF MUL NOT AND SWAP1 DUP4 PUSH20 0xFFFFFFFFFFFFFFFFFFFFFFFFFFFFFFFFFFFFFFFF AND MUL OR SWAP1 SSTORE POP POP JUMP JUMPDEST PUSH0 PUSH2 0x266 PUSH1 0x1 PUSH32 0xDF8B4C520FFE197C5343C6F5AEC59570151EF9A492F2C624FD45DDDE6135EC42 PUSH0 SHR PUSH2 0x25F SWAP2 SWAP1 PUSH2 0x416 JUMP JUMPDEST PUSH0 SHL PUSH2 0x2F5 JUMP JUMPDEST PUSH0 ADD PUSH0 SWAP1 SLOAD SWAP1 PUSH2 0x100 EXP SWAP1 DIV PUSH20 0xFFFFFFFFFFFFFFFFFFFFFFFFFFFFFFFFFFFFFFFF AND SWAP1 POP SWAP1 JUMP JUMPDEST PUSH1 0x1 PUSH32 0xDF8B4C520FFE197C5343C6F5AEC59570151EF9A492F2C624FD45DDDE6135EC42 PUSH0 SHR PUSH2 0x2BC SWAP2 SWAP1 PUSH2 0x416 JUMP JUMPDEST PUSH0 SHL DUP2 JUMP JUMPDEST PUSH1 0x1 PUSH32 0x486287226DF0757AF294903DA9BC1EDB84C92006AFE00D704A2E6E2AEA90D6B8 PUSH0 SHR PUSH2 0x2F0 SWAP2 SWAP1 PUSH2 0x416 JUMP JUMPDEST PUSH0 SHL DUP2 JUMP JUMPDEST PUSH0 DUP2 SWAP1 POP SWAP2 SWAP1 POP JUMP JUMPDEST PUSH0 PUSH0 REVERT JUMPDEST PUSH0 PUSH20 0xFFFFFFFFFFFFFFFFFFFFFFFFFFFFFFFFFFFFFFFF DUP3 AND SWAP1 POP SWAP2 SWAP1 POP JUMP JUMPDEST PUSH0 PUSH2 0x32B DUP3 PUSH2 0x302 JUMP JUMPDEST SWAP1 POP SWAP2 SWAP1 POP JUMP JUMPDEST PUSH2 0x33B DUP2 PUSH2 0x321 JUMP JUMPDEST DUP2 EQ PUSH2 0x345 JUMPI PUSH0 PUSH0 REVERT JUMPDEST POP JUMP JUMPDEST PUSH0 DUP2 CALLDATALOAD SWAP1 POP PUSH2 0x356 DUP2 PUSH2 0x332 JUMP JUMPDEST SWAP3 SWAP2 POP POP JUMP JUMPDEST PUSH0 PUSH1 0x20 DUP3 DUP5 SUB SLT ISZERO PUSH2 0x371 JUMPI PUSH2 0x370 PUSH2 0x2FE JUMP JUMPDEST JUMPDEST PUSH0 PUSH2 0x37E DUP5 DUP3 DUP6 ADD PUSH2 0x348 JUMP JUMPDEST SWAP2 POP POP SWAP3 SWAP2 POP POP JUMP JUMPDEST PUSH2 0x390 DUP2 PUSH2 0x321 JUMP JUMPDEST DUP3 MSTORE POP POP JUMP JUMPDEST PUSH0 PUSH1 0x20 DUP3 ADD SWAP1 POP PUSH2 0x3A9 PUSH0 DUP4 ADD DUP5 PUSH2 0x387 JUMP JUMPDEST SWAP3 SWAP2 POP POP JUMP JUMPDEST PUSH0 DUP2 SWAP1 POP SWAP2 SWAP1 POP JUMP JUMPDEST PUSH2 0x3C1 DUP2 PUSH2 0x3AF JUMP JUMPDEST DUP3 MSTORE POP POP JUMP JUMPDEST PUSH0 PUSH1 0x20 DUP3 ADD SWAP1 POP PUSH2 0x3DA PUSH0 DUP4 ADD DUP5 PUSH2 0x3B8 JUMP JUMPDEST SWAP3 SWAP2 POP POP JUMP JUMPDEST PUSH0 DUP2 SWAP1 POP SWAP2 SWAP1 POP JUMP JUMPDEST PUSH32 0x4E487B7100000000000000000000000000000000000000000000000000000000 PUSH0 MSTORE PUSH1 0x11 PUSH1 0x4 MSTORE PUSH1 0x24 PUSH0 REVERT JUMPDEST PUSH0 PUSH2 0x420 DUP3 PUSH2 0x3E0 JUMP JUMPDEST SWAP2 POP PUSH2 0x42B DUP4 PUSH2 0x3E0 JUMP JUMPDEST SWAP3 POP DUP3 DUP3 SUB SWAP1 POP DUP2 DUP2 GT ISZERO PUSH2 0x443 JUMPI PUSH2 0x442 PUSH2 0x3E9 JUMP JUMPDEST JUMPDEST SWAP3 SWAP2 POP POP JUMP INVALID LOG2 PUSH5 0x6970667358 0x22 SLT KECCAK256 0x2A RETURNCONTRACT 0xB6 0xD6 PUSH9 0xB1A10556035A60290E DUP7 MSTORE 0xE2 0xE9 RETURNDATACOPY SWAP11 CALL DUP12 0xB8 GT 0xDD 0xD6 DUP13 CALLDATACOPY SWAP6 PUSH28 0xA18564736F6C634300081E0033000000000000000000000000000000 "
		},
		"gasEstimates": {
			"creation": {
				"codeDepositCost": "230200",
				"executionCost": "infinite",
				"totalCost": "infinite"
			},
			"external": {
				"": "infinite",
				"ADMIN_SLOT()": "infinite",
				"IMPL_SLOT()": "infinite",
				"getImpl()": "infinite",
				"getOwner()": "infinite",
				"setImpl(address)": "infinite"
			},
			"internal": {
				"delegate(address)": "infinite",
				"setOwner(address)": "infinite"
			}
		},
		"methodIdentifiers": {
			"ADMIN_SLOT()": "9c4b32be",
			"IMPL_SLOT()": "a0ab35aa",
			"getImpl()": "dfb80831",
			"getOwner()": "893d20e8",
			"setImpl(address)": "691bd2ae"
		}
	},
	"abi": [
		{
			"inputs": [],
			"stateMutability": "nonpayable",
			"type": "constructor"
		},
		{
			"stateMutability": "payable",
			"type": "fallback"
		},
		{
			"inputs": [],
			"name": "ADMIN_SLOT",
			"outputs": [
				{
					"internalType": "bytes32",
					"name": "",
					"type": "bytes32"
				}
			],
			"stateMutability": "view",
			"type": "function"
		},
		{
			"inputs": [],
			"name": "IMPL_SLOT",
			"outputs": [
				{
					"internalType": "bytes32",
					"name": "",
					"type": "bytes32"
				}
			],
			"stateMutability": "view",
			"type": "function"
		},
		{
			"inputs": [],
			"name": "getImpl",
			"outputs": [
				{
					"internalType": "address",
					"name": "",
					"type": "address"
				}
			],
			"stateMutability": "view",
			"type": "function"
		},
		{
			"inputs": [],
			"name": "getOwner",
			"outputs": [
				{
					"internalType": "address",
					"name": "",
					"type": "address"
				}
			],
			"stateMutability": "view",
			"type": "function"
		},
		{
			"inputs": [
				{
					"internalType": "address",
					"name": "_CA",
					"type": "address"
				}
			],
			"name": "setImpl",
			"outputs": [],
			"stateMutability": "nonpayable",
			"type": "function"
		}
	]
}