{
  "_format": "hh-sol-artifact-1",
  "contractName": "Digimon",
  "sourceName": "contracts/\bDigimon.sol",
  "abi": [
    {
      "inputs": [
        {
          "internalType": "string",
          "name": "name",
          "type": "string"
        },
        {
          "internalType": "string",
          "name": "symbol",
          "type": "string"
        }
      ],
      "stateMutability": "nonpayable",
      "type": "constructor"
    },
    {
      "inputs": [
        {
          "internalType": "address",
          "name": "spender",
          "type": "address"
        },
        {
          "internalType": "uint256",
          "name": "allowance",
          "type": "uint256"
        },
        {
          "internalType": "uint256",
          "name": "needed",
          "type": "uint256"
        }
      ],
      "name": "ERC20InsufficientAllowance",
      "type": "error"
    },
    {
      "inputs": [
        {
          "internalType": "address",
          "name": "sender",
          "type": "address"
        },
        {
          "internalType": "uint256",
          "name": "balance",
          "type": "uint256"
        },
        {
          "internalType": "uint256",
          "name": "needed",
          "type": "uint256"
        }
      ],
      "name": "ERC20InsufficientBalance",
      "type": "error"
    },
    {
      "inputs": [
        {
          "internalType": "address",
          "name": "approver",
          "type": "address"
        }
      ],
      "name": "ERC20InvalidApprover",
      "type": "error"
    },
    {
      "inputs": [
        {
          "internalType": "address",
          "name": "receiver",
          "type": "address"
        }
      ],
      "name": "ERC20InvalidReceiver",
      "type": "error"
    },
    {
      "inputs": [
        {
          "internalType": "address",
          "name": "sender",
          "type": "address"
        }
      ],
      "name": "ERC20InvalidSender",
      "type": "error"
    },
    {
      "inputs": [
        {
          "internalType": "address",
          "name": "spender",
          "type": "address"
        }
      ],
      "name": "ERC20InvalidSpender",
      "type": "error"
    },
    {
      "anonymous": false,
      "inputs": [
        {
          "indexed": true,
          "internalType": "address",
          "name": "owner",
          "type": "address"
        },
        {
          "indexed": true,
          "internalType": "address",
          "name": "spender",
          "type": "address"
        },
        {
          "indexed": false,
          "internalType": "uint256",
          "name": "value",
          "type": "uint256"
        }
      ],
      "name": "Approval",
      "type": "event"
    },
    {
      "anonymous": false,
      "inputs": [
        {
          "indexed": true,
          "internalType": "address",
          "name": "buyer",
          "type": "address"
        },
        {
          "indexed": false,
          "internalType": "string",
          "name": "name",
          "type": "string"
        },
        {
          "indexed": false,
          "internalType": "string",
          "name": "url",
          "type": "string"
        }
      ],
      "name": "DigimonEvent",
      "type": "event"
    },
    {
      "anonymous": false,
      "inputs": [
        {
          "indexed": true,
          "internalType": "address",
          "name": "from",
          "type": "address"
        },
        {
          "indexed": true,
          "internalType": "address",
          "name": "to",
          "type": "address"
        },
        {
          "indexed": false,
          "internalType": "uint256",
          "name": "value",
          "type": "uint256"
        }
      ],
      "name": "Transfer",
      "type": "event"
    },
    {
      "inputs": [
        {
          "internalType": "address",
          "name": "owner",
          "type": "address"
        },
        {
          "internalType": "address",
          "name": "spender",
          "type": "address"
        }
      ],
      "name": "allowance",
      "outputs": [
        {
          "internalType": "uint256",
          "name": "",
          "type": "uint256"
        }
      ],
      "stateMutability": "view",
      "type": "function"
    },
    {
      "inputs": [
        {
          "internalType": "address",
          "name": "spender",
          "type": "address"
        },
        {
          "internalType": "uint256",
          "name": "value",
          "type": "uint256"
        }
      ],
      "name": "approve",
      "outputs": [
        {
          "internalType": "bool",
          "name": "",
          "type": "bool"
        }
      ],
      "stateMutability": "nonpayable",
      "type": "function"
    },
    {
      "inputs": [
        {
          "internalType": "address",
          "name": "account",
          "type": "address"
        }
      ],
      "name": "balanceOf",
      "outputs": [
        {
          "internalType": "uint256",
          "name": "",
          "type": "uint256"
        }
      ],
      "stateMutability": "view",
      "type": "function"
    },
    {
      "inputs": [],
      "name": "buyDigimon",
      "outputs": [],
      "stateMutability": "nonpayable",
      "type": "function"
    },
    {
      "inputs": [],
      "name": "decimals",
      "outputs": [
        {
          "internalType": "uint8",
          "name": "",
          "type": "uint8"
        }
      ],
      "stateMutability": "view",
      "type": "function"
    },
    {
      "inputs": [],
      "name": "getDigimons",
      "outputs": [
        {
          "components": [
            {
              "internalType": "string",
              "name": "name",
              "type": "string"
            },
            {
              "internalType": "string",
              "name": "url",
              "type": "string"
            }
          ],
          "internalType": "struct Digimon.Dig[]",
          "name": "",
          "type": "tuple[]"
        }
      ],
      "stateMutability": "view",
      "type": "function"
    },
    {
      "inputs": [],
      "name": "getMyDigimons",
      "outputs": [
        {
          "components": [
            {
              "internalType": "string",
              "name": "name",
              "type": "string"
            },
            {
              "internalType": "string",
              "name": "url",
              "type": "string"
            }
          ],
          "internalType": "struct Digimon.Dig[]",
          "name": "",
          "type": "tuple[]"
        }
      ],
      "stateMutability": "view",
      "type": "function"
    },
    {
      "inputs": [],
      "name": "name",
      "outputs": [
        {
          "internalType": "string",
          "name": "",
          "type": "string"
        }
      ],
      "stateMutability": "view",
      "type": "function"
    },
    {
      "inputs": [],
      "name": "symbol",
      "outputs": [
        {
          "internalType": "string",
          "name": "",
          "type": "string"
        }
      ],
      "stateMutability": "view",
      "type": "function"
    },
    {
      "inputs": [],
      "name": "totalSupply",
      "outputs": [
        {
          "internalType": "uint256",
          "name": "",
          "type": "uint256"
        }
      ],
      "stateMutability": "view",
      "type": "function"
    },
    {
      "inputs": [
        {
          "internalType": "address",
          "name": "to",
          "type": "address"
        },
        {
          "internalType": "uint256",
          "name": "value",
          "type": "uint256"
        }
      ],
      "name": "transfer",
      "outputs": [
        {
          "internalType": "bool",
          "name": "",
          "type": "bool"
        }
      ],
      "stateMutability": "nonpayable",
      "type": "function"
    },
    {
      "inputs": [
        {
          "internalType": "address",
          "name": "from",
          "type": "address"
        },
        {
          "internalType": "address",
          "name": "to",
          "type": "address"
        },
        {
          "internalType": "uint256",
          "name": "value",
          "type": "uint256"
        }
      ],
      "name": "transferFrom",
      "outputs": [
        {
          "internalType": "bool",
          "name": "",
          "type": "bool"
        }
      ],
      "stateMutability": "nonpayable",
      "type": "function"
    }
  ],
  "bytecode": "0x608060405234801561001057600080fd5b506040516127e13803806127e1833981810160405281019061003291906106ee565b818181600390816100439190610987565b5080600490816100539190610987565b50505061008b336100686102c360201b60201c565b600a6100749190610bc8565b60646100809190610c13565b6102cc60201b60201c565b600560405180604001604052806040518060400160405280600881526020017f47657262656d6f6e00000000000000000000000000000000000000000000000081525081526020016040518060600160405280603081526020016127b1603091398152509080600181540180825580915050600190039060005260206000209060020201600090919091909150600082015181600001908161012d9190610987565b5060208201518160010190816101439190610987565b505050600560405180604001604052806040518060400160405280600781526020017f486977616d6f6e0000000000000000000000000000000000000000000000000081525081526020016040518060600160405280602f8152602001612782602f9139815250908060018154018082558091505060019003906000526020600020906002020160009091909190915060008201518160000190816101e89190610987565b5060208201518160010190816101fe9190610987565b505050600560405180604001604052806040518060400160405280600681526020017f4574656d6f6e0000000000000000000000000000000000000000000000000000815250815260200160405180606001604052806033815260200161274f60339139815250908060018154018082558091505060019003906000526020600020906002020160009091909190915060008201518160000190816102a39190610987565b5060208201518160010190816102b99190610987565b5050505050610d46565b60006012905090565b600073ffffffffffffffffffffffffffffffffffffffff168273ffffffffffffffffffffffffffffffffffffffff160361033e5760006040517fec442f050000000000000000000000000000000000000000000000000000000081526004016103359190610c96565b60405180910390fd5b6103506000838361035460201b60201c565b5050565b600073ffffffffffffffffffffffffffffffffffffffff168373ffffffffffffffffffffffffffffffffffffffff16036103a657806002600082825461039a9190610cb1565b92505081905550610479565b60008060008573ffffffffffffffffffffffffffffffffffffffff1673ffffffffffffffffffffffffffffffffffffffff16815260200190815260200160002054905081811015610432578381836040517fe450d38c00000000000000000000000000000000000000000000000000000000815260040161042993929190610cf4565b60405180910390fd5b8181036000808673ffffffffffffffffffffffffffffffffffffffff1673ffffffffffffffffffffffffffffffffffffffff16815260200190815260200160002081905550505b600073ffffffffffffffffffffffffffffffffffffffff168273ffffffffffffffffffffffffffffffffffffffff16036104c2578060026000828254039250508190555061050f565b806000808473ffffffffffffffffffffffffffffffffffffffff1673ffffffffffffffffffffffffffffffffffffffff168152602001908152602001600020600082825401925050819055505b8173ffffffffffffffffffffffffffffffffffffffff168373ffffffffffffffffffffffffffffffffffffffff167fddf252ad1be2c89b69c2b068fc378daa952ba7f163c4a11628f55a4df523b3ef8360405161056c9190610d2b565b60405180910390a3505050565b6000604051905090565b600080fd5b600080fd5b600080fd5b600080fd5b6000601f19601f8301169050919050565b7f4e487b7100000000000000000000000000000000000000000000000000000000600052604160045260246000fd5b6105e082610597565b810181811067ffffffffffffffff821117156105ff576105fe6105a8565b5b80604052505050565b6000610612610579565b905061061e82826105d7565b919050565b600067ffffffffffffffff82111561063e5761063d6105a8565b5b61064782610597565b9050602081019050919050565b60005b83811015610672578082015181840152602081019050610657565b60008484015250505050565b600061069161068c84610623565b610608565b9050828152602081018484840111156106ad576106ac610592565b5b6106b8848285610654565b509392505050565b600082601f8301126106d5576106d461058d565b5b81516106e584826020860161067e565b91505092915050565b6000806040838503121561070557610704610583565b5b600083015167ffffffffffffffff81111561072357610722610588565b5b61072f858286016106c0565b925050602083015167ffffffffffffffff8111156107505761074f610588565b5b61075c858286016106c0565b9150509250929050565b600081519050919050565b7f4e487b7100000000000000000000000000000000000000000000000000000000600052602260045260246000fd5b600060028204905060018216806107b857607f821691505b6020821081036107cb576107ca610771565b5b50919050565b60008190508160005260206000209050919050565b60006020601f8301049050919050565b600082821b905092915050565b6000600883026108337fffffffffffffffffffffffffffffffffffffffffffffffffffffffffffffffff826107f6565b61083d86836107f6565b95508019841693508086168417925050509392505050565b6000819050919050565b6000819050919050565b600061088461087f61087a84610855565b61085f565b610855565b9050919050565b6000819050919050565b61089e83610869565b6108b26108aa8261088b565b848454610803565b825550505050565b600090565b6108c76108ba565b6108d2818484610895565b505050565b5b818110156108f6576108eb6000826108bf565b6001810190506108d8565b5050565b601f82111561093b5761090c816107d1565b610915846107e6565b81016020851015610924578190505b610938610930856107e6565b8301826108d7565b50505b505050565b600082821c905092915050565b600061095e60001984600802610940565b1980831691505092915050565b6000610977838361094d565b9150826002028217905092915050565b61099082610766565b67ffffffffffffffff8111156109a9576109a86105a8565b5b6109b382546107a0565b6109be8282856108fa565b600060209050601f8311600181146109f157600084156109df578287015190505b6109e9858261096b565b865550610a51565b601f1984166109ff866107d1565b60005b82811015610a2757848901518255600182019150602085019450602081019050610a02565b86831015610a445784890151610a40601f89168261094d565b8355505b6001600288020188555050505b505050505050565b7f4e487b7100000000000000000000000000000000000000000000000000000000600052601160045260246000fd5b60008160011c9050919050565b6000808291508390505b6001851115610adf57808604811115610abb57610aba610a59565b5b6001851615610aca5780820291505b8081029050610ad885610a88565b9450610a9f565b94509492505050565b600082610af85760019050610bb4565b81610b065760009050610bb4565b8160018114610b1c5760028114610b2657610b55565b6001915050610bb4565b60ff841115610b3857610b37610a59565b5b8360020a915084821115610b4f57610b4e610a59565b5b50610bb4565b5060208310610133831016604e8410600b8410161715610b8a5782820a905083811115610b8557610b84610a59565b5b610bb4565b610b978484846001610a95565b92509050818404811115610bae57610bad610a59565b5b81810290505b9392505050565b600060ff82169050919050565b6000610bd382610855565b9150610bde83610bbb565b9250610c0b7fffffffffffffffffffffffffffffffffffffffffffffffffffffffffffffffff8484610ae8565b905092915050565b6000610c1e82610855565b9150610c2983610855565b9250828202610c3781610855565b91508282048414831517610c4e57610c4d610a59565b5b5092915050565b600073ffffffffffffffffffffffffffffffffffffffff82169050919050565b6000610c8082610c55565b9050919050565b610c9081610c75565b82525050565b6000602082019050610cab6000830184610c87565b92915050565b6000610cbc82610855565b9150610cc783610855565b9250828201905080821115610cdf57610cde610a59565b5b92915050565b610cee81610855565b82525050565b6000606082019050610d096000830186610c87565b610d166020830185610ce5565b610d236040830184610ce5565b949350505050565b6000602082019050610d406000830184610ce5565b92915050565b6119fa80610d556000396000f3fe608060405234801561001057600080fd5b50600436106100b45760003560e01c8063313ce56711610071578063313ce5671461017d57806370a082311461019b57806395d89b41146101cb578063a9059cbb146101e9578063b1a0df7714610219578063dd62ed3e14610237576100b4565b806306fdde03146100b9578063095ea7b3146100d75780630e3f83a91461010757806318160ddd1461011157806322646d5e1461012f57806323b872dd1461014d575b600080fd5b6100c1610267565b6040516100ce919061111c565b60405180910390f35b6100f160048036038101906100ec91906111d7565b6102f9565b6040516100fe9190611232565b60405180910390f35b61010f61031c565b005b6101196105a1565b604051610126919061125c565b60405180910390f35b6101376105ab565b60405161014491906113c7565b60405180910390f35b610167600480360381019061016291906113e9565b61076b565b6040516101749190611232565b60405180910390f35b61018561079a565b6040516101929190611458565b60405180910390f35b6101b560048036038101906101b09190611473565b6107a3565b6040516101c2919061125c565b60405180910390f35b6101d36107eb565b6040516101e0919061111c565b60405180910390f35b61020360048036038101906101fe91906111d7565b61087d565b6040516102109190611232565b60405180910390f35b6102216108a0565b60405161022e91906113c7565b60405180910390f35b610251600480360381019061024c91906114a0565b610a23565b60405161025e919061125c565b60405180910390f35b6060600380546102769061150f565b80601f01602080910402602001604051908101604052809291908181526020018280546102a29061150f565b80156102ef5780601f106102c4576101008083540402835291602001916102ef565b820191906000526020600020905b8154815290600101906020018083116102d257829003601f168201915b5050505050905090565b600080610304610aaa565b9050610311818585610ab2565b600191505092915050565b678ac7230489e8000061032e336107a3565b101561033957600080fd5b61034d336000678ac7230489e80000610ac4565b6000610357610ce9565b905060006005828154811061036f5761036e611540565b5b90600052602060002090600202016040518060400160405290816000820180546103989061150f565b80601f01602080910402602001604051908101604052809291908181526020018280546103c49061150f565b80156104115780601f106103e657610100808354040283529160200191610411565b820191906000526020600020905b8154815290600101906020018083116103f457829003601f168201915b5050505050815260200160018201805461042a9061150f565b80601f01602080910402602001604051908101604052809291908181526020018280546104569061150f565b80156104a35780601f10610478576101008083540402835291602001916104a3565b820191906000526020600020905b81548152906001019060200180831161048657829003601f168201915b5050505050815250509050600660003373ffffffffffffffffffffffffffffffffffffffff1673ffffffffffffffffffffffffffffffffffffffff168152602001908152602001600020819080600181540180825580915050600190039060005260206000209060020201600090919091909150600082015181600001908161052c919061174a565b506020820151816001019081610542919061174a565b5050503373ffffffffffffffffffffffffffffffffffffffff167f9f06c99ea3457ea479dfcf40c3fd3aaf8f912d73529f2da19f35e2bc62e9aaed8260000151836020015160405161059592919061181c565b60405180910390a25050565b6000600254905090565b6060600660003373ffffffffffffffffffffffffffffffffffffffff1673ffffffffffffffffffffffffffffffffffffffff168152602001908152602001600020805480602002602001604051908101604052809291908181526020016000905b82821015610762578382906000526020600020906002020160405180604001604052908160008201805461063f9061150f565b80601f016020809104026020016040519081016040528092919081815260200182805461066b9061150f565b80156106b85780601f1061068d576101008083540402835291602001916106b8565b820191906000526020600020905b81548152906001019060200180831161069b57829003601f168201915b505050505081526020016001820180546106d19061150f565b80601f01602080910402602001604051908101604052809291908181526020018280546106fd9061150f565b801561074a5780601f1061071f5761010080835404028352916020019161074a565b820191906000526020600020905b81548152906001019060200180831161072d57829003601f168201915b5050505050815250508152602001906001019061060c565b50505050905090565b600080610776610aaa565b9050610783858285610d2c565b61078e858585610dc1565b60019150509392505050565b60006012905090565b60008060008373ffffffffffffffffffffffffffffffffffffffff1673ffffffffffffffffffffffffffffffffffffffff168152602001908152602001600020549050919050565b6060600480546107fa9061150f565b80601f01602080910402602001604051908101604052809291908181526020018280546108269061150f565b80156108735780601f1061084857610100808354040283529160200191610873565b820191906000526020600020905b81548152906001019060200180831161085657829003601f168201915b5050505050905090565b600080610888610aaa565b9050610895818585610dc1565b600191505092915050565b60606005805480602002602001604051908101604052809291908181526020016000905b82821015610a1a57838290600052602060002090600202016040518060400160405290816000820180546108f79061150f565b80601f01602080910402602001604051908101604052809291908181526020018280546109239061150f565b80156109705780601f1061094557610100808354040283529160200191610970565b820191906000526020600020905b81548152906001019060200180831161095357829003601f168201915b505050505081526020016001820180546109899061150f565b80601f01602080910402602001604051908101604052809291908181526020018280546109b59061150f565b8015610a025780601f106109d757610100808354040283529160200191610a02565b820191906000526020600020905b8154815290600101906020018083116109e557829003601f168201915b505050505081525050815260200190600101906108c4565b50505050905090565b6000600160008473ffffffffffffffffffffffffffffffffffffffff1673ffffffffffffffffffffffffffffffffffffffff16815260200190815260200160002060008373ffffffffffffffffffffffffffffffffffffffff1673ffffffffffffffffffffffffffffffffffffffff16815260200190815260200160002054905092915050565b600033905090565b610abf8383836001610eb5565b505050565b600073ffffffffffffffffffffffffffffffffffffffff168373ffffffffffffffffffffffffffffffffffffffff1603610b16578060026000828254610b0a9190611882565b92505081905550610be9565b60008060008573ffffffffffffffffffffffffffffffffffffffff1673ffffffffffffffffffffffffffffffffffffffff16815260200190815260200160002054905081811015610ba2578381836040517fe450d38c000000000000000000000000000000000000000000000000000000008152600401610b99939291906118c5565b60405180910390fd5b8181036000808673ffffffffffffffffffffffffffffffffffffffff1673ffffffffffffffffffffffffffffffffffffffff16815260200190815260200160002081905550505b600073ffffffffffffffffffffffffffffffffffffffff168273ffffffffffffffffffffffffffffffffffffffff1603610c325780600260008282540392505081905550610c7f565b806000808473ffffffffffffffffffffffffffffffffffffffff1673ffffffffffffffffffffffffffffffffffffffff168152602001908152602001600020600082825401925050819055505b8173ffffffffffffffffffffffffffffffffffffffff168373ffffffffffffffffffffffffffffffffffffffff167fddf252ad1be2c89b69c2b068fc378daa952ba7f163c4a11628f55a4df523b3ef83604051610cdc919061125c565b60405180910390a3505050565b60006005805490504244604051602001610d0492919061191d565b6040516020818303038152906040528051906020012060001c610d279190611978565b905090565b6000610d388484610a23565b90507fffffffffffffffffffffffffffffffffffffffffffffffffffffffffffffffff811015610dbb5781811015610dab578281836040517ffb8f41b2000000000000000000000000000000000000000000000000000000008152600401610da2939291906118c5565b60405180910390fd5b610dba84848484036000610eb5565b5b50505050565b600073ffffffffffffffffffffffffffffffffffffffff168373ffffffffffffffffffffffffffffffffffffffff1603610e335760006040517f96c6fd1e000000000000000000000000000000000000000000000000000000008152600401610e2a91906119a9565b60405180910390fd5b600073ffffffffffffffffffffffffffffffffffffffff168273ffffffffffffffffffffffffffffffffffffffff1603610ea55760006040517fec442f05000000000000000000000000000000000000000000000000000000008152600401610e9c91906119a9565b60405180910390fd5b610eb0838383610ac4565b505050565b600073ffffffffffffffffffffffffffffffffffffffff168473ffffffffffffffffffffffffffffffffffffffff1603610f275760006040517fe602df05000000000000000000000000000000000000000000000000000000008152600401610f1e91906119a9565b60405180910390fd5b600073ffffffffffffffffffffffffffffffffffffffff168373ffffffffffffffffffffffffffffffffffffffff1603610f995760006040517f94280d62000000000000000000000000000000000000000000000000000000008152600401610f9091906119a9565b60405180910390fd5b81600160008673ffffffffffffffffffffffffffffffffffffffff1673ffffffffffffffffffffffffffffffffffffffff16815260200190815260200160002060008573ffffffffffffffffffffffffffffffffffffffff1673ffffffffffffffffffffffffffffffffffffffff168152602001908152602001600020819055508015611086578273ffffffffffffffffffffffffffffffffffffffff168473ffffffffffffffffffffffffffffffffffffffff167f8c5be1e5ebec7d5bd14f71427d1e84f3dd0314c0f7b2291e5b200ac8c7c3b9258460405161107d919061125c565b60405180910390a35b50505050565b600081519050919050565b600082825260208201905092915050565b60005b838110156110c65780820151818401526020810190506110ab565b60008484015250505050565b6000601f19601f8301169050919050565b60006110ee8261108c565b6110f88185611097565b93506111088185602086016110a8565b611111816110d2565b840191505092915050565b6000602082019050818103600083015261113681846110e3565b905092915050565b600080fd5b600073ffffffffffffffffffffffffffffffffffffffff82169050919050565b600061116e82611143565b9050919050565b61117e81611163565b811461118957600080fd5b50565b60008135905061119b81611175565b92915050565b6000819050919050565b6111b4816111a1565b81146111bf57600080fd5b50565b6000813590506111d1816111ab565b92915050565b600080604083850312156111ee576111ed61113e565b5b60006111fc8582860161118c565b925050602061120d858286016111c2565b9150509250929050565b60008115159050919050565b61122c81611217565b82525050565b60006020820190506112476000830184611223565b92915050565b611256816111a1565b82525050565b6000602082019050611271600083018461124d565b92915050565b600081519050919050565b600082825260208201905092915050565b6000819050602082019050919050565b600082825260208201905092915050565b60006112bf8261108c565b6112c981856112a3565b93506112d98185602086016110a8565b6112e2816110d2565b840191505092915050565b6000604083016000830151848203600086015261130a82826112b4565b9150506020830151848203602086015261132482826112b4565b9150508091505092915050565b600061133d83836112ed565b905092915050565b6000602082019050919050565b600061135d82611277565b6113678185611282565b93508360208202850161137985611293565b8060005b858110156113b557848403895281516113968582611331565b94506113a183611345565b925060208a0199505060018101905061137d565b50829750879550505050505092915050565b600060208201905081810360008301526113e18184611352565b905092915050565b6000806000606084860312156114025761140161113e565b5b60006114108682870161118c565b93505060206114218682870161118c565b9250506040611432868287016111c2565b9150509250925092565b600060ff82169050919050565b6114528161143c565b82525050565b600060208201905061146d6000830184611449565b92915050565b6000602082840312156114895761148861113e565b5b60006114978482850161118c565b91505092915050565b600080604083850312156114b7576114b661113e565b5b60006114c58582860161118c565b92505060206114d68582860161118c565b9150509250929050565b7f4e487b7100000000000000000000000000000000000000000000000000000000600052602260045260246000fd5b6000600282049050600182168061152757607f821691505b60208210810361153a576115396114e0565b5b50919050565b7f4e487b7100000000000000000000000000000000000000000000000000000000600052603260045260246000fd5b7f4e487b7100000000000000000000000000000000000000000000000000000000600052604160045260246000fd5b60008190508160005260206000209050919050565b60006020601f8301049050919050565b600082821b905092915050565b6000600883026116007fffffffffffffffffffffffffffffffffffffffffffffffffffffffffffffffff826115c3565b61160a86836115c3565b95508019841693508086168417925050509392505050565b6000819050919050565b600061164761164261163d846111a1565b611622565b6111a1565b9050919050565b6000819050919050565b6116618361162c565b61167561166d8261164e565b8484546115d0565b825550505050565b600090565b61168a61167d565b611695818484611658565b505050565b5b818110156116b9576116ae600082611682565b60018101905061169b565b5050565b601f8211156116fe576116cf8161159e565b6116d8846115b3565b810160208510156116e7578190505b6116fb6116f3856115b3565b83018261169a565b50505b505050565b600082821c905092915050565b600061172160001984600802611703565b1980831691505092915050565b600061173a8383611710565b9150826002028217905092915050565b6117538261108c565b67ffffffffffffffff81111561176c5761176b61156f565b5b611776825461150f565b6117818282856116bd565b600060209050601f8311600181146117b457600084156117a2578287015190505b6117ac858261172e565b865550611814565b601f1984166117c28661159e565b60005b828110156117ea578489015182556001820191506020850194506020810190506117c5565b868310156118075784890151611803601f891682611710565b8355505b6001600288020188555050505b505050505050565b6000604082019050818103600083015261183681856110e3565b9050818103602083015261184a81846110e3565b90509392505050565b7f4e487b7100000000000000000000000000000000000000000000000000000000600052601160045260246000fd5b600061188d826111a1565b9150611898836111a1565b92508282019050808211156118b0576118af611853565b5b92915050565b6118bf81611163565b82525050565b60006060820190506118da60008301866118b6565b6118e7602083018561124d565b6118f4604083018461124d565b949350505050565b6000819050919050565b611917611912826111a1565b6118fc565b82525050565b60006119298285611906565b6020820191506119398284611906565b6020820191508190509392505050565b7f4e487b7100000000000000000000000000000000000000000000000000000000600052601260045260246000fd5b6000611983826111a1565b915061198e836111a1565b92508261199e5761199d611949565b5b828206905092915050565b60006020820190506119be60008301846118b6565b9291505056fea2646970667358221220bc79dd65e40094ebd38095a9857ce0304404984769cc33c6b80c4c4c9d51036d64736f6c634300081e003368747470733a2f2f646967696d6f6e2e6e65742f63696d616765732f646967696d6f6e2f6d6574616c6574656d6f6e2e6a706768747470733a2f2f646967696d6f6e2e6e65742f63696d616765732f646967696d6f6e2f68616e696d6f6e2e6a706768747470733a2f2f646967696d6f6e2e6e65742f63696d616765732f646967696d6f6e2f67657262656d6f6e2e6a7067",
  "linkReferences": {},
  "deployedLinkReferences": {}
}