{
  "_format": "hh-sol-artifact-1",
  "contractName": "MyNFT",
  "sourceName": "contracts/MyNFT.sol",
  "abi": [
    {
      "inputs": [
        {
          "internalType": "string",
          "name": "name",
          "type": "string"
        },
        {
          "internalType": "string",
          "name": "symbol",
          "type": "string"
        }
      ],
      "stateMutability": "nonpayable",
      "type": "constructor"
    },
    {
      "inputs": [
        {
          "internalType": "address",
          "name": "sender",
          "type": "address"
        },
        {
          "internalType": "uint256",
          "name": "tokenId",
          "type": "uint256"
        },
        {
          "internalType": "address",
          "name": "owner",
          "type": "address"
        }
      ],
      "name": "ERC721IncorrectOwner",
      "type": "error"
    },
    {
      "inputs": [
        {
          "internalType": "address",
          "name": "operator",
          "type": "address"
        },
        {
          "internalType": "uint256",
          "name": "tokenId",
          "type": "uint256"
        }
      ],
      "name": "ERC721InsufficientApproval",
      "type": "error"
    },
    {
      "inputs": [
        {
          "internalType": "address",
          "name": "approver",
          "type": "address"
        }
      ],
      "name": "ERC721InvalidApprover",
      "type": "error"
    },
    {
      "inputs": [
        {
          "internalType": "address",
          "name": "operator",
          "type": "address"
        }
      ],
      "name": "ERC721InvalidOperator",
      "type": "error"
    },
    {
      "inputs": [
        {
          "internalType": "address",
          "name": "owner",
          "type": "address"
        }
      ],
      "name": "ERC721InvalidOwner",
      "type": "error"
    },
    {
      "inputs": [
        {
          "internalType": "address",
          "name": "receiver",
          "type": "address"
        }
      ],
      "name": "ERC721InvalidReceiver",
      "type": "error"
    },
    {
      "inputs": [
        {
          "internalType": "address",
          "name": "sender",
          "type": "address"
        }
      ],
      "name": "ERC721InvalidSender",
      "type": "error"
    },
    {
      "inputs": [
        {
          "internalType": "uint256",
          "name": "tokenId",
          "type": "uint256"
        }
      ],
      "name": "ERC721NonexistentToken",
      "type": "error"
    },
    {
      "inputs": [
        {
          "internalType": "address",
          "name": "owner",
          "type": "address"
        }
      ],
      "name": "OwnableInvalidOwner",
      "type": "error"
    },
    {
      "inputs": [
        {
          "internalType": "address",
          "name": "account",
          "type": "address"
        }
      ],
      "name": "OwnableUnauthorizedAccount",
      "type": "error"
    },
    {
      "anonymous": false,
      "inputs": [
        {
          "indexed": true,
          "internalType": "address",
          "name": "owner",
          "type": "address"
        },
        {
          "indexed": true,
          "internalType": "address",
          "name": "approved",
          "type": "address"
        },
        {
          "indexed": true,
          "internalType": "uint256",
          "name": "tokenId",
          "type": "uint256"
        }
      ],
      "name": "Approval",
      "type": "event"
    },
    {
      "anonymous": false,
      "inputs": [
        {
          "indexed": true,
          "internalType": "address",
          "name": "owner",
          "type": "address"
        },
        {
          "indexed": true,
          "internalType": "address",
          "name": "operator",
          "type": "address"
        },
        {
          "indexed": false,
          "internalType": "bool",
          "name": "approved",
          "type": "bool"
        }
      ],
      "name": "ApprovalForAll",
      "type": "event"
    },
    {
      "anonymous": false,
      "inputs": [
        {
          "indexed": false,
          "internalType": "uint256",
          "name": "_fromTokenId",
          "type": "uint256"
        },
        {
          "indexed": false,
          "internalType": "uint256",
          "name": "_toTokenId",
          "type": "uint256"
        }
      ],
      "name": "BatchMetadataUpdate",
      "type": "event"
    },
    {
      "anonymous": false,
      "inputs": [
        {
          "indexed": false,
          "internalType": "uint256",
          "name": "_tokenId",
          "type": "uint256"
        }
      ],
      "name": "MetadataUpdate",
      "type": "event"
    },
    {
      "anonymous": false,
      "inputs": [
        {
          "indexed": true,
          "internalType": "address",
          "name": "previousOwner",
          "type": "address"
        },
        {
          "indexed": true,
          "internalType": "address",
          "name": "newOwner",
          "type": "address"
        }
      ],
      "name": "OwnershipTransferred",
      "type": "event"
    },
    {
      "anonymous": false,
      "inputs": [
        {
          "indexed": true,
          "internalType": "address",
          "name": "from",
          "type": "address"
        },
        {
          "indexed": true,
          "internalType": "address",
          "name": "to",
          "type": "address"
        },
        {
          "indexed": true,
          "internalType": "uint256",
          "name": "tokenId",
          "type": "uint256"
        }
      ],
      "name": "Transfer",
      "type": "event"
    },
    {
      "inputs": [
        {
          "internalType": "address",
          "name": "to",
          "type": "address"
        },
        {
          "internalType": "uint256",
          "name": "tokenId",
          "type": "uint256"
        }
      ],
      "name": "approve",
      "outputs": [],
      "stateMutability": "nonpayable",
      "type": "function"
    },
    {
      "inputs": [
        {
          "internalType": "address",
          "name": "owner",
          "type": "address"
        }
      ],
      "name": "balanceOf",
      "outputs": [
        {
          "internalType": "uint256",
          "name": "",
          "type": "uint256"
        }
      ],
      "stateMutability": "view",
      "type": "function"
    },
    {
      "inputs": [
        {
          "internalType": "uint256",
          "name": "tokenId",
          "type": "uint256"
        }
      ],
      "name": "getApproved",
      "outputs": [
        {
          "internalType": "address",
          "name": "",
          "type": "address"
        }
      ],
      "stateMutability": "view",
      "type": "function"
    },
    {
      "inputs": [
        {
          "internalType": "address",
          "name": "owner",
          "type": "address"
        },
        {
          "internalType": "address",
          "name": "operator",
          "type": "address"
        }
      ],
      "name": "isApprovedForAll",
      "outputs": [
        {
          "internalType": "bool",
          "name": "",
          "type": "bool"
        }
      ],
      "stateMutability": "view",
      "type": "function"
    },
    {
      "inputs": [
        {
          "internalType": "string",
          "name": "_tokenURI",
          "type": "string"
        }
      ],
      "name": "minting",
      "outputs": [
        {
          "internalType": "uint256",
          "name": "",
          "type": "uint256"
        }
      ],
      "stateMutability": "nonpayable",
      "type": "function"
    },
    {
      "inputs": [],
      "name": "name",
      "outputs": [
        {
          "internalType": "string",
          "name": "",
          "type": "string"
        }
      ],
      "stateMutability": "view",
      "type": "function"
    },
    {
      "inputs": [],
      "name": "owner",
      "outputs": [
        {
          "internalType": "address",
          "name": "",
          "type": "address"
        }
      ],
      "stateMutability": "view",
      "type": "function"
    },
    {
      "inputs": [
        {
          "internalType": "uint256",
          "name": "tokenId",
          "type": "uint256"
        }
      ],
      "name": "ownerOf",
      "outputs": [
        {
          "internalType": "address",
          "name": "",
          "type": "address"
        }
      ],
      "stateMutability": "view",
      "type": "function"
    },
    {
      "inputs": [],
      "name": "renounceOwnership",
      "outputs": [],
      "stateMutability": "nonpayable",
      "type": "function"
    },
    {
      "inputs": [
        {
          "internalType": "address",
          "name": "from",
          "type": "address"
        },
        {
          "internalType": "address",
          "name": "to",
          "type": "address"
        },
        {
          "internalType": "uint256",
          "name": "tokenId",
          "type": "uint256"
        }
      ],
      "name": "safeTransferFrom",
      "outputs": [],
      "stateMutability": "nonpayable",
      "type": "function"
    },
    {
      "inputs": [
        {
          "internalType": "address",
          "name": "from",
          "type": "address"
        },
        {
          "internalType": "address",
          "name": "to",
          "type": "address"
        },
        {
          "internalType": "uint256",
          "name": "tokenId",
          "type": "uint256"
        },
        {
          "internalType": "bytes",
          "name": "data",
          "type": "bytes"
        }
      ],
      "name": "safeTransferFrom",
      "outputs": [],
      "stateMutability": "nonpayable",
      "type": "function"
    },
    {
      "inputs": [
        {
          "internalType": "address",
          "name": "operator",
          "type": "address"
        },
        {
          "internalType": "bool",
          "name": "approved",
          "type": "bool"
        }
      ],
      "name": "setApprovalForAll",
      "outputs": [],
      "stateMutability": "nonpayable",
      "type": "function"
    },
    {
      "inputs": [
        {
          "internalType": "bytes4",
          "name": "interfaceId",
          "type": "bytes4"
        }
      ],
      "name": "supportsInterface",
      "outputs": [
        {
          "internalType": "bool",
          "name": "",
          "type": "bool"
        }
      ],
      "stateMutability": "view",
      "type": "function"
    },
    {
      "inputs": [],
      "name": "symbol",
      "outputs": [
        {
          "internalType": "string",
          "name": "",
          "type": "string"
        }
      ],
      "stateMutability": "view",
      "type": "function"
    },
    {
      "inputs": [
        {
          "internalType": "uint256",
          "name": "tokenId",
          "type": "uint256"
        }
      ],
      "name": "tokenURI",
      "outputs": [
        {
          "internalType": "string",
          "name": "",
          "type": "string"
        }
      ],
      "stateMutability": "view",
      "type": "function"
    },
    {
      "inputs": [
        {
          "internalType": "address",
          "name": "from",
          "type": "address"
        },
        {
          "internalType": "address",
          "name": "to",
          "type": "address"
        },
        {
          "internalType": "uint256",
          "name": "tokenId",
          "type": "uint256"
        }
      ],
      "name": "transferFrom",
      "outputs": [],
      "stateMutability": "nonpayable",
      "type": "function"
    },
    {
      "inputs": [
        {
          "internalType": "address",
          "name": "newOwner",
          "type": "address"
        }
      ],
      "name": "transferOwnership",
      "outputs": [],
      "stateMutability": "nonpayable",
      "type": "function"
    }
  ],
  "bytecode": "0x608060405234801561001057600080fd5b50604051612d57380380612d578339818101604052810190610032919061031b565b338282816000908161004491906105b4565b50806001908161005491906105b4565b505050600073ffffffffffffffffffffffffffffffffffffffff168173ffffffffffffffffffffffffffffffffffffffff16036100c95760006040517f1e4fbdf70000000000000000000000000000000000000000000000000000000081526004016100c091906106c7565b60405180910390fd5b6100d8816100e060201b60201c565b5050506106e2565b6000600760009054906101000a900473ffffffffffffffffffffffffffffffffffffffff16905081600760006101000a81548173ffffffffffffffffffffffffffffffffffffffff021916908373ffffffffffffffffffffffffffffffffffffffff1602179055508173ffffffffffffffffffffffffffffffffffffffff168173ffffffffffffffffffffffffffffffffffffffff167f8be0079c531659141344cd1fd0a4f28419497f9722a3daafe3b4186f6b6457e060405160405180910390a35050565b6000604051905090565b600080fd5b600080fd5b600080fd5b600080fd5b6000601f19601f8301169050919050565b7f4e487b7100000000000000000000000000000000000000000000000000000000600052604160045260246000fd5b61020d826101c4565b810181811067ffffffffffffffff8211171561022c5761022b6101d5565b5b80604052505050565b600061023f6101a6565b905061024b8282610204565b919050565b600067ffffffffffffffff82111561026b5761026a6101d5565b5b610274826101c4565b9050602081019050919050565b60005b8381101561029f578082015181840152602081019050610284565b60008484015250505050565b60006102be6102b984610250565b610235565b9050828152602081018484840111156102da576102d96101bf565b5b6102e5848285610281565b509392505050565b600082601f830112610302576103016101ba565b5b81516103128482602086016102ab565b91505092915050565b60008060408385031215610332576103316101b0565b5b600083015167ffffffffffffffff8111156103505761034f6101b5565b5b61035c858286016102ed565b925050602083015167ffffffffffffffff81111561037d5761037c6101b5565b5b610389858286016102ed565b9150509250929050565b600081519050919050565b7f4e487b7100000000000000000000000000000000000000000000000000000000600052602260045260246000fd5b600060028204905060018216806103e557607f821691505b6020821081036103f8576103f761039e565b5b50919050565b60008190508160005260206000209050919050565b60006020601f8301049050919050565b600082821b905092915050565b6000600883026104607fffffffffffffffffffffffffffffffffffffffffffffffffffffffffffffffff82610423565b61046a8683610423565b95508019841693508086168417925050509392505050565b6000819050919050565b6000819050919050565b60006104b16104ac6104a784610482565b61048c565b610482565b9050919050565b6000819050919050565b6104cb83610496565b6104df6104d7826104b8565b848454610430565b825550505050565b600090565b6104f46104e7565b6104ff8184846104c2565b505050565b5b81811015610523576105186000826104ec565b600181019050610505565b5050565b601f82111561056857610539816103fe565b61054284610413565b81016020851015610551578190505b61056561055d85610413565b830182610504565b50505b505050565b600082821c905092915050565b600061058b6000198460080261056d565b1980831691505092915050565b60006105a4838361057a565b9150826002028217905092915050565b6105bd82610393565b67ffffffffffffffff8111156105d6576105d56101d5565b5b6105e082546103cd565b6105eb828285610527565b600060209050601f83116001811461061e576000841561060c578287015190505b6106168582610598565b86555061067e565b601f19841661062c866103fe565b60005b828110156106545784890151825560018201915060208501945060208101905061062f565b86831015610671578489015161066d601f89168261057a565b8355505b6001600288020188555050505b505050505050565b600073ffffffffffffffffffffffffffffffffffffffff82169050919050565b60006106b182610686565b9050919050565b6106c1816106a6565b82525050565b60006020820190506106dc60008301846106b8565b92915050565b612666806106f16000396000f3fe608060405234801561001057600080fd5b506004361061010b5760003560e01c806370a08231116100a2578063a22cb46511610071578063a22cb465146102b8578063b88d4fde146102d4578063c87b56dd146102f0578063e985e9c514610320578063f2fde38b146103505761010b565b806370a0823114610242578063715018a6146102725780638da5cb5b1461027c57806395d89b411461029a5761010b565b80630bdc9008116100de5780630bdc9008146101aa57806323b872dd146101da57806342842e0e146101f65780636352211e146102125761010b565b806301ffc9a71461011057806306fdde0314610140578063081812fc1461015e578063095ea7b31461018e575b600080fd5b61012a60048036038101906101259190611ad1565b61036c565b6040516101379190611b19565b60405180910390f35b6101486103cd565b6040516101559190611bc4565b60405180910390f35b61017860048036038101906101739190611c1c565b61045f565b6040516101859190611c8a565b60405180910390f35b6101a860048036038101906101a39190611cd1565b61047b565b005b6101c460048036038101906101bf9190611e46565b610491565b6040516101d19190611e9e565b60405180910390f35b6101f460048036038101906101ef9190611eb9565b6104ce565b005b610210600480360381019061020b9190611eb9565b6105d0565b005b61022c60048036038101906102279190611c1c565b6105f0565b6040516102399190611c8a565b60405180910390f35b61025c60048036038101906102579190611f0c565b610602565b6040516102699190611e9e565b60405180910390f35b61027a6106bc565b005b6102846106d0565b6040516102919190611c8a565b60405180910390f35b6102a26106fa565b6040516102af9190611bc4565b60405180910390f35b6102d260048036038101906102cd9190611f65565b61078c565b005b6102ee60048036038101906102e99190612046565b6107a2565b005b61030a60048036038101906103059190611c1c565b6107c7565b6040516103179190611bc4565b60405180910390f35b61033a600480360381019061033591906120c9565b6108da565b6040516103479190611b19565b60405180910390f35b61036a60048036038101906103659190611f0c565b61096e565b005b6000634906490660e01b7bffffffffffffffffffffffffffffffffffffffffffffffffffffffff1916827bffffffffffffffffffffffffffffffffffffffffffffffffffffffff191614806103c657506103c5826109f4565b5b9050919050565b6060600080546103dc90612138565b80601f016020809104026020016040519081016040528092919081815260200182805461040890612138565b80156104555780601f1061042a57610100808354040283529160200191610455565b820191906000526020600020905b81548152906001019060200180831161043857829003601f168201915b5050505050905090565b600061046a82610ad6565b5061047482610b5e565b9050919050565b61048d8282610488610b9b565b610ba3565b5050565b60008060085490506104a33382610bb5565b6104ad8184610bd3565b600860008154809291906104c090612198565b919050555080915050919050565b600073ffffffffffffffffffffffffffffffffffffffff168273ffffffffffffffffffffffffffffffffffffffff16036105405760006040517f64a0ae920000000000000000000000000000000000000000000000000000000081526004016105379190611c8a565b60405180910390fd5b6000610554838361054f610b9b565b610c2f565b90508373ffffffffffffffffffffffffffffffffffffffff168173ffffffffffffffffffffffffffffffffffffffff16146105ca578382826040517f64283d7b0000000000000000000000000000000000000000000000000000000081526004016105c1939291906121e0565b60405180910390fd5b50505050565b6105eb838383604051806020016040528060008152506107a2565b505050565b60006105fb82610ad6565b9050919050565b60008073ffffffffffffffffffffffffffffffffffffffff168273ffffffffffffffffffffffffffffffffffffffff16036106755760006040517f89c62b6400000000000000000000000000000000000000000000000000000000815260040161066c9190611c8a565b60405180910390fd5b600360008373ffffffffffffffffffffffffffffffffffffffff1673ffffffffffffffffffffffffffffffffffffffff168152602001908152602001600020549050919050565b6106c4610e49565b6106ce6000610ed0565b565b6000600760009054906101000a900473ffffffffffffffffffffffffffffffffffffffff16905090565b60606001805461070990612138565b80601f016020809104026020016040519081016040528092919081815260200182805461073590612138565b80156107825780601f1061075757610100808354040283529160200191610782565b820191906000526020600020905b81548152906001019060200180831161076557829003601f168201915b5050505050905090565b61079e610797610b9b565b8383610f96565b5050565b6107ad8484846104ce565b6107c16107b8610b9b565b85858585611105565b50505050565b60606107d282610ad6565b5060006006600084815260200190815260200160002080546107f390612138565b80601f016020809104026020016040519081016040528092919081815260200182805461081f90612138565b801561086c5780601f106108415761010080835404028352916020019161086c565b820191906000526020600020905b81548152906001019060200180831161084f57829003601f168201915b50505050509050600061087d6112b6565b905060008151036108925781925050506108d5565b6000825111156108c75780826040516020016108af929190612253565b604051602081830303815290604052925050506108d5565b6108d0846112cd565b925050505b919050565b6000600560008473ffffffffffffffffffffffffffffffffffffffff1673ffffffffffffffffffffffffffffffffffffffff16815260200190815260200160002060008373ffffffffffffffffffffffffffffffffffffffff1673ffffffffffffffffffffffffffffffffffffffff16815260200190815260200160002060009054906101000a900460ff16905092915050565b610976610e49565b600073ffffffffffffffffffffffffffffffffffffffff168173ffffffffffffffffffffffffffffffffffffffff16036109e85760006040517f1e4fbdf70000000000000000000000000000000000000000000000000000000081526004016109df9190611c8a565b60405180910390fd5b6109f181610ed0565b50565b60007f80ac58cd000000000000000000000000000000000000000000000000000000007bffffffffffffffffffffffffffffffffffffffffffffffffffffffff1916827bffffffffffffffffffffffffffffffffffffffffffffffffffffffff19161480610abf57507f5b5e139f000000000000000000000000000000000000000000000000000000007bffffffffffffffffffffffffffffffffffffffffffffffffffffffff1916827bffffffffffffffffffffffffffffffffffffffffffffffffffffffff1916145b80610acf5750610ace82611336565b5b9050919050565b600080610ae2836113a0565b9050600073ffffffffffffffffffffffffffffffffffffffff168173ffffffffffffffffffffffffffffffffffffffff1603610b5557826040517f7e273289000000000000000000000000000000000000000000000000000000008152600401610b4c9190611e9e565b60405180910390fd5b80915050919050565b60006004600083815260200190815260200160002060009054906101000a900473ffffffffffffffffffffffffffffffffffffffff169050919050565b600033905090565b610bb083838360016113dd565b505050565b610bcf8282604051806020016040528060008152506115a2565b5050565b80600660008481526020019081526020016000209081610bf39190612423565b507ff8e1a15aba9398e019f0b49df1a4fde98ee17ae345cb5f6b5e2c27f5033e8ce782604051610c239190611e9e565b60405180910390a15050565b600080610c3b846113a0565b9050600073ffffffffffffffffffffffffffffffffffffffff168373ffffffffffffffffffffffffffffffffffffffff1614610c7d57610c7c8184866115c6565b5b600073ffffffffffffffffffffffffffffffffffffffff168173ffffffffffffffffffffffffffffffffffffffff1614610d0e57610cbf6000856000806113dd565b6001600360008373ffffffffffffffffffffffffffffffffffffffff1673ffffffffffffffffffffffffffffffffffffffff168152602001908152602001600020600082825403925050819055505b600073ffffffffffffffffffffffffffffffffffffffff168573ffffffffffffffffffffffffffffffffffffffff1614610d91576001600360008773ffffffffffffffffffffffffffffffffffffffff1673ffffffffffffffffffffffffffffffffffffffff168152602001908152602001600020600082825401925050819055505b846002600086815260200190815260200160002060006101000a81548173ffffffffffffffffffffffffffffffffffffffff021916908373ffffffffffffffffffffffffffffffffffffffff160217905550838573ffffffffffffffffffffffffffffffffffffffff168273ffffffffffffffffffffffffffffffffffffffff167fddf252ad1be2c89b69c2b068fc378daa952ba7f163c4a11628f55a4df523b3ef60405160405180910390a4809150509392505050565b610e51610b9b565b73ffffffffffffffffffffffffffffffffffffffff16610e6f6106d0565b73ffffffffffffffffffffffffffffffffffffffff1614610ece57610e92610b9b565b6040517f118cdaa7000000000000000000000000000000000000000000000000000000008152600401610ec59190611c8a565b60405180910390fd5b565b6000600760009054906101000a900473ffffffffffffffffffffffffffffffffffffffff16905081600760006101000a81548173ffffffffffffffffffffffffffffffffffffffff021916908373ffffffffffffffffffffffffffffffffffffffff1602179055508173ffffffffffffffffffffffffffffffffffffffff168173ffffffffffffffffffffffffffffffffffffffff167f8be0079c531659141344cd1fd0a4f28419497f9722a3daafe3b4186f6b6457e060405160405180910390a35050565b600073ffffffffffffffffffffffffffffffffffffffff168273ffffffffffffffffffffffffffffffffffffffff160361100757816040517f5b08ba18000000000000000000000000000000000000000000000000000000008152600401610ffe9190611c8a565b60405180910390fd5b80600560008573ffffffffffffffffffffffffffffffffffffffff1673ffffffffffffffffffffffffffffffffffffffff16815260200190815260200160002060008473ffffffffffffffffffffffffffffffffffffffff1673ffffffffffffffffffffffffffffffffffffffff16815260200190815260200160002060006101000a81548160ff0219169083151502179055508173ffffffffffffffffffffffffffffffffffffffff168373ffffffffffffffffffffffffffffffffffffffff167f17307eab39ab6107e8899845ad3d59bd9653f200f220920489ca2b5937696c31836040516110f89190611b19565b60405180910390a3505050565b60008373ffffffffffffffffffffffffffffffffffffffff163b11156112af578273ffffffffffffffffffffffffffffffffffffffff1663150b7a02868685856040518563ffffffff1660e01b8152600401611164949392919061254a565b6020604051808303816000875af19250505080156111a057506040513d601f19601f8201168201806040525081019061119d91906125ab565b60015b611224573d80600081146111d0576040519150601f19603f3d011682016040523d82523d6000602084013e6111d5565b606091505b50600081510361121c57836040517f64a0ae920000000000000000000000000000000000000000000000000000000081526004016112139190611c8a565b60405180910390fd5b805181602001fd5b63150b7a0260e01b7bffffffffffffffffffffffffffffffffffffffffffffffffffffffff1916817bffffffffffffffffffffffffffffffffffffffffffffffffffffffff1916146112ad57836040517f64a0ae920000000000000000000000000000000000000000000000000000000081526004016112a49190611c8a565b60405180910390fd5b505b5050505050565b606060405180602001604052806000815250905090565b60606112d882610ad6565b5060006112e36112b6565b90506000815111611303576040518060200160405280600081525061132e565b8061130d8461168a565b60405160200161131e929190612253565b6040516020818303038152906040525b915050919050565b60007f01ffc9a7000000000000000000000000000000000000000000000000000000007bffffffffffffffffffffffffffffffffffffffffffffffffffffffff1916827bffffffffffffffffffffffffffffffffffffffffffffffffffffffff1916149050919050565b60006002600083815260200190815260200160002060009054906101000a900473ffffffffffffffffffffffffffffffffffffffff169050919050565b80806114165750600073ffffffffffffffffffffffffffffffffffffffff168273ffffffffffffffffffffffffffffffffffffffff1614155b1561154a57600061142684610ad6565b9050600073ffffffffffffffffffffffffffffffffffffffff168373ffffffffffffffffffffffffffffffffffffffff161415801561149157508273ffffffffffffffffffffffffffffffffffffffff168173ffffffffffffffffffffffffffffffffffffffff1614155b80156114a457506114a281846108da565b155b156114e657826040517fa9fbf51f0000000000000000000000000000000000000000000000000000000081526004016114dd9190611c8a565b60405180910390fd5b811561154857838573ffffffffffffffffffffffffffffffffffffffff168273ffffffffffffffffffffffffffffffffffffffff167f8c5be1e5ebec7d5bd14f71427d1e84f3dd0314c0f7b2291e5b200ac8c7c3b92560405160405180910390a45b505b836004600085815260200190815260200160002060006101000a81548173ffffffffffffffffffffffffffffffffffffffff021916908373ffffffffffffffffffffffffffffffffffffffff16021790555050505050565b6115ac8383611758565b6115c16115b7610b9b565b6000858585611105565b505050565b6115d1838383611851565b61168557600073ffffffffffffffffffffffffffffffffffffffff168373ffffffffffffffffffffffffffffffffffffffff160361164657806040517f7e27328900000000000000000000000000000000000000000000000000000000815260040161163d9190611e9e565b60405180910390fd5b81816040517f177e802f00000000000000000000000000000000000000000000000000000000815260040161167c9291906125d8565b60405180910390fd5b505050565b60606000600161169984611912565b01905060008167ffffffffffffffff8111156116b8576116b7611d1b565b5b6040519080825280601f01601f1916602001820160405280156116ea5781602001600182028036833780820191505090505b509050600082602001820190505b60011561174d578080600190039150507f3031323334353637383961626364656600000000000000000000000000000000600a86061a8153600a858161174157611740612601565b5b049450600085036116f8575b819350505050919050565b600073ffffffffffffffffffffffffffffffffffffffff168273ffffffffffffffffffffffffffffffffffffffff16036117ca5760006040517f64a0ae920000000000000000000000000000000000000000000000000000000081526004016117c19190611c8a565b60405180910390fd5b60006117d883836000610c2f565b9050600073ffffffffffffffffffffffffffffffffffffffff168173ffffffffffffffffffffffffffffffffffffffff161461184c5760006040517f73c6ac6e0000000000000000000000000000000000000000000000000000000081526004016118439190611c8a565b60405180910390fd5b505050565b60008073ffffffffffffffffffffffffffffffffffffffff168373ffffffffffffffffffffffffffffffffffffffff161415801561190957508273ffffffffffffffffffffffffffffffffffffffff168473ffffffffffffffffffffffffffffffffffffffff1614806118ca57506118c984846108da565b5b8061190857508273ffffffffffffffffffffffffffffffffffffffff166118f083610b5e565b73ffffffffffffffffffffffffffffffffffffffff16145b5b90509392505050565b600080600090507a184f03e93ff9f4daa797ed6e38ed64bf6a1f0100000000000000008310611970577a184f03e93ff9f4daa797ed6e38ed64bf6a1f010000000000000000838161196657611965612601565b5b0492506040810190505b6d04ee2d6d415b85acef810000000083106119ad576d04ee2d6d415b85acef810000000083816119a3576119a2612601565b5b0492506020810190505b662386f26fc1000083106119dc57662386f26fc1000083816119d2576119d1612601565b5b0492506010810190505b6305f5e1008310611a05576305f5e10083816119fb576119fa612601565b5b0492506008810190505b6127108310611a2a576127108381611a2057611a1f612601565b5b0492506004810190505b60648310611a4d5760648381611a4357611a42612601565b5b0492506002810190505b600a8310611a5c576001810190505b80915050919050565b6000604051905090565b600080fd5b600080fd5b60007fffffffff0000000000000000000000000000000000000000000000000000000082169050919050565b611aae81611a79565b8114611ab957600080fd5b50565b600081359050611acb81611aa5565b92915050565b600060208284031215611ae757611ae6611a6f565b5b6000611af584828501611abc565b91505092915050565b60008115159050919050565b611b1381611afe565b82525050565b6000602082019050611b2e6000830184611b0a565b92915050565b600081519050919050565b600082825260208201905092915050565b60005b83811015611b6e578082015181840152602081019050611b53565b60008484015250505050565b6000601f19601f8301169050919050565b6000611b9682611b34565b611ba08185611b3f565b9350611bb0818560208601611b50565b611bb981611b7a565b840191505092915050565b60006020820190508181036000830152611bde8184611b8b565b905092915050565b6000819050919050565b611bf981611be6565b8114611c0457600080fd5b50565b600081359050611c1681611bf0565b92915050565b600060208284031215611c3257611c31611a6f565b5b6000611c4084828501611c07565b91505092915050565b600073ffffffffffffffffffffffffffffffffffffffff82169050919050565b6000611c7482611c49565b9050919050565b611c8481611c69565b82525050565b6000602082019050611c9f6000830184611c7b565b92915050565b611cae81611c69565b8114611cb957600080fd5b50565b600081359050611ccb81611ca5565b92915050565b60008060408385031215611ce857611ce7611a6f565b5b6000611cf685828601611cbc565b9250506020611d0785828601611c07565b9150509250929050565b600080fd5b600080fd5b7f4e487b7100000000000000000000000000000000000000000000000000000000600052604160045260246000fd5b611d5382611b7a565b810181811067ffffffffffffffff82111715611d7257611d71611d1b565b5b80604052505050565b6000611d85611a65565b9050611d918282611d4a565b919050565b600067ffffffffffffffff821115611db157611db0611d1b565b5b611dba82611b7a565b9050602081019050919050565b82818337600083830152505050565b6000611de9611de484611d96565b611d7b565b905082815260208101848484011115611e0557611e04611d16565b5b611e10848285611dc7565b509392505050565b600082601f830112611e2d57611e2c611d11565b5b8135611e3d848260208601611dd6565b91505092915050565b600060208284031215611e5c57611e5b611a6f565b5b600082013567ffffffffffffffff811115611e7a57611e79611a74565b5b611e8684828501611e18565b91505092915050565b611e9881611be6565b82525050565b6000602082019050611eb36000830184611e8f565b92915050565b600080600060608486031215611ed257611ed1611a6f565b5b6000611ee086828701611cbc565b9350506020611ef186828701611cbc565b9250506040611f0286828701611c07565b9150509250925092565b600060208284031215611f2257611f21611a6f565b5b6000611f3084828501611cbc565b91505092915050565b611f4281611afe565b8114611f4d57600080fd5b50565b600081359050611f5f81611f39565b92915050565b60008060408385031215611f7c57611f7b611a6f565b5b6000611f8a85828601611cbc565b9250506020611f9b85828601611f50565b9150509250929050565b600067ffffffffffffffff821115611fc057611fbf611d1b565b5b611fc982611b7a565b9050602081019050919050565b6000611fe9611fe484611fa5565b611d7b565b90508281526020810184848401111561200557612004611d16565b5b612010848285611dc7565b509392505050565b600082601f83011261202d5761202c611d11565b5b813561203d848260208601611fd6565b91505092915050565b600080600080608085870312156120605761205f611a6f565b5b600061206e87828801611cbc565b945050602061207f87828801611cbc565b935050604061209087828801611c07565b925050606085013567ffffffffffffffff8111156120b1576120b0611a74565b5b6120bd87828801612018565b91505092959194509250565b600080604083850312156120e0576120df611a6f565b5b60006120ee85828601611cbc565b92505060206120ff85828601611cbc565b9150509250929050565b7f4e487b7100000000000000000000000000000000000000000000000000000000600052602260045260246000fd5b6000600282049050600182168061215057607f821691505b60208210810361216357612162612109565b5b50919050565b7f4e487b7100000000000000000000000000000000000000000000000000000000600052601160045260246000fd5b60006121a382611be6565b91507fffffffffffffffffffffffffffffffffffffffffffffffffffffffffffffffff82036121d5576121d4612169565b5b600182019050919050565b60006060820190506121f56000830186611c7b565b6122026020830185611e8f565b61220f6040830184611c7b565b949350505050565b600081905092915050565b600061222d82611b34565b6122378185612217565b9350612247818560208601611b50565b80840191505092915050565b600061225f8285612222565b915061226b8284612222565b91508190509392505050565b60008190508160005260206000209050919050565b60006020601f8301049050919050565b600082821b905092915050565b6000600883026122d97fffffffffffffffffffffffffffffffffffffffffffffffffffffffffffffffff8261229c565b6122e3868361229c565b95508019841693508086168417925050509392505050565b6000819050919050565b600061232061231b61231684611be6565b6122fb565b611be6565b9050919050565b6000819050919050565b61233a83612305565b61234e61234682612327565b8484546122a9565b825550505050565b600090565b612363612356565b61236e818484612331565b505050565b5b818110156123925761238760008261235b565b600181019050612374565b5050565b601f8211156123d7576123a881612277565b6123b18461228c565b810160208510156123c0578190505b6123d46123cc8561228c565b830182612373565b50505b505050565b600082821c905092915050565b60006123fa600019846008026123dc565b1980831691505092915050565b600061241383836123e9565b9150826002028217905092915050565b61242c82611b34565b67ffffffffffffffff81111561244557612444611d1b565b5b61244f8254612138565b61245a828285612396565b600060209050601f83116001811461248d576000841561247b578287015190505b6124858582612407565b8655506124ed565b601f19841661249b86612277565b60005b828110156124c35784890151825560018201915060208501945060208101905061249e565b868310156124e057848901516124dc601f8916826123e9565b8355505b6001600288020188555050505b505050505050565b600081519050919050565b600082825260208201905092915050565b600061251c826124f5565b6125268185612500565b9350612536818560208601611b50565b61253f81611b7a565b840191505092915050565b600060808201905061255f6000830187611c7b565b61256c6020830186611c7b565b6125796040830185611e8f565b818103606083015261258b8184612511565b905095945050505050565b6000815190506125a581611aa5565b92915050565b6000602082840312156125c1576125c0611a6f565b5b60006125cf84828501612596565b91505092915050565b60006040820190506125ed6000830185611c7b565b6125fa6020830184611e8f565b9392505050565b7f4e487b7100000000000000000000000000000000000000000000000000000000600052601260045260246000fdfea264697066735822122023d51840105ed82c2d8ce3c4390d258d81aa72aa76cd6ee2c7e70b5647b539d664736f6c634300081e0033",
  "linkReferences": {},
  "deployedLinkReferences": {}
}