{
	"contracts/Factory.sol": {
		"Factory": {
			"abi": [
				{
					"inputs": [],
					"name": "createContract",
					"outputs": [],
					"stateMutability": "nonpayable",
					"type": "function"
				},
				{
					"inputs": [
						{
							"internalType": "uint256",
							"name": "index",
							"type": "uint256"
						}
					],
					"name": "getContract",
					"outputs": [
						{
							"internalType": "contract DAO",
							"name": "",
							"type": "address"
						}
					],
					"stateMutability": "view",
					"type": "function"
				}
			],
			"devdoc": {
				"kind": "dev",
				"methods": {},
				"version": 1
			},
			"evm": {
				"assembly": "    /* \"contracts/Factory.sol\":78:512  contract Factory {... */\n  mstore(0x40, 0x80)\n  callvalue\n  dup1\n  iszero\n  tag_1\n  jumpi\n  revert(0x00, 0x00)\ntag_1:\n  pop\n  dataSize(sub_0)\n  dup1\n  dataOffset(sub_0)\n  0x00\n  codecopy\n  0x00\n  return\nstop\n\nsub_0: assembly {\n        /* \"contracts/Factory.sol\":78:512  contract Factory {... */\n      mstore(0x40, 0x80)\n      callvalue\n      dup1\n      iszero\n      tag_1\n      jumpi\n      revert(0x00, 0x00)\n    tag_1:\n      pop\n      jumpi(tag_2, lt(calldatasize, 0x04))\n      shr(0xe0, calldataload(0x00))\n      dup1\n      0x412a5a6d\n      eq\n      tag_3\n      jumpi\n      dup1\n      0x6ebc8c86\n      eq\n      tag_4\n      jumpi\n    tag_2:\n      revert(0x00, 0x00)\n        /* \"contracts/Factory.sol\":126:231  function createContract() external {... */\n    tag_3:\n      tag_5\n      tag_6\n      jump\t// in\n    tag_5:\n      stop\n        /* \"contracts/Factory.sol\":395:510  function getContract(uint index) external view checkLength(index) returns (DAO) {... */\n    tag_4:\n      tag_7\n      0x04\n      dup1\n      calldatasize\n      sub\n      dup2\n      add\n      swap1\n      tag_8\n      swap2\n      swap1\n      tag_9\n      jump\t// in\n    tag_8:\n      tag_10\n      jump\t// in\n    tag_7:\n      mload(0x40)\n      tag_11\n      swap2\n      swap1\n      tag_12\n      jump\t// in\n    tag_11:\n      mload(0x40)\n      dup1\n      swap2\n      sub\n      swap1\n      return\n        /* \"contracts/Factory.sol\":126:231  function createContract() external {... */\n    tag_6:\n        /* \"contracts/Factory.sol\":171:178  DAO dao */\n      0x00\n        /* \"contracts/Factory.sol\":189:199  msg.sender */\n      caller\n        /* \"contracts/Factory.sol\":181:200  new DAO(msg.sender) */\n      mload(0x40)\n      tag_14\n      swap1\n      tag_15\n      jump\t// in\n    tag_14:\n      tag_16\n      swap2\n      swap1\n      tag_17\n      jump\t// in\n    tag_16:\n      mload(0x40)\n      dup1\n      swap2\n      sub\n      swap1\n      0x00\n      create\n      dup1\n      iszero\n      dup1\n      iszero\n      tag_18\n      jumpi\n      returndatacopy(0x00, 0x00, returndatasize)\n      revert(0x00, returndatasize)\n    tag_18:\n      pop\n        /* \"contracts/Factory.sol\":171:200  DAO dao = new DAO(msg.sender) */\n      swap1\n      pop\n        /* \"contracts/Factory.sol\":210:214  DAOs */\n      0x00\n        /* \"contracts/Factory.sol\":220:223  dao */\n      dup2\n        /* \"contracts/Factory.sol\":210:224  DAOs.push(dao) */\n      swap1\n      dup1\n      0x01\n      dup2\n      sload\n      add\n      dup1\n      dup3\n      sstore\n      dup1\n      swap2\n      pop\n      pop\n      0x01\n      swap1\n      sub\n      swap1\n      0x00\n      mstore\n      keccak256(0x00, 0x20)\n      add\n      0x00\n      swap1\n      swap2\n      swap1\n      swap2\n      swap1\n      swap2\n      0x0100\n      exp\n      dup2\n      sload\n      dup2\n      0xffffffffffffffffffffffffffffffffffffffff\n      mul\n      not\n      and\n      swap1\n      dup4\n      0xffffffffffffffffffffffffffffffffffffffff\n      and\n      mul\n      or\n      swap1\n      sstore\n      pop\n        /* \"contracts/Factory.sol\":161:231  {... */\n      pop\n        /* \"contracts/Factory.sol\":126:231  function createContract() external {... */\n      jump\t// out\n        /* \"contracts/Factory.sol\":395:510  function getContract(uint index) external view checkLength(index) returns (DAO) {... */\n    tag_10:\n        /* \"contracts/Factory.sol\":470:473  DAO */\n      0x00\n        /* \"contracts/Factory.sol\":454:459  index */\n      dup2\n        /* \"contracts/Factory.sol\":344:348  DAOs */\n      0x00\n        /* \"contracts/Factory.sol\":344:355  DAOs.length */\n      dup1\n      sload\n      swap1\n      pop\n        /* \"contracts/Factory.sol\":336:341  index */\n      dup2\n        /* \"contracts/Factory.sol\":336:355  index < DAOs.length */\n      lt\n        /* \"contracts/Factory.sol\":328:371  require(index < DAOs.length, \"error index\") */\n      tag_21\n      jumpi\n      mload(0x40)\n      0x08c379a000000000000000000000000000000000000000000000000000000000\n      dup2\n      mstore\n      0x04\n      add\n      tag_22\n      swap1\n      tag_23\n      jump\t// in\n    tag_22:\n      mload(0x40)\n      dup1\n      swap2\n      sub\n      swap1\n      revert\n    tag_21:\n        /* \"contracts/Factory.sol\":492:496  DAOs */\n      0x00\n        /* \"contracts/Factory.sol\":497:502  index */\n      dup4\n        /* \"contracts/Factory.sol\":492:503  DAOs[index] */\n      dup2\n      sload\n      dup2\n      lt\n      tag_25\n      jumpi\n      tag_26\n      tag_27\n      jump\t// in\n    tag_26:\n    tag_25:\n      swap1\n      0x00\n      mstore\n      keccak256(0x00, 0x20)\n      add\n      0x00\n      swap1\n      sload\n      swap1\n      0x0100\n      exp\n      swap1\n      div\n      0xffffffffffffffffffffffffffffffffffffffff\n      and\n        /* \"contracts/Factory.sol\":485:503  return DAOs[index] */\n      swap2\n      pop\n        /* \"contracts/Factory.sol\":395:510  function getContract(uint index) external view checkLength(index) returns (DAO) {... */\n      pop\n      swap2\n      swap1\n      pop\n      jump\t// out\n    tag_15:\n      dataSize(sub_0)\n      dup1\n      dataOffset(sub_0)\n      dup4\n      codecopy\n      add\n      swap1\n      jump\t// out\n        /* \"#utility.yul\":88:205   */\n    tag_30:\n        /* \"#utility.yul\":197:198   */\n      0x00\n        /* \"#utility.yul\":194:195   */\n      0x00\n        /* \"#utility.yul\":187:199   */\n      revert\n        /* \"#utility.yul\":334:411   */\n    tag_32:\n        /* \"#utility.yul\":371:378   */\n      0x00\n        /* \"#utility.yul\":400:405   */\n      dup2\n        /* \"#utility.yul\":389:405   */\n      swap1\n      pop\n        /* \"#utility.yul\":334:411   */\n      swap2\n      swap1\n      pop\n      jump\t// out\n        /* \"#utility.yul\":417:539   */\n    tag_33:\n        /* \"#utility.yul\":490:514   */\n      tag_52\n        /* \"#utility.yul\":508:513   */\n      dup2\n        /* \"#utility.yul\":490:514   */\n      tag_32\n      jump\t// in\n    tag_52:\n        /* \"#utility.yul\":483:488   */\n      dup2\n        /* \"#utility.yul\":480:515   */\n      eq\n        /* \"#utility.yul\":470:533   */\n      tag_53\n      jumpi\n        /* \"#utility.yul\":529:530   */\n      0x00\n        /* \"#utility.yul\":526:527   */\n      0x00\n        /* \"#utility.yul\":519:531   */\n      revert\n        /* \"#utility.yul\":470:533   */\n    tag_53:\n        /* \"#utility.yul\":417:539   */\n      pop\n      jump\t// out\n        /* \"#utility.yul\":545:684   */\n    tag_34:\n        /* \"#utility.yul\":591:596   */\n      0x00\n        /* \"#utility.yul\":629:635   */\n      dup2\n        /* \"#utility.yul\":616:636   */\n      calldataload\n        /* \"#utility.yul\":607:636   */\n      swap1\n      pop\n        /* \"#utility.yul\":645:678   */\n      tag_55\n        /* \"#utility.yul\":672:677   */\n      dup2\n        /* \"#utility.yul\":645:678   */\n      tag_33\n      jump\t// in\n    tag_55:\n        /* \"#utility.yul\":545:684   */\n      swap3\n      swap2\n      pop\n      pop\n      jump\t// out\n        /* \"#utility.yul\":690:1019   */\n    tag_9:\n        /* \"#utility.yul\":749:755   */\n      0x00\n        /* \"#utility.yul\":798:800   */\n      0x20\n        /* \"#utility.yul\":786:795   */\n      dup3\n        /* \"#utility.yul\":777:784   */\n      dup5\n        /* \"#utility.yul\":773:796   */\n      sub\n        /* \"#utility.yul\":769:801   */\n      slt\n        /* \"#utility.yul\":766:885   */\n      iszero\n      tag_57\n      jumpi\n        /* \"#utility.yul\":804:883   */\n      tag_58\n      tag_30\n      jump\t// in\n    tag_58:\n        /* \"#utility.yul\":766:885   */\n    tag_57:\n        /* \"#utility.yul\":924:925   */\n      0x00\n        /* \"#utility.yul\":949:1002   */\n      tag_59\n        /* \"#utility.yul\":994:1001   */\n      dup5\n        /* \"#utility.yul\":985:991   */\n      dup3\n        /* \"#utility.yul\":974:983   */\n      dup6\n        /* \"#utility.yul\":970:992   */\n      add\n        /* \"#utility.yul\":949:1002   */\n      tag_34\n      jump\t// in\n    tag_59:\n        /* \"#utility.yul\":939:1002   */\n      swap2\n      pop\n        /* \"#utility.yul\":895:1012   */\n      pop\n        /* \"#utility.yul\":690:1019   */\n      swap3\n      swap2\n      pop\n      pop\n      jump\t// out\n        /* \"#utility.yul\":1025:1151   */\n    tag_35:\n        /* \"#utility.yul\":1062:1069   */\n      0x00\n        /* \"#utility.yul\":1102:1144   */\n      0xffffffffffffffffffffffffffffffffffffffff\n        /* \"#utility.yul\":1095:1100   */\n      dup3\n        /* \"#utility.yul\":1091:1145   */\n      and\n        /* \"#utility.yul\":1080:1145   */\n      swap1\n      pop\n        /* \"#utility.yul\":1025:1151   */\n      swap2\n      swap1\n      pop\n      jump\t// out\n        /* \"#utility.yul\":1157:1217   */\n    tag_36:\n        /* \"#utility.yul\":1185:1188   */\n      0x00\n        /* \"#utility.yul\":1206:1211   */\n      dup2\n        /* \"#utility.yul\":1199:1211   */\n      swap1\n      pop\n        /* \"#utility.yul\":1157:1217   */\n      swap2\n      swap1\n      pop\n      jump\t// out\n        /* \"#utility.yul\":1223:1365   */\n    tag_37:\n        /* \"#utility.yul\":1273:1282   */\n      0x00\n        /* \"#utility.yul\":1306:1359   */\n      tag_63\n        /* \"#utility.yul\":1324:1358   */\n      tag_64\n        /* \"#utility.yul\":1333:1357   */\n      tag_65\n        /* \"#utility.yul\":1351:1356   */\n      dup5\n        /* \"#utility.yul\":1333:1357   */\n      tag_35\n      jump\t// in\n    tag_65:\n        /* \"#utility.yul\":1324:1358   */\n      tag_36\n      jump\t// in\n    tag_64:\n        /* \"#utility.yul\":1306:1359   */\n      tag_35\n      jump\t// in\n    tag_63:\n        /* \"#utility.yul\":1293:1359   */\n      swap1\n      pop\n        /* \"#utility.yul\":1223:1365   */\n      swap2\n      swap1\n      pop\n      jump\t// out\n        /* \"#utility.yul\":1371:1497   */\n    tag_38:\n        /* \"#utility.yul\":1421:1430   */\n      0x00\n        /* \"#utility.yul\":1454:1491   */\n      tag_67\n        /* \"#utility.yul\":1485:1490   */\n      dup3\n        /* \"#utility.yul\":1454:1491   */\n      tag_37\n      jump\t// in\n    tag_67:\n        /* \"#utility.yul\":1441:1491   */\n      swap1\n      pop\n        /* \"#utility.yul\":1371:1497   */\n      swap2\n      swap1\n      pop\n      jump\t// out\n        /* \"#utility.yul\":1503:1640   */\n    tag_39:\n        /* \"#utility.yul\":1564:1573   */\n      0x00\n        /* \"#utility.yul\":1597:1634   */\n      tag_69\n        /* \"#utility.yul\":1628:1633   */\n      dup3\n        /* \"#utility.yul\":1597:1634   */\n      tag_38\n      jump\t// in\n    tag_69:\n        /* \"#utility.yul\":1584:1634   */\n      swap1\n      pop\n        /* \"#utility.yul\":1503:1640   */\n      swap2\n      swap1\n      pop\n      jump\t// out\n        /* \"#utility.yul\":1646:1799   */\n    tag_40:\n        /* \"#utility.yul\":1744:1792   */\n      tag_71\n        /* \"#utility.yul\":1786:1791   */\n      dup2\n        /* \"#utility.yul\":1744:1792   */\n      tag_39\n      jump\t// in\n    tag_71:\n        /* \"#utility.yul\":1739:1742   */\n      dup3\n        /* \"#utility.yul\":1732:1793   */\n      mstore\n        /* \"#utility.yul\":1646:1799   */\n      pop\n      pop\n      jump\t// out\n        /* \"#utility.yul\":1805:2049   */\n    tag_12:\n        /* \"#utility.yul\":1909:1913   */\n      0x00\n        /* \"#utility.yul\":1947:1949   */\n      0x20\n        /* \"#utility.yul\":1936:1945   */\n      dup3\n        /* \"#utility.yul\":1932:1950   */\n      add\n        /* \"#utility.yul\":1924:1950   */\n      swap1\n      pop\n        /* \"#utility.yul\":1960:2042   */\n      tag_73\n        /* \"#utility.yul\":2039:2040   */\n      0x00\n        /* \"#utility.yul\":2028:2037   */\n      dup4\n        /* \"#utility.yul\":2024:2041   */\n      add\n        /* \"#utility.yul\":2015:2021   */\n      dup5\n        /* \"#utility.yul\":1960:2042   */\n      tag_40\n      jump\t// in\n    tag_73:\n        /* \"#utility.yul\":1805:2049   */\n      swap3\n      swap2\n      pop\n      pop\n      jump\t// out\n        /* \"#utility.yul\":2055:2151   */\n    tag_41:\n        /* \"#utility.yul\":2092:2099   */\n      0x00\n        /* \"#utility.yul\":2121:2145   */\n      tag_75\n        /* \"#utility.yul\":2139:2144   */\n      dup3\n        /* \"#utility.yul\":2121:2145   */\n      tag_35\n      jump\t// in\n    tag_75:\n        /* \"#utility.yul\":2110:2145   */\n      swap1\n      pop\n        /* \"#utility.yul\":2055:2151   */\n      swap2\n      swap1\n      pop\n      jump\t// out\n        /* \"#utility.yul\":2157:2275   */\n    tag_42:\n        /* \"#utility.yul\":2244:2268   */\n      tag_77\n        /* \"#utility.yul\":2262:2267   */\n      dup2\n        /* \"#utility.yul\":2244:2268   */\n      tag_41\n      jump\t// in\n    tag_77:\n        /* \"#utility.yul\":2239:2242   */\n      dup3\n        /* \"#utility.yul\":2232:2269   */\n      mstore\n        /* \"#utility.yul\":2157:2275   */\n      pop\n      pop\n      jump\t// out\n        /* \"#utility.yul\":2281:2503   */\n    tag_17:\n        /* \"#utility.yul\":2374:2378   */\n      0x00\n        /* \"#utility.yul\":2412:2414   */\n      0x20\n        /* \"#utility.yul\":2401:2410   */\n      dup3\n        /* \"#utility.yul\":2397:2415   */\n      add\n        /* \"#utility.yul\":2389:2415   */\n      swap1\n      pop\n        /* \"#utility.yul\":2425:2496   */\n      tag_79\n        /* \"#utility.yul\":2493:2494   */\n      0x00\n        /* \"#utility.yul\":2482:2491   */\n      dup4\n        /* \"#utility.yul\":2478:2495   */\n      add\n        /* \"#utility.yul\":2469:2475   */\n      dup5\n        /* \"#utility.yul\":2425:2496   */\n      tag_42\n      jump\t// in\n    tag_79:\n        /* \"#utility.yul\":2281:2503   */\n      swap3\n      swap2\n      pop\n      pop\n      jump\t// out\n        /* \"#utility.yul\":2509:2678   */\n    tag_43:\n        /* \"#utility.yul\":2593:2604   */\n      0x00\n        /* \"#utility.yul\":2627:2633   */\n      dup3\n        /* \"#utility.yul\":2622:2625   */\n      dup3\n        /* \"#utility.yul\":2615:2634   */\n      mstore\n        /* \"#utility.yul\":2667:2671   */\n      0x20\n        /* \"#utility.yul\":2662:2665   */\n      dup3\n        /* \"#utility.yul\":2658:2672   */\n      add\n        /* \"#utility.yul\":2643:2672   */\n      swap1\n      pop\n        /* \"#utility.yul\":2509:2678   */\n      swap3\n      swap2\n      pop\n      pop\n      jump\t// out\n        /* \"#utility.yul\":2684:2845   */\n    tag_44:\n        /* \"#utility.yul\":2824:2837   */\n      0x6572726f7220696e646578000000000000000000000000000000000000000000\n        /* \"#utility.yul\":2820:2821   */\n      0x00\n        /* \"#utility.yul\":2812:2818   */\n      dup3\n        /* \"#utility.yul\":2808:2822   */\n      add\n        /* \"#utility.yul\":2801:2838   */\n      mstore\n        /* \"#utility.yul\":2684:2845   */\n      pop\n      jump\t// out\n        /* \"#utility.yul\":2851:3217   */\n    tag_45:\n        /* \"#utility.yul\":2993:2996   */\n      0x00\n        /* \"#utility.yul\":3014:3081   */\n      tag_83\n        /* \"#utility.yul\":3078:3080   */\n      0x0b\n        /* \"#utility.yul\":3073:3076   */\n      dup4\n        /* \"#utility.yul\":3014:3081   */\n      tag_43\n      jump\t// in\n    tag_83:\n        /* \"#utility.yul\":3007:3081   */\n      swap2\n      pop\n        /* \"#utility.yul\":3090:3183   */\n      tag_84\n        /* \"#utility.yul\":3179:3182   */\n      dup3\n        /* \"#utility.yul\":3090:3183   */\n      tag_44\n      jump\t// in\n    tag_84:\n        /* \"#utility.yul\":3208:3210   */\n      0x20\n        /* \"#utility.yul\":3203:3206   */\n      dup3\n        /* \"#utility.yul\":3199:3211   */\n      add\n        /* \"#utility.yul\":3192:3211   */\n      swap1\n      pop\n        /* \"#utility.yul\":2851:3217   */\n      swap2\n      swap1\n      pop\n      jump\t// out\n        /* \"#utility.yul\":3223:3642   */\n    tag_23:\n        /* \"#utility.yul\":3389:3393   */\n      0x00\n        /* \"#utility.yul\":3427:3429   */\n      0x20\n        /* \"#utility.yul\":3416:3425   */\n      dup3\n        /* \"#utility.yul\":3412:3430   */\n      add\n        /* \"#utility.yul\":3404:3430   */\n      swap1\n      pop\n        /* \"#utility.yul\":3476:3485   */\n      dup2\n        /* \"#utility.yul\":3470:3474   */\n      dup2\n        /* \"#utility.yul\":3466:3486   */\n      sub\n        /* \"#utility.yul\":3462:3463   */\n      0x00\n        /* \"#utility.yul\":3451:3460   */\n      dup4\n        /* \"#utility.yul\":3447:3464   */\n      add\n        /* \"#utility.yul\":3440:3487   */\n      mstore\n        /* \"#utility.yul\":3504:3635   */\n      tag_86\n        /* \"#utility.yul\":3630:3634   */\n      dup2\n        /* \"#utility.yul\":3504:3635   */\n      tag_45\n      jump\t// in\n    tag_86:\n        /* \"#utility.yul\":3496:3635   */\n      swap1\n      pop\n        /* \"#utility.yul\":3223:3642   */\n      swap2\n      swap1\n      pop\n      jump\t// out\n        /* \"#utility.yul\":3648:3828   */\n    tag_27:\n        /* \"#utility.yul\":3696:3773   */\n      0x4e487b7100000000000000000000000000000000000000000000000000000000\n        /* \"#utility.yul\":3693:3694   */\n      0x00\n        /* \"#utility.yul\":3686:3774   */\n      mstore\n        /* \"#utility.yul\":3793:3797   */\n      0x32\n        /* \"#utility.yul\":3790:3791   */\n      0x04\n        /* \"#utility.yul\":3783:3798   */\n      mstore\n        /* \"#utility.yul\":3817:3821   */\n      0x24\n        /* \"#utility.yul\":3814:3815   */\n      0x00\n        /* \"#utility.yul\":3807:3822   */\n      revert\n    stop\n\n    sub_0: assembly {\n            /* \"contracts/DAO.sol\":57:3442  contract DAO {... */\n          mstore(0x40, 0x80)\n            /* \"contracts/DAO.sol\":1247:1358  constructor (address _EOA) {... */\n          callvalue\n          dup1\n          iszero\n          tag_1\n          jumpi\n          revert(0x00, 0x00)\n        tag_1:\n          pop\n          mload(0x40)\n          sub(codesize, bytecodeSize)\n          dup1\n          bytecodeSize\n          dup4\n          codecopy\n          dup2\n          dup2\n          add\n          0x40\n          mstore\n          dup2\n          add\n          swap1\n          tag_2\n          swap2\n          swap1\n          tag_3\n          jump\t// in\n        tag_2:\n            /* \"contracts/DAO.sol\":1292:1296  _EOA */\n          dup1\n            /* \"contracts/DAO.sol\":1284:1289  owner */\n          0x00\n          0x00\n            /* \"contracts/DAO.sol\":1284:1296  owner = _EOA */\n          0x0100\n          exp\n          dup2\n          sload\n          dup2\n          0xffffffffffffffffffffffffffffffffffffffff\n          mul\n          not\n          and\n          swap1\n          dup4\n          0xffffffffffffffffffffffffffffffffffffffff\n          and\n          mul\n          or\n          swap1\n          sstore\n          pop\n            /* \"contracts/DAO.sol\":1322:1326  true */\n          0x01\n            /* \"contracts/DAO.sol\":1306:1313  members */\n          dup1\n            /* \"contracts/DAO.sol\":1306:1319  members[_EOA] */\n          0x00\n            /* \"contracts/DAO.sol\":1314:1318  _EOA */\n          dup4\n            /* \"contracts/DAO.sol\":1306:1319  members[_EOA] */\n          0xffffffffffffffffffffffffffffffffffffffff\n          and\n          0xffffffffffffffffffffffffffffffffffffffff\n          and\n          dup2\n          mstore\n          0x20\n          add\n          swap1\n          dup2\n          mstore\n          0x20\n          add\n          0x00\n          keccak256\n          0x00\n            /* \"contracts/DAO.sol\":1306:1326  members[_EOA] = true */\n          0x0100\n          exp\n          dup2\n          sload\n          dup2\n          0xff\n          mul\n          not\n          and\n          swap1\n          dup4\n          iszero\n          iszero\n          mul\n          or\n          swap1\n          sstore\n          pop\n            /* \"contracts/DAO.sol\":1350:1351  1 */\n          0x01\n            /* \"contracts/DAO.sol\":1336:1347  memberCount */\n          0x02\n          0x00\n            /* \"contracts/DAO.sol\":1336:1351  memberCount +=1 */\n          dup3\n          dup3\n          sload\n          tag_6\n          swap2\n          swap1\n          tag_7\n          jump\t// in\n        tag_6:\n          swap3\n          pop\n          pop\n          dup2\n          swap1\n          sstore\n          pop\n            /* \"contracts/DAO.sol\":1247:1358  constructor (address _EOA) {... */\n          pop\n            /* \"contracts/DAO.sol\":57:3442  contract DAO {... */\n          jump(tag_8)\n            /* \"#utility.yul\":88:205   */\n        tag_10:\n            /* \"#utility.yul\":197:198   */\n          0x00\n            /* \"#utility.yul\":194:195   */\n          0x00\n            /* \"#utility.yul\":187:199   */\n          revert\n            /* \"#utility.yul\":334:460   */\n        tag_12:\n            /* \"#utility.yul\":371:378   */\n          0x00\n            /* \"#utility.yul\":411:453   */\n          0xffffffffffffffffffffffffffffffffffffffff\n            /* \"#utility.yul\":404:409   */\n          dup3\n            /* \"#utility.yul\":400:454   */\n          and\n            /* \"#utility.yul\":389:454   */\n          swap1\n          pop\n            /* \"#utility.yul\":334:460   */\n          swap2\n          swap1\n          pop\n          jump\t// out\n            /* \"#utility.yul\":466:562   */\n        tag_13:\n            /* \"#utility.yul\":503:510   */\n          0x00\n            /* \"#utility.yul\":532:556   */\n          tag_24\n            /* \"#utility.yul\":550:555   */\n          dup3\n            /* \"#utility.yul\":532:556   */\n          tag_12\n          jump\t// in\n        tag_24:\n            /* \"#utility.yul\":521:556   */\n          swap1\n          pop\n            /* \"#utility.yul\":466:562   */\n          swap2\n          swap1\n          pop\n          jump\t// out\n            /* \"#utility.yul\":568:690   */\n        tag_14:\n            /* \"#utility.yul\":641:665   */\n          tag_26\n            /* \"#utility.yul\":659:664   */\n          dup2\n            /* \"#utility.yul\":641:665   */\n          tag_13\n          jump\t// in\n        tag_26:\n            /* \"#utility.yul\":634:639   */\n          dup2\n            /* \"#utility.yul\":631:666   */\n          eq\n            /* \"#utility.yul\":621:684   */\n          tag_27\n          jumpi\n            /* \"#utility.yul\":680:681   */\n          0x00\n            /* \"#utility.yul\":677:678   */\n          0x00\n            /* \"#utility.yul\":670:682   */\n          revert\n            /* \"#utility.yul\":621:684   */\n        tag_27:\n            /* \"#utility.yul\":568:690   */\n          pop\n          jump\t// out\n            /* \"#utility.yul\":696:839   */\n        tag_15:\n            /* \"#utility.yul\":753:758   */\n          0x00\n            /* \"#utility.yul\":784:790   */\n          dup2\n            /* \"#utility.yul\":778:791   */\n          mload\n            /* \"#utility.yul\":769:791   */\n          swap1\n          pop\n            /* \"#utility.yul\":800:833   */\n          tag_29\n            /* \"#utility.yul\":827:832   */\n          dup2\n            /* \"#utility.yul\":800:833   */\n          tag_14\n          jump\t// in\n        tag_29:\n            /* \"#utility.yul\":696:839   */\n          swap3\n          swap2\n          pop\n          pop\n          jump\t// out\n            /* \"#utility.yul\":845:1196   */\n        tag_3:\n            /* \"#utility.yul\":915:921   */\n          0x00\n            /* \"#utility.yul\":964:966   */\n          0x20\n            /* \"#utility.yul\":952:961   */\n          dup3\n            /* \"#utility.yul\":943:950   */\n          dup5\n            /* \"#utility.yul\":939:962   */\n          sub\n            /* \"#utility.yul\":935:967   */\n          slt\n            /* \"#utility.yul\":932:1051   */\n          iszero\n          tag_31\n          jumpi\n            /* \"#utility.yul\":970:1049   */\n          tag_32\n          tag_10\n          jump\t// in\n        tag_32:\n            /* \"#utility.yul\":932:1051   */\n        tag_31:\n            /* \"#utility.yul\":1090:1091   */\n          0x00\n            /* \"#utility.yul\":1115:1179   */\n          tag_33\n            /* \"#utility.yul\":1171:1178   */\n          dup5\n            /* \"#utility.yul\":1162:1168   */\n          dup3\n            /* \"#utility.yul\":1151:1160   */\n          dup6\n            /* \"#utility.yul\":1147:1169   */\n          add\n            /* \"#utility.yul\":1115:1179   */\n          tag_15\n          jump\t// in\n        tag_33:\n            /* \"#utility.yul\":1105:1179   */\n          swap2\n          pop\n            /* \"#utility.yul\":1061:1189   */\n          pop\n            /* \"#utility.yul\":845:1196   */\n          swap3\n          swap2\n          pop\n          pop\n          jump\t// out\n            /* \"#utility.yul\":1202:1279   */\n        tag_16:\n            /* \"#utility.yul\":1239:1246   */\n          0x00\n            /* \"#utility.yul\":1268:1273   */\n          dup2\n            /* \"#utility.yul\":1257:1273   */\n          swap1\n          pop\n            /* \"#utility.yul\":1202:1279   */\n          swap2\n          swap1\n          pop\n          jump\t// out\n            /* \"#utility.yul\":1285:1465   */\n        tag_17:\n            /* \"#utility.yul\":1333:1410   */\n          0x4e487b7100000000000000000000000000000000000000000000000000000000\n            /* \"#utility.yul\":1330:1331   */\n          0x00\n            /* \"#utility.yul\":1323:1411   */\n          mstore\n            /* \"#utility.yul\":1430:1434   */\n          0x11\n            /* \"#utility.yul\":1427:1428   */\n          0x04\n            /* \"#utility.yul\":1420:1435   */\n          mstore\n            /* \"#utility.yul\":1454:1458   */\n          0x24\n            /* \"#utility.yul\":1451:1452   */\n          0x00\n            /* \"#utility.yul\":1444:1459   */\n          revert\n            /* \"#utility.yul\":1471:1662   */\n        tag_7:\n            /* \"#utility.yul\":1511:1514   */\n          0x00\n            /* \"#utility.yul\":1530:1550   */\n          tag_37\n            /* \"#utility.yul\":1548:1549   */\n          dup3\n            /* \"#utility.yul\":1530:1550   */\n          tag_16\n          jump\t// in\n        tag_37:\n            /* \"#utility.yul\":1525:1550   */\n          swap2\n          pop\n            /* \"#utility.yul\":1564:1584   */\n          tag_38\n            /* \"#utility.yul\":1582:1583   */\n          dup4\n            /* \"#utility.yul\":1564:1584   */\n          tag_16\n          jump\t// in\n        tag_38:\n            /* \"#utility.yul\":1559:1584   */\n          swap3\n          pop\n            /* \"#utility.yul\":1607:1608   */\n          dup3\n            /* \"#utility.yul\":1604:1605   */\n          dup3\n            /* \"#utility.yul\":1600:1609   */\n          add\n            /* \"#utility.yul\":1593:1609   */\n          swap1\n          pop\n            /* \"#utility.yul\":1628:1631   */\n          dup1\n            /* \"#utility.yul\":1625:1626   */\n          dup3\n            /* \"#utility.yul\":1622:1632   */\n          gt\n            /* \"#utility.yul\":1619:1655   */\n          iszero\n          tag_39\n          jumpi\n            /* \"#utility.yul\":1635:1653   */\n          tag_40\n          tag_17\n          jump\t// in\n        tag_40:\n            /* \"#utility.yul\":1619:1655   */\n        tag_39:\n            /* \"#utility.yul\":1471:1662   */\n          swap3\n          swap2\n          pop\n          pop\n          jump\t// out\n            /* \"contracts/DAO.sol\":57:3442  contract DAO {... */\n        tag_8:\n          dataSize(sub_0)\n          dup1\n          dataOffset(sub_0)\n          0x00\n          codecopy\n          0x00\n          return\n        stop\n\n        sub_0: assembly {\n                /* \"contracts/DAO.sol\":57:3442  contract DAO {... */\n              mstore(0x40, 0x80)\n              callvalue\n              dup1\n              iszero\n              tag_1\n              jumpi\n              revert(0x00, 0x00)\n            tag_1:\n              pop\n              jumpi(tag_2, lt(calldatasize, 0x04))\n              shr(0xe0, calldataload(0x00))\n              dup1\n              0x0121b93f\n              eq\n              tag_3\n              jumpi\n              dup1\n              0x3f220524\n              eq\n              tag_4\n              jumpi\n              dup1\n              0x65e481e2\n              eq\n              tag_5\n              jumpi\n              dup1\n              0x865df0ad\n              eq\n              tag_6\n              jumpi\n              dup1\n              0xf3796bdc\n              eq\n              tag_7\n              jumpi\n            tag_2:\n              revert(0x00, 0x00)\n                /* \"contracts/DAO.sol\":2396:2820  function vote(uint index) external onlyMember alreadyVote(index) {... */\n            tag_3:\n              tag_8\n              0x04\n              dup1\n              calldatasize\n              sub\n              dup2\n              add\n              swap1\n              tag_9\n              swap2\n              swap1\n              tag_10\n              jump\t// in\n            tag_9:\n              tag_11\n              jump\t// in\n            tag_8:\n              stop\n                /* \"contracts/DAO.sol\":2868:3066  function startVote(uint index) external onlyOwner {... */\n            tag_4:\n              tag_12\n              0x04\n              dup1\n              calldatasize\n              sub\n              dup2\n              add\n              swap1\n              tag_13\n              swap2\n              swap1\n              tag_10\n              jump\t// in\n            tag_13:\n              tag_14\n              jump\t// in\n            tag_12:\n              stop\n                /* \"contracts/DAO.sol\":2082:2363  function createProposal(string memory _title, string memory _text) external onlyMember {... */\n            tag_5:\n              tag_15\n              0x04\n              dup1\n              calldatasize\n              sub\n              dup2\n              add\n              swap1\n              tag_16\n              swap2\n              swap1\n              tag_17\n              jump\t// in\n            tag_16:\n              tag_18\n              jump\t// in\n            tag_15:\n              stop\n                /* \"contracts/DAO.sol\":3100:3440  function endVote(uint index) external onlyOwner {... */\n            tag_6:\n              tag_19\n              0x04\n              dup1\n              calldatasize\n              sub\n              dup2\n              add\n              swap1\n              tag_20\n              swap2\n              swap1\n              tag_10\n              jump\t// in\n            tag_20:\n              tag_21\n              jump\t// in\n            tag_19:\n              stop\n                /* \"contracts/DAO.sol\":1870:2012  function setMembers (address _address) external onlyOwner {... */\n            tag_7:\n              tag_22\n              0x04\n              dup1\n              calldatasize\n              sub\n              dup2\n              add\n              swap1\n              tag_23\n              swap2\n              swap1\n              tag_24\n              jump\t// in\n            tag_23:\n              tag_25\n              jump\t// in\n            tag_22:\n              stop\n                /* \"contracts/DAO.sol\":2396:2820  function vote(uint index) external onlyMember alreadyVote(index) {... */\n            tag_11:\n                /* \"contracts/DAO.sol\":1546:1553  members */\n              0x01\n                /* \"contracts/DAO.sol\":1546:1565  members[msg.sender] */\n              0x00\n                /* \"contracts/DAO.sol\":1554:1564  msg.sender */\n              caller\n                /* \"contracts/DAO.sol\":1546:1565  members[msg.sender] */\n              0xffffffffffffffffffffffffffffffffffffffff\n              and\n              0xffffffffffffffffffffffffffffffffffffffff\n              and\n              dup2\n              mstore\n              0x20\n              add\n              swap1\n              dup2\n              mstore\n              0x20\n              add\n              0x00\n              keccak256\n              0x00\n              swap1\n              sload\n              swap1\n              0x0100\n              exp\n              swap1\n              div\n              0xff\n              and\n                /* \"contracts/DAO.sol\":1538:1582  require(members[msg.sender], \"error member\") */\n              tag_27\n              jumpi\n              mload(0x40)\n              0x08c379a000000000000000000000000000000000000000000000000000000000\n              dup2\n              mstore\n              0x04\n              add\n              tag_28\n              swap1\n              tag_29\n              jump\t// in\n            tag_28:\n              mload(0x40)\n              dup1\n              swap2\n              sub\n              swap1\n              revert\n            tag_27:\n                /* \"contracts/DAO.sol\":2454:2459  index */\n              dup1\n                /* \"contracts/DAO.sol\":1747:1752  voted */\n              0x04\n                /* \"contracts/DAO.sol\":1747:1764  voted[msg.sender] */\n              0x00\n                /* \"contracts/DAO.sol\":1753:1763  msg.sender */\n              caller\n                /* \"contracts/DAO.sol\":1747:1764  voted[msg.sender] */\n              0xffffffffffffffffffffffffffffffffffffffff\n              and\n              0xffffffffffffffffffffffffffffffffffffffff\n              and\n              dup2\n              mstore\n              0x20\n              add\n              swap1\n              dup2\n              mstore\n              0x20\n              add\n              0x00\n              keccak256\n                /* \"contracts/DAO.sol\":1747:1771  voted[msg.sender][index] */\n              0x00\n                /* \"contracts/DAO.sol\":1765:1770  index */\n              dup3\n                /* \"contracts/DAO.sol\":1747:1771  voted[msg.sender][index] */\n              dup2\n              mstore\n              0x20\n              add\n              swap1\n              dup2\n              mstore\n              0x20\n              add\n              0x00\n              keccak256\n              0x00\n              swap1\n              sload\n              swap1\n              0x0100\n              exp\n              swap1\n              div\n              0xff\n              and\n                /* \"contracts/DAO.sol\":1746:1771  !voted[msg.sender][index] */\n              iszero\n                /* \"contracts/DAO.sol\":1738:1772  require(!voted[msg.sender][index]) */\n              tag_31\n              jumpi\n              revert(0x00, 0x00)\n            tag_31:\n                /* \"contracts/DAO.sol\":2528:2553  Proposal storage proposal */\n              0x00\n                /* \"contracts/DAO.sol\":2556:2565  proposals */\n              0x03\n                /* \"contracts/DAO.sol\":2566:2571  index */\n              dup4\n                /* \"contracts/DAO.sol\":2556:2572  proposals[index] */\n              dup2\n              sload\n              dup2\n              lt\n              tag_33\n              jumpi\n              tag_34\n              tag_35\n              jump\t// in\n            tag_34:\n            tag_33:\n              swap1\n              0x00\n              mstore\n              keccak256(0x00, 0x20)\n              swap1\n              0x04\n              mul\n              add\n                /* \"contracts/DAO.sol\":2528:2572  Proposal storage proposal = proposals[index] */\n              swap1\n              pop\n                /* \"contracts/DAO.sol\":2732:2742  Play.start */\n              0x01\n                /* \"contracts/DAO.sol\":2714:2742  proposal._play == Play.start */\n              0x02\n              dup2\n              gt\n              iszero\n              tag_37\n              jumpi\n              tag_38\n              tag_39\n              jump\t// in\n            tag_38:\n            tag_37:\n                /* \"contracts/DAO.sol\":2714:2722  proposal */\n              dup2\n                /* \"contracts/DAO.sol\":2714:2728  proposal._play */\n              0x03\n              add\n              0x00\n              swap1\n              sload\n              swap1\n              0x0100\n              exp\n              swap1\n              div\n              0xff\n              and\n                /* \"contracts/DAO.sol\":2714:2742  proposal._play == Play.start */\n              0x02\n              dup2\n              gt\n              iszero\n              tag_40\n              jumpi\n              tag_41\n              tag_39\n              jump\t// in\n            tag_41:\n            tag_40:\n              eq\n                /* \"contracts/DAO.sol\":2706:2743  require(proposal._play == Play.start) */\n              tag_42\n              jumpi\n              revert(0x00, 0x00)\n            tag_42:\n                /* \"contracts/DAO.sol\":2771:2772  1 */\n              0x01\n                /* \"contracts/DAO.sol\":2753:2761  proposal */\n              dup2\n                /* \"contracts/DAO.sol\":2753:2767  proposal.votes */\n              0x02\n              add\n              0x00\n                /* \"contracts/DAO.sol\":2753:2772  proposal.votes += 1 */\n              dup3\n              dup3\n              sload\n              tag_43\n              swap2\n              swap1\n              tag_44\n              jump\t// in\n            tag_43:\n              swap3\n              pop\n              pop\n              dup2\n              swap1\n              sstore\n              pop\n                /* \"contracts/DAO.sol\":2809:2813  true */\n              0x01\n                /* \"contracts/DAO.sol\":2782:2787  voted */\n              0x04\n                /* \"contracts/DAO.sol\":2782:2799  voted[msg.sender] */\n              0x00\n                /* \"contracts/DAO.sol\":2788:2798  msg.sender */\n              caller\n                /* \"contracts/DAO.sol\":2782:2799  voted[msg.sender] */\n              0xffffffffffffffffffffffffffffffffffffffff\n              and\n              0xffffffffffffffffffffffffffffffffffffffff\n              and\n              dup2\n              mstore\n              0x20\n              add\n              swap1\n              dup2\n              mstore\n              0x20\n              add\n              0x00\n              keccak256\n                /* \"contracts/DAO.sol\":2782:2806  voted[msg.sender][index] */\n              0x00\n                /* \"contracts/DAO.sol\":2800:2805  index */\n              dup6\n                /* \"contracts/DAO.sol\":2782:2806  voted[msg.sender][index] */\n              dup2\n              mstore\n              0x20\n              add\n              swap1\n              dup2\n              mstore\n              0x20\n              add\n              0x00\n              keccak256\n              0x00\n                /* \"contracts/DAO.sol\":2782:2813  voted[msg.sender][index] = true */\n              0x0100\n              exp\n              dup2\n              sload\n              dup2\n              0xff\n              mul\n              not\n              and\n              swap1\n              dup4\n              iszero\n              iszero\n              mul\n              or\n              swap1\n              sstore\n              pop\n                /* \"contracts/DAO.sol\":2461:2820  {... */\n              pop\n                /* \"contracts/DAO.sol\":1592:1593  _ */\n              pop\n                /* \"contracts/DAO.sol\":2396:2820  function vote(uint index) external onlyMember alreadyVote(index) {... */\n              pop\n              jump\t// out\n                /* \"contracts/DAO.sol\":2868:3066  function startVote(uint index) external onlyOwner {... */\n            tag_14:\n                /* \"contracts/DAO.sol\":1448:1453  owner */\n              0x00\n              0x00\n              swap1\n              sload\n              swap1\n              0x0100\n              exp\n              swap1\n              div\n              0xffffffffffffffffffffffffffffffffffffffff\n              and\n                /* \"contracts/DAO.sol\":1434:1453  msg.sender == owner */\n              0xffffffffffffffffffffffffffffffffffffffff\n              and\n                /* \"contracts/DAO.sol\":1434:1444  msg.sender */\n              caller\n                /* \"contracts/DAO.sol\":1434:1453  msg.sender == owner */\n              0xffffffffffffffffffffffffffffffffffffffff\n              and\n              eq\n                /* \"contracts/DAO.sol\":1426:1454  require(msg.sender == owner) */\n              tag_46\n              jumpi\n              revert(0x00, 0x00)\n            tag_46:\n                /* \"contracts/DAO.sol\":2928:2953  Proposal storage proposal */\n              0x00\n                /* \"contracts/DAO.sol\":2956:2965  proposals */\n              0x03\n                /* \"contracts/DAO.sol\":2966:2971  index */\n              dup3\n                /* \"contracts/DAO.sol\":2956:2972  proposals[index] */\n              dup2\n              sload\n              dup2\n              lt\n              tag_48\n              jumpi\n              tag_49\n              tag_35\n              jump\t// in\n            tag_49:\n            tag_48:\n              swap1\n              0x00\n              mstore\n              keccak256(0x00, 0x20)\n              swap1\n              0x04\n              mul\n              add\n                /* \"contracts/DAO.sol\":2928:2972  Proposal storage proposal = proposals[index] */\n              swap1\n              pop\n                /* \"contracts/DAO.sol\":3009:3021  Play.loading */\n              0x00\n                /* \"contracts/DAO.sol\":2991:3021  proposal._play == Play.loading */\n              0x02\n              dup2\n              gt\n              iszero\n              tag_51\n              jumpi\n              tag_52\n              tag_39\n              jump\t// in\n            tag_52:\n            tag_51:\n                /* \"contracts/DAO.sol\":2991:2999  proposal */\n              dup2\n                /* \"contracts/DAO.sol\":2991:3005  proposal._play */\n              0x03\n              add\n              0x00\n              swap1\n              sload\n              swap1\n              0x0100\n              exp\n              swap1\n              div\n              0xff\n              and\n                /* \"contracts/DAO.sol\":2991:3021  proposal._play == Play.loading */\n              0x02\n              dup2\n              gt\n              iszero\n              tag_53\n              jumpi\n              tag_54\n              tag_39\n              jump\t// in\n            tag_54:\n            tag_53:\n              eq\n                /* \"contracts/DAO.sol\":2983:3022  require(proposal._play == Play.loading) */\n              tag_55\n              jumpi\n              revert(0x00, 0x00)\n            tag_55:\n                /* \"contracts/DAO.sol\":3049:3059  Play.start */\n              0x01\n                /* \"contracts/DAO.sol\":3032:3040  proposal */\n              dup2\n                /* \"contracts/DAO.sol\":3032:3046  proposal._play */\n              0x03\n              add\n              0x00\n                /* \"contracts/DAO.sol\":3032:3059  proposal._play = Play.start */\n              0x0100\n              exp\n              dup2\n              sload\n              dup2\n              0xff\n              mul\n              not\n              and\n              swap1\n              dup4\n              0x02\n              dup2\n              gt\n              iszero\n              tag_56\n              jumpi\n              tag_57\n              tag_39\n              jump\t// in\n            tag_57:\n            tag_56:\n              mul\n              or\n              swap1\n              sstore\n              pop\n                /* \"contracts/DAO.sol\":2918:3066  {... */\n              pop\n                /* \"contracts/DAO.sol\":2868:3066  function startVote(uint index) external onlyOwner {... */\n              pop\n              jump\t// out\n                /* \"contracts/DAO.sol\":2082:2363  function createProposal(string memory _title, string memory _text) external onlyMember {... */\n            tag_18:\n                /* \"contracts/DAO.sol\":1546:1553  members */\n              0x01\n                /* \"contracts/DAO.sol\":1546:1565  members[msg.sender] */\n              0x00\n                /* \"contracts/DAO.sol\":1554:1564  msg.sender */\n              caller\n                /* \"contracts/DAO.sol\":1546:1565  members[msg.sender] */\n              0xffffffffffffffffffffffffffffffffffffffff\n              and\n              0xffffffffffffffffffffffffffffffffffffffff\n              and\n              dup2\n              mstore\n              0x20\n              add\n              swap1\n              dup2\n              mstore\n              0x20\n              add\n              0x00\n              keccak256\n              0x00\n              swap1\n              sload\n              swap1\n              0x0100\n              exp\n              swap1\n              div\n              0xff\n              and\n                /* \"contracts/DAO.sol\":1538:1582  require(members[msg.sender], \"error member\") */\n              tag_59\n              jumpi\n              mload(0x40)\n              0x08c379a000000000000000000000000000000000000000000000000000000000\n              dup2\n              mstore\n              0x04\n              add\n              tag_60\n              swap1\n              tag_29\n              jump\t// in\n            tag_60:\n              mload(0x40)\n              dup1\n              swap2\n              sub\n              swap1\n              revert\n            tag_59:\n                /* \"contracts/DAO.sol\":2179:2188  proposals */\n              0x03\n                /* \"contracts/DAO.sol\":2194:2354  Proposal({... */\n              mload(0x40)\n              dup1\n              0xa0\n              add\n              0x40\n              mstore\n              dup1\n                /* \"contracts/DAO.sol\":2225:2231  _title */\n              dup5\n                /* \"contracts/DAO.sol\":2194:2354  Proposal({... */\n              dup2\n              mstore\n              0x20\n              add\n                /* \"contracts/DAO.sol\":2252:2257  _text */\n              dup4\n                /* \"contracts/DAO.sol\":2194:2354  Proposal({... */\n              dup2\n              mstore\n              0x20\n              add\n                /* \"contracts/DAO.sol\":2279:2280  0 */\n              0x00\n                /* \"contracts/DAO.sol\":2194:2354  Proposal({... */\n              dup2\n              mstore\n              0x20\n              add\n                /* \"contracts/DAO.sol\":2302:2314  Play.loading */\n              0x00\n                /* \"contracts/DAO.sol\":2194:2354  Proposal({... */\n              0x02\n              dup2\n              gt\n              iszero\n              tag_62\n              jumpi\n              tag_63\n              tag_39\n              jump\t// in\n            tag_63:\n            tag_62:\n              dup2\n              mstore\n              0x20\n              add\n                /* \"contracts/DAO.sol\":2338:2343  false */\n              0x00\n                /* \"contracts/DAO.sol\":2194:2354  Proposal({... */\n              iszero\n              iszero\n              dup2\n              mstore\n              pop\n                /* \"contracts/DAO.sol\":2179:2355  proposals.push(Proposal({... */\n              swap1\n              dup1\n              0x01\n              dup2\n              sload\n              add\n              dup1\n              dup3\n              sstore\n              dup1\n              swap2\n              pop\n              pop\n              0x01\n              swap1\n              sub\n              swap1\n              0x00\n              mstore\n              keccak256(0x00, 0x20)\n              swap1\n              0x04\n              mul\n              add\n              0x00\n              swap1\n              swap2\n              swap1\n              swap2\n              swap1\n              swap2\n              pop\n              0x00\n              dup3\n              add\n              mload\n              dup2\n              0x00\n              add\n              swap1\n              dup2\n              tag_65\n              swap2\n              swap1\n              tag_66\n              jump\t// in\n            tag_65:\n              pop\n              0x20\n              dup3\n              add\n              mload\n              dup2\n              0x01\n              add\n              swap1\n              dup2\n              tag_67\n              swap2\n              swap1\n              tag_66\n              jump\t// in\n            tag_67:\n              pop\n              0x40\n              dup3\n              add\n              mload\n              dup2\n              0x02\n              add\n              sstore\n              0x60\n              dup3\n              add\n              mload\n              dup2\n              0x03\n              add\n              exp(0x0100, 0x00)\n              dup2\n              sload\n              dup2\n              0xff\n              mul\n              not\n              and\n              swap1\n              dup4\n              0x02\n              dup2\n              gt\n              iszero\n              tag_68\n              jumpi\n              tag_69\n              tag_39\n              jump\t// in\n            tag_69:\n            tag_68:\n              mul\n              or\n              swap1\n              sstore\n              pop\n              0x80\n              dup3\n              add\n              mload\n              dup2\n              0x03\n              add\n              exp(0x0100, 0x01)\n              dup2\n              sload\n              dup2\n              0xff\n              mul\n              not\n              and\n              swap1\n              dup4\n              iszero\n              iszero\n              mul\n              or\n              swap1\n              sstore\n              pop\n              pop\n              pop\n                /* \"contracts/DAO.sol\":2082:2363  function createProposal(string memory _title, string memory _text) external onlyMember {... */\n              pop\n              pop\n              jump\t// out\n                /* \"contracts/DAO.sol\":3100:3440  function endVote(uint index) external onlyOwner {... */\n            tag_21:\n                /* \"contracts/DAO.sol\":1448:1453  owner */\n              0x00\n              0x00\n              swap1\n              sload\n              swap1\n              0x0100\n              exp\n              swap1\n              div\n              0xffffffffffffffffffffffffffffffffffffffff\n              and\n                /* \"contracts/DAO.sol\":1434:1453  msg.sender == owner */\n              0xffffffffffffffffffffffffffffffffffffffff\n              and\n                /* \"contracts/DAO.sol\":1434:1444  msg.sender */\n              caller\n                /* \"contracts/DAO.sol\":1434:1453  msg.sender == owner */\n              0xffffffffffffffffffffffffffffffffffffffff\n              and\n              eq\n                /* \"contracts/DAO.sol\":1426:1454  require(msg.sender == owner) */\n              tag_71\n              jumpi\n              revert(0x00, 0x00)\n            tag_71:\n                /* \"contracts/DAO.sol\":3158:3183  Proposal storage proposal */\n              0x00\n                /* \"contracts/DAO.sol\":3186:3195  proposals */\n              0x03\n                /* \"contracts/DAO.sol\":3196:3201  index */\n              dup3\n                /* \"contracts/DAO.sol\":3186:3202  proposals[index] */\n              dup2\n              sload\n              dup2\n              lt\n              tag_73\n              jumpi\n              tag_74\n              tag_35\n              jump\t// in\n            tag_74:\n            tag_73:\n              swap1\n              0x00\n              mstore\n              keccak256(0x00, 0x20)\n              swap1\n              0x04\n              mul\n              add\n                /* \"contracts/DAO.sol\":3158:3202  Proposal storage proposal = proposals[index] */\n              swap1\n              pop\n                /* \"contracts/DAO.sol\":3238:3248  Play.start */\n              0x01\n                /* \"contracts/DAO.sol\":3220:3248  proposal._play == Play.start */\n              0x02\n              dup2\n              gt\n              iszero\n              tag_76\n              jumpi\n              tag_77\n              tag_39\n              jump\t// in\n            tag_77:\n            tag_76:\n                /* \"contracts/DAO.sol\":3220:3228  proposal */\n              dup2\n                /* \"contracts/DAO.sol\":3220:3234  proposal._play */\n              0x03\n              add\n              0x00\n              swap1\n              sload\n              swap1\n              0x0100\n              exp\n              swap1\n              div\n              0xff\n              and\n                /* \"contracts/DAO.sol\":3220:3248  proposal._play == Play.start */\n              0x02\n              dup2\n              gt\n              iszero\n              tag_78\n              jumpi\n              tag_79\n              tag_39\n              jump\t// in\n            tag_79:\n            tag_78:\n              eq\n                /* \"contracts/DAO.sol\":3212:3249  require(proposal._play == Play.start) */\n              tag_80\n              jumpi\n              revert(0x00, 0x00)\n            tag_80:\n                /* \"contracts/DAO.sol\":3277:3285  Play.end */\n              0x02\n                /* \"contracts/DAO.sol\":3260:3268  proposal */\n              dup2\n                /* \"contracts/DAO.sol\":3260:3274  proposal._play */\n              0x03\n              add\n              0x00\n                /* \"contracts/DAO.sol\":3260:3285  proposal._play = Play.end */\n              0x0100\n              exp\n              dup2\n              sload\n              dup2\n              0xff\n              mul\n              not\n              and\n              swap1\n              dup4\n              0x02\n              dup2\n              gt\n              iszero\n              tag_81\n              jumpi\n              tag_82\n              tag_39\n              jump\t// in\n            tag_82:\n            tag_81:\n              mul\n              or\n              swap1\n              sstore\n              pop\n                /* \"contracts/DAO.sol\":3369:3370  2 */\n              0x02\n                /* \"contracts/DAO.sol\":3355:3366  memberCount */\n              dup1\n              sload\n                /* \"contracts/DAO.sol\":3355:3370  memberCount / 2 */\n              tag_83\n              swap2\n              swap1\n              tag_84\n              jump\t// in\n            tag_83:\n                /* \"contracts/DAO.sol\":3338:3346  proposal */\n              dup2\n                /* \"contracts/DAO.sol\":3338:3352  proposal.votes */\n              0x02\n              add\n              sload\n                /* \"contracts/DAO.sol\":3338:3370  proposal.votes > memberCount / 2 */\n              gt\n                /* \"contracts/DAO.sol\":3330:3371  require(proposal.votes > memberCount / 2) */\n              tag_85\n              jumpi\n              revert(0x00, 0x00)\n            tag_85:\n                /* \"contracts/DAO.sol\":3400:3404  true */\n              0x01\n                /* \"contracts/DAO.sol\":3381:3389  proposal */\n              dup2\n                /* \"contracts/DAO.sol\":3381:3397  proposal.execute */\n              0x03\n              add\n              0x01\n                /* \"contracts/DAO.sol\":3381:3404  proposal.execute = true */\n              0x0100\n              exp\n              dup2\n              sload\n              dup2\n              0xff\n              mul\n              not\n              and\n              swap1\n              dup4\n              iszero\n              iszero\n              mul\n              or\n              swap1\n              sstore\n              pop\n                /* \"contracts/DAO.sol\":3148:3440  {... */\n              pop\n                /* \"contracts/DAO.sol\":3100:3440  function endVote(uint index) external onlyOwner {... */\n              pop\n              jump\t// out\n                /* \"contracts/DAO.sol\":1870:2012  function setMembers (address _address) external onlyOwner {... */\n            tag_25:\n                /* \"contracts/DAO.sol\":1448:1453  owner */\n              0x00\n              0x00\n              swap1\n              sload\n              swap1\n              0x0100\n              exp\n              swap1\n              div\n              0xffffffffffffffffffffffffffffffffffffffff\n              and\n                /* \"contracts/DAO.sol\":1434:1453  msg.sender == owner */\n              0xffffffffffffffffffffffffffffffffffffffff\n              and\n                /* \"contracts/DAO.sol\":1434:1444  msg.sender */\n              caller\n                /* \"contracts/DAO.sol\":1434:1453  msg.sender == owner */\n              0xffffffffffffffffffffffffffffffffffffffff\n              and\n              eq\n                /* \"contracts/DAO.sol\":1426:1454  require(msg.sender == owner) */\n              tag_87\n              jumpi\n              revert(0x00, 0x00)\n            tag_87:\n                /* \"contracts/DAO.sol\":1958:1962  true */\n              0x01\n                /* \"contracts/DAO.sol\":1938:1945  members */\n              dup1\n                /* \"contracts/DAO.sol\":1938:1955  members[_address] */\n              0x00\n                /* \"contracts/DAO.sol\":1946:1954  _address */\n              dup4\n                /* \"contracts/DAO.sol\":1938:1955  members[_address] */\n              0xffffffffffffffffffffffffffffffffffffffff\n              and\n              0xffffffffffffffffffffffffffffffffffffffff\n              and\n              dup2\n              mstore\n              0x20\n              add\n              swap1\n              dup2\n              mstore\n              0x20\n              add\n              0x00\n              keccak256\n              0x00\n                /* \"contracts/DAO.sol\":1938:1962  members[_address] = true */\n              0x0100\n              exp\n              dup2\n              sload\n              dup2\n              0xff\n              mul\n              not\n              and\n              swap1\n              dup4\n              iszero\n              iszero\n              mul\n              or\n              swap1\n              sstore\n              pop\n                /* \"contracts/DAO.sol\":2004:2005  1 */\n              0x01\n                /* \"contracts/DAO.sol\":1989:2000  memberCount */\n              0x02\n              0x00\n                /* \"contracts/DAO.sol\":1989:2005  memberCount += 1 */\n              dup3\n              dup3\n              sload\n              tag_89\n              swap2\n              swap1\n              tag_44\n              jump\t// in\n            tag_89:\n              swap3\n              pop\n              pop\n              dup2\n              swap1\n              sstore\n              pop\n                /* \"contracts/DAO.sol\":1870:2012  function setMembers (address _address) external onlyOwner {... */\n              pop\n              jump\t// out\n                /* \"#utility.yul\":7:82   */\n            tag_90:\n                /* \"#utility.yul\":40:46   */\n              0x00\n                /* \"#utility.yul\":73:75   */\n              0x40\n                /* \"#utility.yul\":67:76   */\n              mload\n                /* \"#utility.yul\":57:76   */\n              swap1\n              pop\n                /* \"#utility.yul\":7:82   */\n              swap1\n              jump\t// out\n                /* \"#utility.yul\":88:205   */\n            tag_91:\n                /* \"#utility.yul\":197:198   */\n              0x00\n                /* \"#utility.yul\":194:195   */\n              0x00\n                /* \"#utility.yul\":187:199   */\n              revert\n                /* \"#utility.yul\":211:328   */\n            tag_92:\n                /* \"#utility.yul\":320:321   */\n              0x00\n                /* \"#utility.yul\":317:318   */\n              0x00\n                /* \"#utility.yul\":310:322   */\n              revert\n                /* \"#utility.yul\":334:411   */\n            tag_93:\n                /* \"#utility.yul\":371:378   */\n              0x00\n                /* \"#utility.yul\":400:405   */\n              dup2\n                /* \"#utility.yul\":389:405   */\n              swap1\n              pop\n                /* \"#utility.yul\":334:411   */\n              swap2\n              swap1\n              pop\n              jump\t// out\n                /* \"#utility.yul\":417:539   */\n            tag_94:\n                /* \"#utility.yul\":490:514   */\n              tag_139\n                /* \"#utility.yul\":508:513   */\n              dup2\n                /* \"#utility.yul\":490:514   */\n              tag_93\n              jump\t// in\n            tag_139:\n                /* \"#utility.yul\":483:488   */\n              dup2\n                /* \"#utility.yul\":480:515   */\n              eq\n                /* \"#utility.yul\":470:533   */\n              tag_140\n              jumpi\n                /* \"#utility.yul\":529:530   */\n              0x00\n                /* \"#utility.yul\":526:527   */\n              0x00\n                /* \"#utility.yul\":519:531   */\n              revert\n                /* \"#utility.yul\":470:533   */\n            tag_140:\n                /* \"#utility.yul\":417:539   */\n              pop\n              jump\t// out\n                /* \"#utility.yul\":545:684   */\n            tag_95:\n                /* \"#utility.yul\":591:596   */\n              0x00\n                /* \"#utility.yul\":629:635   */\n              dup2\n                /* \"#utility.yul\":616:636   */\n              calldataload\n                /* \"#utility.yul\":607:636   */\n              swap1\n              pop\n                /* \"#utility.yul\":645:678   */\n              tag_142\n                /* \"#utility.yul\":672:677   */\n              dup2\n                /* \"#utility.yul\":645:678   */\n              tag_94\n              jump\t// in\n            tag_142:\n                /* \"#utility.yul\":545:684   */\n              swap3\n              swap2\n              pop\n              pop\n              jump\t// out\n                /* \"#utility.yul\":690:1019   */\n            tag_10:\n                /* \"#utility.yul\":749:755   */\n              0x00\n                /* \"#utility.yul\":798:800   */\n              0x20\n                /* \"#utility.yul\":786:795   */\n              dup3\n                /* \"#utility.yul\":777:784   */\n              dup5\n                /* \"#utility.yul\":773:796   */\n              sub\n                /* \"#utility.yul\":769:801   */\n              slt\n                /* \"#utility.yul\":766:885   */\n              iszero\n              tag_144\n              jumpi\n                /* \"#utility.yul\":804:883   */\n              tag_145\n              tag_91\n              jump\t// in\n            tag_145:\n                /* \"#utility.yul\":766:885   */\n            tag_144:\n                /* \"#utility.yul\":924:925   */\n              0x00\n                /* \"#utility.yul\":949:1002   */\n              tag_146\n                /* \"#utility.yul\":994:1001   */\n              dup5\n                /* \"#utility.yul\":985:991   */\n              dup3\n                /* \"#utility.yul\":974:983   */\n              dup6\n                /* \"#utility.yul\":970:992   */\n              add\n                /* \"#utility.yul\":949:1002   */\n              tag_95\n              jump\t// in\n            tag_146:\n                /* \"#utility.yul\":939:1002   */\n              swap2\n              pop\n                /* \"#utility.yul\":895:1012   */\n              pop\n                /* \"#utility.yul\":690:1019   */\n              swap3\n              swap2\n              pop\n              pop\n              jump\t// out\n                /* \"#utility.yul\":1025:1142   */\n            tag_96:\n                /* \"#utility.yul\":1134:1135   */\n              0x00\n                /* \"#utility.yul\":1131:1132   */\n              0x00\n                /* \"#utility.yul\":1124:1136   */\n              revert\n                /* \"#utility.yul\":1148:1265   */\n            tag_97:\n                /* \"#utility.yul\":1257:1258   */\n              0x00\n                /* \"#utility.yul\":1254:1255   */\n              0x00\n                /* \"#utility.yul\":1247:1259   */\n              revert\n                /* \"#utility.yul\":1271:1373   */\n            tag_98:\n                /* \"#utility.yul\":1312:1318   */\n              0x00\n                /* \"#utility.yul\":1363:1365   */\n              0x1f\n                /* \"#utility.yul\":1359:1366   */\n              not\n                /* \"#utility.yul\":1354:1356   */\n              0x1f\n                /* \"#utility.yul\":1347:1352   */\n              dup4\n                /* \"#utility.yul\":1343:1357   */\n              add\n                /* \"#utility.yul\":1339:1367   */\n              and\n                /* \"#utility.yul\":1329:1367   */\n              swap1\n              pop\n                /* \"#utility.yul\":1271:1373   */\n              swap2\n              swap1\n              pop\n              jump\t// out\n                /* \"#utility.yul\":1379:1559   */\n            tag_99:\n                /* \"#utility.yul\":1427:1504   */\n              0x4e487b7100000000000000000000000000000000000000000000000000000000\n                /* \"#utility.yul\":1424:1425   */\n              0x00\n                /* \"#utility.yul\":1417:1505   */\n              mstore\n                /* \"#utility.yul\":1524:1528   */\n              0x41\n                /* \"#utility.yul\":1521:1522   */\n              0x04\n                /* \"#utility.yul\":1514:1529   */\n              mstore\n                /* \"#utility.yul\":1548:1552   */\n              0x24\n                /* \"#utility.yul\":1545:1546   */\n              0x00\n                /* \"#utility.yul\":1538:1553   */\n              revert\n                /* \"#utility.yul\":1565:1846   */\n            tag_100:\n                /* \"#utility.yul\":1648:1675   */\n              tag_152\n                /* \"#utility.yul\":1670:1674   */\n              dup3\n                /* \"#utility.yul\":1648:1675   */\n              tag_98\n              jump\t// in\n            tag_152:\n                /* \"#utility.yul\":1640:1646   */\n              dup2\n                /* \"#utility.yul\":1636:1676   */\n              add\n                /* \"#utility.yul\":1778:1784   */\n              dup2\n                /* \"#utility.yul\":1766:1776   */\n              dup2\n                /* \"#utility.yul\":1763:1785   */\n              lt\n                /* \"#utility.yul\":1742:1760   */\n              0xffffffffffffffff\n                /* \"#utility.yul\":1730:1740   */\n              dup3\n                /* \"#utility.yul\":1727:1761   */\n              gt\n                /* \"#utility.yul\":1724:1786   */\n              or\n                /* \"#utility.yul\":1721:1809   */\n              iszero\n              tag_153\n              jumpi\n                /* \"#utility.yul\":1789:1807   */\n              tag_154\n              tag_99\n              jump\t// in\n            tag_154:\n                /* \"#utility.yul\":1721:1809   */\n            tag_153:\n                /* \"#utility.yul\":1829:1839   */\n              dup1\n                /* \"#utility.yul\":1825:1827   */\n              0x40\n                /* \"#utility.yul\":1818:1840   */\n              mstore\n                /* \"#utility.yul\":1608:1846   */\n              pop\n                /* \"#utility.yul\":1565:1846   */\n              pop\n              pop\n              jump\t// out\n                /* \"#utility.yul\":1852:1981   */\n            tag_101:\n                /* \"#utility.yul\":1886:1892   */\n              0x00\n                /* \"#utility.yul\":1913:1933   */\n              tag_156\n              tag_90\n              jump\t// in\n            tag_156:\n                /* \"#utility.yul\":1903:1933   */\n              swap1\n              pop\n                /* \"#utility.yul\":1942:1975   */\n              tag_157\n                /* \"#utility.yul\":1970:1974   */\n              dup3\n                /* \"#utility.yul\":1962:1968   */\n              dup3\n                /* \"#utility.yul\":1942:1975   */\n              tag_100\n              jump\t// in\n            tag_157:\n                /* \"#utility.yul\":1852:1981   */\n              swap2\n              swap1\n              pop\n              jump\t// out\n                /* \"#utility.yul\":1987:2295   */\n            tag_102:\n                /* \"#utility.yul\":2049:2053   */\n              0x00\n                /* \"#utility.yul\":2139:2157   */\n              0xffffffffffffffff\n                /* \"#utility.yul\":2131:2137   */\n              dup3\n                /* \"#utility.yul\":2128:2158   */\n              gt\n                /* \"#utility.yul\":2125:2181   */\n              iszero\n              tag_159\n              jumpi\n                /* \"#utility.yul\":2161:2179   */\n              tag_160\n              tag_99\n              jump\t// in\n            tag_160:\n                /* \"#utility.yul\":2125:2181   */\n            tag_159:\n                /* \"#utility.yul\":2199:2228   */\n              tag_161\n                /* \"#utility.yul\":2221:2227   */\n              dup3\n                /* \"#utility.yul\":2199:2228   */\n              tag_98\n              jump\t// in\n            tag_161:\n                /* \"#utility.yul\":2191:2228   */\n              swap1\n              pop\n                /* \"#utility.yul\":2283:2287   */\n              0x20\n                /* \"#utility.yul\":2277:2281   */\n              dup2\n                /* \"#utility.yul\":2273:2288   */\n              add\n                /* \"#utility.yul\":2265:2288   */\n              swap1\n              pop\n                /* \"#utility.yul\":1987:2295   */\n              swap2\n              swap1\n              pop\n              jump\t// out\n                /* \"#utility.yul\":2301:2449   */\n            tag_103:\n                /* \"#utility.yul\":2399:2405   */\n              dup3\n                /* \"#utility.yul\":2394:2397   */\n              dup2\n                /* \"#utility.yul\":2389:2392   */\n              dup4\n                /* \"#utility.yul\":2376:2406   */\n              calldatacopy\n                /* \"#utility.yul\":2440:2441   */\n              0x00\n                /* \"#utility.yul\":2431:2437   */\n              dup4\n                /* \"#utility.yul\":2426:2429   */\n              dup4\n                /* \"#utility.yul\":2422:2438   */\n              add\n                /* \"#utility.yul\":2415:2442   */\n              mstore\n                /* \"#utility.yul\":2301:2449   */\n              pop\n              pop\n              pop\n              jump\t// out\n                /* \"#utility.yul\":2455:2880   */\n            tag_104:\n                /* \"#utility.yul\":2533:2538   */\n              0x00\n                /* \"#utility.yul\":2558:2624   */\n              tag_164\n                /* \"#utility.yul\":2574:2623   */\n              tag_165\n                /* \"#utility.yul\":2616:2622   */\n              dup5\n                /* \"#utility.yul\":2574:2623   */\n              tag_102\n              jump\t// in\n            tag_165:\n                /* \"#utility.yul\":2558:2624   */\n              tag_101\n              jump\t// in\n            tag_164:\n                /* \"#utility.yul\":2549:2624   */\n              swap1\n              pop\n                /* \"#utility.yul\":2647:2653   */\n              dup3\n                /* \"#utility.yul\":2640:2645   */\n              dup2\n                /* \"#utility.yul\":2633:2654   */\n              mstore\n                /* \"#utility.yul\":2685:2689   */\n              0x20\n                /* \"#utility.yul\":2678:2683   */\n              dup2\n                /* \"#utility.yul\":2674:2690   */\n              add\n                /* \"#utility.yul\":2723:2726   */\n              dup5\n                /* \"#utility.yul\":2714:2720   */\n              dup5\n                /* \"#utility.yul\":2709:2712   */\n              dup5\n                /* \"#utility.yul\":2705:2721   */\n              add\n                /* \"#utility.yul\":2702:2727   */\n              gt\n                /* \"#utility.yul\":2699:2811   */\n              iszero\n              tag_166\n              jumpi\n                /* \"#utility.yul\":2730:2809   */\n              tag_167\n              tag_97\n              jump\t// in\n            tag_167:\n                /* \"#utility.yul\":2699:2811   */\n            tag_166:\n                /* \"#utility.yul\":2820:2874   */\n              tag_168\n                /* \"#utility.yul\":2867:2873   */\n              dup5\n                /* \"#utility.yul\":2862:2865   */\n              dup3\n                /* \"#utility.yul\":2857:2860   */\n              dup6\n                /* \"#utility.yul\":2820:2874   */\n              tag_103\n              jump\t// in\n            tag_168:\n                /* \"#utility.yul\":2539:2880   */\n              pop\n                /* \"#utility.yul\":2455:2880   */\n              swap4\n              swap3\n              pop\n              pop\n              pop\n              jump\t// out\n                /* \"#utility.yul\":2900:3240   */\n            tag_105:\n                /* \"#utility.yul\":2956:2961   */\n              0x00\n                /* \"#utility.yul\":3005:3008   */\n              dup3\n                /* \"#utility.yul\":2998:3002   */\n              0x1f\n                /* \"#utility.yul\":2990:2996   */\n              dup4\n                /* \"#utility.yul\":2986:3003   */\n              add\n                /* \"#utility.yul\":2982:3009   */\n              slt\n                /* \"#utility.yul\":2972:3094   */\n              tag_170\n              jumpi\n                /* \"#utility.yul\":3013:3092   */\n              tag_171\n              tag_96\n              jump\t// in\n            tag_171:\n                /* \"#utility.yul\":2972:3094   */\n            tag_170:\n                /* \"#utility.yul\":3130:3136   */\n              dup2\n                /* \"#utility.yul\":3117:3137   */\n              calldataload\n                /* \"#utility.yul\":3155:3234   */\n              tag_172\n                /* \"#utility.yul\":3230:3233   */\n              dup5\n                /* \"#utility.yul\":3222:3228   */\n              dup3\n                /* \"#utility.yul\":3215:3219   */\n              0x20\n                /* \"#utility.yul\":3207:3213   */\n              dup7\n                /* \"#utility.yul\":3203:3220   */\n              add\n                /* \"#utility.yul\":3155:3234   */\n              tag_104\n              jump\t// in\n            tag_172:\n                /* \"#utility.yul\":3146:3234   */\n              swap2\n              pop\n                /* \"#utility.yul\":2962:3240   */\n              pop\n                /* \"#utility.yul\":2900:3240   */\n              swap3\n              swap2\n              pop\n              pop\n              jump\t// out\n                /* \"#utility.yul\":3246:4080   */\n            tag_17:\n                /* \"#utility.yul\":3334:3340   */\n              0x00\n                /* \"#utility.yul\":3342:3348   */\n              0x00\n                /* \"#utility.yul\":3391:3393   */\n              0x40\n                /* \"#utility.yul\":3379:3388   */\n              dup4\n                /* \"#utility.yul\":3370:3377   */\n              dup6\n                /* \"#utility.yul\":3366:3389   */\n              sub\n                /* \"#utility.yul\":3362:3394   */\n              slt\n                /* \"#utility.yul\":3359:3478   */\n              iszero\n              tag_174\n              jumpi\n                /* \"#utility.yul\":3397:3476   */\n              tag_175\n              tag_91\n              jump\t// in\n            tag_175:\n                /* \"#utility.yul\":3359:3478   */\n            tag_174:\n                /* \"#utility.yul\":3545:3546   */\n              0x00\n                /* \"#utility.yul\":3534:3543   */\n              dup4\n                /* \"#utility.yul\":3530:3547   */\n              add\n                /* \"#utility.yul\":3517:3548   */\n              calldataload\n                /* \"#utility.yul\":3575:3593   */\n              0xffffffffffffffff\n                /* \"#utility.yul\":3567:3573   */\n              dup2\n                /* \"#utility.yul\":3564:3594   */\n              gt\n                /* \"#utility.yul\":3561:3678   */\n              iszero\n              tag_176\n              jumpi\n                /* \"#utility.yul\":3597:3676   */\n              tag_177\n              tag_92\n              jump\t// in\n            tag_177:\n                /* \"#utility.yul\":3561:3678   */\n            tag_176:\n                /* \"#utility.yul\":3702:3765   */\n              tag_178\n                /* \"#utility.yul\":3757:3764   */\n              dup6\n                /* \"#utility.yul\":3748:3754   */\n              dup3\n                /* \"#utility.yul\":3737:3746   */\n              dup7\n                /* \"#utility.yul\":3733:3755   */\n              add\n                /* \"#utility.yul\":3702:3765   */\n              tag_105\n              jump\t// in\n            tag_178:\n                /* \"#utility.yul\":3692:3765   */\n              swap3\n              pop\n                /* \"#utility.yul\":3488:3775   */\n              pop\n                /* \"#utility.yul\":3842:3844   */\n              0x20\n                /* \"#utility.yul\":3831:3840   */\n              dup4\n                /* \"#utility.yul\":3827:3845   */\n              add\n                /* \"#utility.yul\":3814:3846   */\n              calldataload\n                /* \"#utility.yul\":3873:3891   */\n              0xffffffffffffffff\n                /* \"#utility.yul\":3865:3871   */\n              dup2\n                /* \"#utility.yul\":3862:3892   */\n              gt\n                /* \"#utility.yul\":3859:3976   */\n              iszero\n              tag_179\n              jumpi\n                /* \"#utility.yul\":3895:3974   */\n              tag_180\n              tag_92\n              jump\t// in\n            tag_180:\n                /* \"#utility.yul\":3859:3976   */\n            tag_179:\n                /* \"#utility.yul\":4000:4063   */\n              tag_181\n                /* \"#utility.yul\":4055:4062   */\n              dup6\n                /* \"#utility.yul\":4046:4052   */\n              dup3\n                /* \"#utility.yul\":4035:4044   */\n              dup7\n                /* \"#utility.yul\":4031:4053   */\n              add\n                /* \"#utility.yul\":4000:4063   */\n              tag_105\n              jump\t// in\n            tag_181:\n                /* \"#utility.yul\":3990:4063   */\n              swap2\n              pop\n                /* \"#utility.yul\":3785:4073   */\n              pop\n                /* \"#utility.yul\":3246:4080   */\n              swap3\n              pop\n              swap3\n              swap1\n              pop\n              jump\t// out\n                /* \"#utility.yul\":4086:4212   */\n            tag_106:\n                /* \"#utility.yul\":4123:4130   */\n              0x00\n                /* \"#utility.yul\":4163:4205   */\n              0xffffffffffffffffffffffffffffffffffffffff\n                /* \"#utility.yul\":4156:4161   */\n              dup3\n                /* \"#utility.yul\":4152:4206   */\n              and\n                /* \"#utility.yul\":4141:4206   */\n              swap1\n              pop\n                /* \"#utility.yul\":4086:4212   */\n              swap2\n              swap1\n              pop\n              jump\t// out\n                /* \"#utility.yul\":4218:4314   */\n            tag_107:\n                /* \"#utility.yul\":4255:4262   */\n              0x00\n                /* \"#utility.yul\":4284:4308   */\n              tag_184\n                /* \"#utility.yul\":4302:4307   */\n              dup3\n                /* \"#utility.yul\":4284:4308   */\n              tag_106\n              jump\t// in\n            tag_184:\n                /* \"#utility.yul\":4273:4308   */\n              swap1\n              pop\n                /* \"#utility.yul\":4218:4314   */\n              swap2\n              swap1\n              pop\n              jump\t// out\n                /* \"#utility.yul\":4320:4442   */\n            tag_108:\n                /* \"#utility.yul\":4393:4417   */\n              tag_186\n                /* \"#utility.yul\":4411:4416   */\n              dup2\n                /* \"#utility.yul\":4393:4417   */\n              tag_107\n              jump\t// in\n            tag_186:\n                /* \"#utility.yul\":4386:4391   */\n              dup2\n                /* \"#utility.yul\":4383:4418   */\n              eq\n                /* \"#utility.yul\":4373:4436   */\n              tag_187\n              jumpi\n                /* \"#utility.yul\":4432:4433   */\n              0x00\n                /* \"#utility.yul\":4429:4430   */\n              0x00\n                /* \"#utility.yul\":4422:4434   */\n              revert\n                /* \"#utility.yul\":4373:4436   */\n            tag_187:\n                /* \"#utility.yul\":4320:4442   */\n              pop\n              jump\t// out\n                /* \"#utility.yul\":4448:4587   */\n            tag_109:\n                /* \"#utility.yul\":4494:4499   */\n              0x00\n                /* \"#utility.yul\":4532:4538   */\n              dup2\n                /* \"#utility.yul\":4519:4539   */\n              calldataload\n                /* \"#utility.yul\":4510:4539   */\n              swap1\n              pop\n                /* \"#utility.yul\":4548:4581   */\n              tag_189\n                /* \"#utility.yul\":4575:4580   */\n              dup2\n                /* \"#utility.yul\":4548:4581   */\n              tag_108\n              jump\t// in\n            tag_189:\n                /* \"#utility.yul\":4448:4587   */\n              swap3\n              swap2\n              pop\n              pop\n              jump\t// out\n                /* \"#utility.yul\":4593:4922   */\n            tag_24:\n                /* \"#utility.yul\":4652:4658   */\n              0x00\n                /* \"#utility.yul\":4701:4703   */\n              0x20\n                /* \"#utility.yul\":4689:4698   */\n              dup3\n                /* \"#utility.yul\":4680:4687   */\n              dup5\n                /* \"#utility.yul\":4676:4699   */\n              sub\n                /* \"#utility.yul\":4672:4704   */\n              slt\n                /* \"#utility.yul\":4669:4788   */\n              iszero\n              tag_191\n              jumpi\n                /* \"#utility.yul\":4707:4786   */\n              tag_192\n              tag_91\n              jump\t// in\n            tag_192:\n                /* \"#utility.yul\":4669:4788   */\n            tag_191:\n                /* \"#utility.yul\":4827:4828   */\n              0x00\n                /* \"#utility.yul\":4852:4905   */\n              tag_193\n                /* \"#utility.yul\":4897:4904   */\n              dup5\n                /* \"#utility.yul\":4888:4894   */\n              dup3\n                /* \"#utility.yul\":4877:4886   */\n              dup6\n                /* \"#utility.yul\":4873:4895   */\n              add\n                /* \"#utility.yul\":4852:4905   */\n              tag_109\n              jump\t// in\n            tag_193:\n                /* \"#utility.yul\":4842:4905   */\n              swap2\n              pop\n                /* \"#utility.yul\":4798:4915   */\n              pop\n                /* \"#utility.yul\":4593:4922   */\n              swap3\n              swap2\n              pop\n              pop\n              jump\t// out\n                /* \"#utility.yul\":4928:5097   */\n            tag_110:\n                /* \"#utility.yul\":5012:5023   */\n              0x00\n                /* \"#utility.yul\":5046:5052   */\n              dup3\n                /* \"#utility.yul\":5041:5044   */\n              dup3\n                /* \"#utility.yul\":5034:5053   */\n              mstore\n                /* \"#utility.yul\":5086:5090   */\n              0x20\n                /* \"#utility.yul\":5081:5084   */\n              dup3\n                /* \"#utility.yul\":5077:5091   */\n              add\n                /* \"#utility.yul\":5062:5091   */\n              swap1\n              pop\n                /* \"#utility.yul\":4928:5097   */\n              swap3\n              swap2\n              pop\n              pop\n              jump\t// out\n                /* \"#utility.yul\":5103:5265   */\n            tag_111:\n                /* \"#utility.yul\":5243:5257   */\n              0x6572726f72206d656d6265720000000000000000000000000000000000000000\n                /* \"#utility.yul\":5239:5240   */\n              0x00\n                /* \"#utility.yul\":5231:5237   */\n              dup3\n                /* \"#utility.yul\":5227:5241   */\n              add\n                /* \"#utility.yul\":5220:5258   */\n              mstore\n                /* \"#utility.yul\":5103:5265   */\n              pop\n              jump\t// out\n                /* \"#utility.yul\":5271:5637   */\n            tag_112:\n                /* \"#utility.yul\":5413:5416   */\n              0x00\n                /* \"#utility.yul\":5434:5501   */\n              tag_197\n                /* \"#utility.yul\":5498:5500   */\n              0x0c\n                /* \"#utility.yul\":5493:5496   */\n              dup4\n                /* \"#utility.yul\":5434:5501   */\n              tag_110\n              jump\t// in\n            tag_197:\n                /* \"#utility.yul\":5427:5501   */\n              swap2\n              pop\n                /* \"#utility.yul\":5510:5603   */\n              tag_198\n                /* \"#utility.yul\":5599:5602   */\n              dup3\n                /* \"#utility.yul\":5510:5603   */\n              tag_111\n              jump\t// in\n            tag_198:\n                /* \"#utility.yul\":5628:5630   */\n              0x20\n                /* \"#utility.yul\":5623:5626   */\n              dup3\n                /* \"#utility.yul\":5619:5631   */\n              add\n                /* \"#utility.yul\":5612:5631   */\n              swap1\n              pop\n                /* \"#utility.yul\":5271:5637   */\n              swap2\n              swap1\n              pop\n              jump\t// out\n                /* \"#utility.yul\":5643:6062   */\n            tag_29:\n                /* \"#utility.yul\":5809:5813   */\n              0x00\n                /* \"#utility.yul\":5847:5849   */\n              0x20\n                /* \"#utility.yul\":5836:5845   */\n              dup3\n                /* \"#utility.yul\":5832:5850   */\n              add\n                /* \"#utility.yul\":5824:5850   */\n              swap1\n              pop\n                /* \"#utility.yul\":5896:5905   */\n              dup2\n                /* \"#utility.yul\":5890:5894   */\n              dup2\n                /* \"#utility.yul\":5886:5906   */\n              sub\n                /* \"#utility.yul\":5882:5883   */\n              0x00\n                /* \"#utility.yul\":5871:5880   */\n              dup4\n                /* \"#utility.yul\":5867:5884   */\n              add\n                /* \"#utility.yul\":5860:5907   */\n              mstore\n                /* \"#utility.yul\":5924:6055   */\n              tag_200\n                /* \"#utility.yul\":6050:6054   */\n              dup2\n                /* \"#utility.yul\":5924:6055   */\n              tag_112\n              jump\t// in\n            tag_200:\n                /* \"#utility.yul\":5916:6055   */\n              swap1\n              pop\n                /* \"#utility.yul\":5643:6062   */\n              swap2\n              swap1\n              pop\n              jump\t// out\n                /* \"#utility.yul\":6068:6248   */\n            tag_35:\n                /* \"#utility.yul\":6116:6193   */\n              0x4e487b7100000000000000000000000000000000000000000000000000000000\n                /* \"#utility.yul\":6113:6114   */\n              0x00\n                /* \"#utility.yul\":6106:6194   */\n              mstore\n                /* \"#utility.yul\":6213:6217   */\n              0x32\n                /* \"#utility.yul\":6210:6211   */\n              0x04\n                /* \"#utility.yul\":6203:6218   */\n              mstore\n                /* \"#utility.yul\":6237:6241   */\n              0x24\n                /* \"#utility.yul\":6234:6235   */\n              0x00\n                /* \"#utility.yul\":6227:6242   */\n              revert\n                /* \"#utility.yul\":6254:6434   */\n            tag_39:\n                /* \"#utility.yul\":6302:6379   */\n              0x4e487b7100000000000000000000000000000000000000000000000000000000\n                /* \"#utility.yul\":6299:6300   */\n              0x00\n                /* \"#utility.yul\":6292:6380   */\n              mstore\n                /* \"#utility.yul\":6399:6403   */\n              0x21\n                /* \"#utility.yul\":6396:6397   */\n              0x04\n                /* \"#utility.yul\":6389:6404   */\n              mstore\n                /* \"#utility.yul\":6423:6427   */\n              0x24\n                /* \"#utility.yul\":6420:6421   */\n              0x00\n                /* \"#utility.yul\":6413:6428   */\n              revert\n                /* \"#utility.yul\":6440:6620   */\n            tag_113:\n                /* \"#utility.yul\":6488:6565   */\n              0x4e487b7100000000000000000000000000000000000000000000000000000000\n                /* \"#utility.yul\":6485:6486   */\n              0x00\n                /* \"#utility.yul\":6478:6566   */\n              mstore\n                /* \"#utility.yul\":6585:6589   */\n              0x11\n                /* \"#utility.yul\":6582:6583   */\n              0x04\n                /* \"#utility.yul\":6575:6590   */\n              mstore\n                /* \"#utility.yul\":6609:6613   */\n              0x24\n                /* \"#utility.yul\":6606:6607   */\n              0x00\n                /* \"#utility.yul\":6599:6614   */\n              revert\n                /* \"#utility.yul\":6626:6817   */\n            tag_44:\n                /* \"#utility.yul\":6666:6669   */\n              0x00\n                /* \"#utility.yul\":6685:6705   */\n              tag_205\n                /* \"#utility.yul\":6703:6704   */\n              dup3\n                /* \"#utility.yul\":6685:6705   */\n              tag_93\n              jump\t// in\n            tag_205:\n                /* \"#utility.yul\":6680:6705   */\n              swap2\n              pop\n                /* \"#utility.yul\":6719:6739   */\n              tag_206\n                /* \"#utility.yul\":6737:6738   */\n              dup4\n                /* \"#utility.yul\":6719:6739   */\n              tag_93\n              jump\t// in\n            tag_206:\n                /* \"#utility.yul\":6714:6739   */\n              swap3\n              pop\n                /* \"#utility.yul\":6762:6763   */\n              dup3\n                /* \"#utility.yul\":6759:6760   */\n              dup3\n                /* \"#utility.yul\":6755:6764   */\n              add\n                /* \"#utility.yul\":6748:6764   */\n              swap1\n              pop\n                /* \"#utility.yul\":6783:6786   */\n              dup1\n                /* \"#utility.yul\":6780:6781   */\n              dup3\n                /* \"#utility.yul\":6777:6787   */\n              gt\n                /* \"#utility.yul\":6774:6810   */\n              iszero\n              tag_207\n              jumpi\n                /* \"#utility.yul\":6790:6808   */\n              tag_208\n              tag_113\n              jump\t// in\n            tag_208:\n                /* \"#utility.yul\":6774:6810   */\n            tag_207:\n                /* \"#utility.yul\":6626:6817   */\n              swap3\n              swap2\n              pop\n              pop\n              jump\t// out\n                /* \"#utility.yul\":6823:6922   */\n            tag_114:\n                /* \"#utility.yul\":6875:6881   */\n              0x00\n                /* \"#utility.yul\":6909:6914   */\n              dup2\n                /* \"#utility.yul\":6903:6915   */\n              mload\n                /* \"#utility.yul\":6893:6915   */\n              swap1\n              pop\n                /* \"#utility.yul\":6823:6922   */\n              swap2\n              swap1\n              pop\n              jump\t// out\n                /* \"#utility.yul\":6928:7108   */\n            tag_115:\n                /* \"#utility.yul\":6976:7053   */\n              0x4e487b7100000000000000000000000000000000000000000000000000000000\n                /* \"#utility.yul\":6973:6974   */\n              0x00\n                /* \"#utility.yul\":6966:7054   */\n              mstore\n                /* \"#utility.yul\":7073:7077   */\n              0x22\n                /* \"#utility.yul\":7070:7071   */\n              0x04\n                /* \"#utility.yul\":7063:7078   */\n              mstore\n                /* \"#utility.yul\":7097:7101   */\n              0x24\n                /* \"#utility.yul\":7094:7095   */\n              0x00\n                /* \"#utility.yul\":7087:7102   */\n              revert\n                /* \"#utility.yul\":7114:7434   */\n            tag_116:\n                /* \"#utility.yul\":7158:7164   */\n              0x00\n                /* \"#utility.yul\":7195:7196   */\n              0x02\n                /* \"#utility.yul\":7189:7193   */\n              dup3\n                /* \"#utility.yul\":7185:7197   */\n              div\n                /* \"#utility.yul\":7175:7197   */\n              swap1\n              pop\n                /* \"#utility.yul\":7242:7243   */\n              0x01\n                /* \"#utility.yul\":7236:7240   */\n              dup3\n                /* \"#utility.yul\":7232:7244   */\n              and\n                /* \"#utility.yul\":7263:7281   */\n              dup1\n                /* \"#utility.yul\":7253:7334   */\n              tag_212\n              jumpi\n                /* \"#utility.yul\":7319:7323   */\n              0x7f\n                /* \"#utility.yul\":7311:7317   */\n              dup3\n                /* \"#utility.yul\":7307:7324   */\n              and\n                /* \"#utility.yul\":7297:7324   */\n              swap2\n              pop\n                /* \"#utility.yul\":7253:7334   */\n            tag_212:\n                /* \"#utility.yul\":7381:7383   */\n              0x20\n                /* \"#utility.yul\":7373:7379   */\n              dup3\n                /* \"#utility.yul\":7370:7384   */\n              lt\n                /* \"#utility.yul\":7350:7368   */\n              dup2\n                /* \"#utility.yul\":7347:7385   */\n              sub\n                /* \"#utility.yul\":7344:7428   */\n              tag_213\n              jumpi\n                /* \"#utility.yul\":7400:7418   */\n              tag_214\n              tag_115\n              jump\t// in\n            tag_214:\n                /* \"#utility.yul\":7344:7428   */\n            tag_213:\n                /* \"#utility.yul\":7165:7434   */\n              pop\n                /* \"#utility.yul\":7114:7434   */\n              swap2\n              swap1\n              pop\n              jump\t// out\n                /* \"#utility.yul\":7440:7581   */\n            tag_117:\n                /* \"#utility.yul\":7489:7493   */\n              0x00\n                /* \"#utility.yul\":7512:7515   */\n              dup2\n                /* \"#utility.yul\":7504:7515   */\n              swap1\n              pop\n                /* \"#utility.yul\":7535:7538   */\n              dup2\n                /* \"#utility.yul\":7532:7533   */\n              0x00\n                /* \"#utility.yul\":7525:7539   */\n              mstore\n                /* \"#utility.yul\":7569:7573   */\n              0x20\n                /* \"#utility.yul\":7566:7567   */\n              0x00\n                /* \"#utility.yul\":7556:7574   */\n              keccak256\n                /* \"#utility.yul\":7548:7574   */\n              swap1\n              pop\n                /* \"#utility.yul\":7440:7581   */\n              swap2\n              swap1\n              pop\n              jump\t// out\n                /* \"#utility.yul\":7587:7680   */\n            tag_118:\n                /* \"#utility.yul\":7624:7630   */\n              0x00\n                /* \"#utility.yul\":7671:7673   */\n              0x20\n                /* \"#utility.yul\":7666:7668   */\n              0x1f\n                /* \"#utility.yul\":7659:7664   */\n              dup4\n                /* \"#utility.yul\":7655:7669   */\n              add\n                /* \"#utility.yul\":7651:7674   */\n              div\n                /* \"#utility.yul\":7641:7674   */\n              swap1\n              pop\n                /* \"#utility.yul\":7587:7680   */\n              swap2\n              swap1\n              pop\n              jump\t// out\n                /* \"#utility.yul\":7686:7793   */\n            tag_119:\n                /* \"#utility.yul\":7730:7738   */\n              0x00\n                /* \"#utility.yul\":7780:7785   */\n              dup3\n                /* \"#utility.yul\":7774:7778   */\n              dup3\n                /* \"#utility.yul\":7770:7786   */\n              shl\n                /* \"#utility.yul\":7749:7786   */\n              swap1\n              pop\n                /* \"#utility.yul\":7686:7793   */\n              swap3\n              swap2\n              pop\n              pop\n              jump\t// out\n                /* \"#utility.yul\":7799:8192   */\n            tag_120:\n                /* \"#utility.yul\":7868:7874   */\n              0x00\n                /* \"#utility.yul\":7918:7919   */\n              0x08\n                /* \"#utility.yul\":7906:7916   */\n              dup4\n                /* \"#utility.yul\":7902:7920   */\n              mul\n                /* \"#utility.yul\":7941:8038   */\n              tag_219\n                /* \"#utility.yul\":7971:8037   */\n              0xffffffffffffffffffffffffffffffffffffffffffffffffffffffffffffffff\n                /* \"#utility.yul\":7960:7969   */\n              dup3\n                /* \"#utility.yul\":7941:8038   */\n              tag_119\n              jump\t// in\n            tag_219:\n                /* \"#utility.yul\":8059:8098   */\n              tag_220\n                /* \"#utility.yul\":8089:8097   */\n              dup7\n                /* \"#utility.yul\":8078:8087   */\n              dup4\n                /* \"#utility.yul\":8059:8098   */\n              tag_119\n              jump\t// in\n            tag_220:\n                /* \"#utility.yul\":8047:8098   */\n              swap6\n              pop\n                /* \"#utility.yul\":8131:8135   */\n              dup1\n                /* \"#utility.yul\":8127:8136   */\n              not\n                /* \"#utility.yul\":8120:8125   */\n              dup5\n                /* \"#utility.yul\":8116:8137   */\n              and\n                /* \"#utility.yul\":8107:8137   */\n              swap4\n              pop\n                /* \"#utility.yul\":8180:8184   */\n              dup1\n                /* \"#utility.yul\":8170:8178   */\n              dup7\n                /* \"#utility.yul\":8166:8185   */\n              and\n                /* \"#utility.yul\":8159:8164   */\n              dup5\n                /* \"#utility.yul\":8156:8186   */\n              or\n                /* \"#utility.yul\":8146:8186   */\n              swap3\n              pop\n                /* \"#utility.yul\":7875:8192   */\n              pop\n              pop\n                /* \"#utility.yul\":7799:8192   */\n              swap4\n              swap3\n              pop\n              pop\n              pop\n              jump\t// out\n                /* \"#utility.yul\":8198:8258   */\n            tag_121:\n                /* \"#utility.yul\":8226:8229   */\n              0x00\n                /* \"#utility.yul\":8247:8252   */\n              dup2\n                /* \"#utility.yul\":8240:8252   */\n              swap1\n              pop\n                /* \"#utility.yul\":8198:8258   */\n              swap2\n              swap1\n              pop\n              jump\t// out\n                /* \"#utility.yul\":8264:8406   */\n            tag_122:\n                /* \"#utility.yul\":8314:8323   */\n              0x00\n                /* \"#utility.yul\":8347:8400   */\n              tag_223\n                /* \"#utility.yul\":8365:8399   */\n              tag_224\n                /* \"#utility.yul\":8374:8398   */\n              tag_225\n                /* \"#utility.yul\":8392:8397   */\n              dup5\n                /* \"#utility.yul\":8374:8398   */\n              tag_93\n              jump\t// in\n            tag_225:\n                /* \"#utility.yul\":8365:8399   */\n              tag_121\n              jump\t// in\n            tag_224:\n                /* \"#utility.yul\":8347:8400   */\n              tag_93\n              jump\t// in\n            tag_223:\n                /* \"#utility.yul\":8334:8400   */\n              swap1\n              pop\n                /* \"#utility.yul\":8264:8406   */\n              swap2\n              swap1\n              pop\n              jump\t// out\n                /* \"#utility.yul\":8412:8487   */\n            tag_123:\n                /* \"#utility.yul\":8455:8458   */\n              0x00\n                /* \"#utility.yul\":8476:8481   */\n              dup2\n                /* \"#utility.yul\":8469:8481   */\n              swap1\n              pop\n                /* \"#utility.yul\":8412:8487   */\n              swap2\n              swap1\n              pop\n              jump\t// out\n                /* \"#utility.yul\":8493:8762   */\n            tag_124:\n                /* \"#utility.yul\":8603:8642   */\n              tag_228\n                /* \"#utility.yul\":8634:8641   */\n              dup4\n                /* \"#utility.yul\":8603:8642   */\n              tag_122\n              jump\t// in\n            tag_228:\n                /* \"#utility.yul\":8664:8755   */\n              tag_229\n                /* \"#utility.yul\":8713:8754   */\n              tag_230\n                /* \"#utility.yul\":8737:8753   */\n              dup3\n                /* \"#utility.yul\":8713:8754   */\n              tag_123\n              jump\t// in\n            tag_230:\n                /* \"#utility.yul\":8705:8711   */\n              dup5\n                /* \"#utility.yul\":8698:8702   */\n              dup5\n                /* \"#utility.yul\":8692:8703   */\n              sload\n                /* \"#utility.yul\":8664:8755   */\n              tag_120\n              jump\t// in\n            tag_229:\n                /* \"#utility.yul\":8658:8662   */\n              dup3\n                /* \"#utility.yul\":8651:8756   */\n              sstore\n                /* \"#utility.yul\":8569:8762   */\n              pop\n                /* \"#utility.yul\":8493:8762   */\n              pop\n              pop\n              pop\n              jump\t// out\n                /* \"#utility.yul\":8768:8841   */\n            tag_125:\n                /* \"#utility.yul\":8813:8816   */\n              0x00\n                /* \"#utility.yul\":8834:8835   */\n              0x00\n                /* \"#utility.yul\":8827:8835   */\n              swap1\n              pop\n                /* \"#utility.yul\":8768:8841   */\n              swap1\n              jump\t// out\n                /* \"#utility.yul\":8847:9036   */\n            tag_126:\n                /* \"#utility.yul\":8924:8956   */\n              tag_233\n              tag_125\n              jump\t// in\n            tag_233:\n                /* \"#utility.yul\":8965:9030   */\n              tag_234\n                /* \"#utility.yul\":9023:9029   */\n              dup2\n                /* \"#utility.yul\":9015:9021   */\n              dup5\n                /* \"#utility.yul\":9009:9013   */\n              dup5\n                /* \"#utility.yul\":8965:9030   */\n              tag_124\n              jump\t// in\n            tag_234:\n                /* \"#utility.yul\":8900:9036   */\n              pop\n                /* \"#utility.yul\":8847:9036   */\n              pop\n              pop\n              jump\t// out\n                /* \"#utility.yul\":9042:9228   */\n            tag_127:\n                /* \"#utility.yul\":9102:9222   */\n            tag_236:\n                /* \"#utility.yul\":9119:9122   */\n              dup2\n                /* \"#utility.yul\":9112:9117   */\n              dup2\n                /* \"#utility.yul\":9109:9123   */\n              lt\n                /* \"#utility.yul\":9102:9222   */\n              iszero\n              tag_238\n              jumpi\n                /* \"#utility.yul\":9173:9212   */\n              tag_239\n                /* \"#utility.yul\":9210:9211   */\n              0x00\n                /* \"#utility.yul\":9203:9208   */\n              dup3\n                /* \"#utility.yul\":9173:9212   */\n              tag_126\n              jump\t// in\n            tag_239:\n                /* \"#utility.yul\":9146:9147   */\n              0x01\n                /* \"#utility.yul\":9139:9144   */\n              dup2\n                /* \"#utility.yul\":9135:9148   */\n              add\n                /* \"#utility.yul\":9126:9148   */\n              swap1\n              pop\n                /* \"#utility.yul\":9102:9222   */\n              jump(tag_236)\n            tag_238:\n                /* \"#utility.yul\":9042:9228   */\n              pop\n              pop\n              jump\t// out\n                /* \"#utility.yul\":9234:9777   */\n            tag_128:\n                /* \"#utility.yul\":9335:9337   */\n              0x1f\n                /* \"#utility.yul\":9330:9333   */\n              dup3\n                /* \"#utility.yul\":9327:9338   */\n              gt\n                /* \"#utility.yul\":9324:9770   */\n              iszero\n              tag_241\n              jumpi\n                /* \"#utility.yul\":9369:9407   */\n              tag_242\n                /* \"#utility.yul\":9401:9406   */\n              dup2\n                /* \"#utility.yul\":9369:9407   */\n              tag_117\n              jump\t// in\n            tag_242:\n                /* \"#utility.yul\":9453:9482   */\n              tag_243\n                /* \"#utility.yul\":9471:9481   */\n              dup5\n                /* \"#utility.yul\":9453:9482   */\n              tag_118\n              jump\t// in\n            tag_243:\n                /* \"#utility.yul\":9443:9451   */\n              dup2\n                /* \"#utility.yul\":9439:9483   */\n              add\n                /* \"#utility.yul\":9636:9638   */\n              0x20\n                /* \"#utility.yul\":9624:9634   */\n              dup6\n                /* \"#utility.yul\":9621:9639   */\n              lt\n                /* \"#utility.yul\":9618:9667   */\n              iszero\n              tag_244\n              jumpi\n                /* \"#utility.yul\":9657:9665   */\n              dup2\n                /* \"#utility.yul\":9642:9665   */\n              swap1\n              pop\n                /* \"#utility.yul\":9618:9667   */\n            tag_244:\n                /* \"#utility.yul\":9680:9760   */\n              tag_245\n                /* \"#utility.yul\":9736:9758   */\n              tag_246\n                /* \"#utility.yul\":9754:9757   */\n              dup6\n                /* \"#utility.yul\":9736:9758   */\n              tag_118\n              jump\t// in\n            tag_246:\n                /* \"#utility.yul\":9726:9734   */\n              dup4\n                /* \"#utility.yul\":9722:9759   */\n              add\n                /* \"#utility.yul\":9709:9720   */\n              dup3\n                /* \"#utility.yul\":9680:9760   */\n              tag_127\n              jump\t// in\n            tag_245:\n                /* \"#utility.yul\":9339:9770   */\n              pop\n              pop\n                /* \"#utility.yul\":9324:9770   */\n            tag_241:\n                /* \"#utility.yul\":9234:9777   */\n              pop\n              pop\n              pop\n              jump\t// out\n                /* \"#utility.yul\":9783:9900   */\n            tag_129:\n                /* \"#utility.yul\":9837:9845   */\n              0x00\n                /* \"#utility.yul\":9887:9892   */\n              dup3\n                /* \"#utility.yul\":9881:9885   */\n              dup3\n                /* \"#utility.yul\":9877:9893   */\n              shr\n                /* \"#utility.yul\":9856:9893   */\n              swap1\n              pop\n                /* \"#utility.yul\":9783:9900   */\n              swap3\n              swap2\n              pop\n              pop\n              jump\t// out\n                /* \"#utility.yul\":9906:10075   */\n            tag_130:\n                /* \"#utility.yul\":9950:9956   */\n              0x00\n                /* \"#utility.yul\":9983:10034   */\n              tag_249\n                /* \"#utility.yul\":10031:10032   */\n              0x00\n                /* \"#utility.yul\":10027:10033   */\n              not\n                /* \"#utility.yul\":10019:10024   */\n              dup5\n                /* \"#utility.yul\":10016:10017   */\n              0x08\n                /* \"#utility.yul\":10012:10025   */\n              mul\n                /* \"#utility.yul\":9983:10034   */\n              tag_129\n              jump\t// in\n            tag_249:\n                /* \"#utility.yul\":9979:10035   */\n              not\n                /* \"#utility.yul\":10064:10068   */\n              dup1\n                /* \"#utility.yul\":10058:10062   */\n              dup4\n                /* \"#utility.yul\":10054:10069   */\n              and\n                /* \"#utility.yul\":10044:10069   */\n              swap2\n              pop\n                /* \"#utility.yul\":9957:10075   */\n              pop\n                /* \"#utility.yul\":9906:10075   */\n              swap3\n              swap2\n              pop\n              pop\n              jump\t// out\n                /* \"#utility.yul\":10080:10375   */\n            tag_131:\n                /* \"#utility.yul\":10156:10160   */\n              0x00\n                /* \"#utility.yul\":10302:10331   */\n              tag_251\n                /* \"#utility.yul\":10327:10330   */\n              dup4\n                /* \"#utility.yul\":10321:10325   */\n              dup4\n                /* \"#utility.yul\":10302:10331   */\n              tag_130\n              jump\t// in\n            tag_251:\n                /* \"#utility.yul\":10294:10331   */\n              swap2\n              pop\n                /* \"#utility.yul\":10364:10367   */\n              dup3\n                /* \"#utility.yul\":10361:10362   */\n              0x02\n                /* \"#utility.yul\":10357:10368   */\n              mul\n                /* \"#utility.yul\":10351:10355   */\n              dup3\n                /* \"#utility.yul\":10348:10369   */\n              or\n                /* \"#utility.yul\":10340:10369   */\n              swap1\n              pop\n                /* \"#utility.yul\":10080:10375   */\n              swap3\n              swap2\n              pop\n              pop\n              jump\t// out\n                /* \"#utility.yul\":10380:11775   */\n            tag_66:\n                /* \"#utility.yul\":10497:10534   */\n              tag_253\n                /* \"#utility.yul\":10530:10533   */\n              dup3\n                /* \"#utility.yul\":10497:10534   */\n              tag_114\n              jump\t// in\n            tag_253:\n                /* \"#utility.yul\":10599:10617   */\n              0xffffffffffffffff\n                /* \"#utility.yul\":10591:10597   */\n              dup2\n                /* \"#utility.yul\":10588:10618   */\n              gt\n                /* \"#utility.yul\":10585:10641   */\n              iszero\n              tag_254\n              jumpi\n                /* \"#utility.yul\":10621:10639   */\n              tag_255\n              tag_99\n              jump\t// in\n            tag_255:\n                /* \"#utility.yul\":10585:10641   */\n            tag_254:\n                /* \"#utility.yul\":10665:10703   */\n              tag_256\n                /* \"#utility.yul\":10697:10701   */\n              dup3\n                /* \"#utility.yul\":10691:10702   */\n              sload\n                /* \"#utility.yul\":10665:10703   */\n              tag_116\n              jump\t// in\n            tag_256:\n                /* \"#utility.yul\":10750:10817   */\n              tag_257\n                /* \"#utility.yul\":10810:10816   */\n              dup3\n                /* \"#utility.yul\":10802:10808   */\n              dup3\n                /* \"#utility.yul\":10796:10800   */\n              dup6\n                /* \"#utility.yul\":10750:10817   */\n              tag_128\n              jump\t// in\n            tag_257:\n                /* \"#utility.yul\":10844:10845   */\n              0x00\n                /* \"#utility.yul\":10868:10872   */\n              0x20\n                /* \"#utility.yul\":10855:10872   */\n              swap1\n              pop\n                /* \"#utility.yul\":10900:10902   */\n              0x1f\n                /* \"#utility.yul\":10892:10898   */\n              dup4\n                /* \"#utility.yul\":10889:10903   */\n              gt\n                /* \"#utility.yul\":10917:10918   */\n              0x01\n                /* \"#utility.yul\":10912:11530   */\n              dup2\n              eq\n              tag_259\n              jumpi\n                /* \"#utility.yul\":11574:11575   */\n              0x00\n                /* \"#utility.yul\":11591:11597   */\n              dup5\n                /* \"#utility.yul\":11588:11665   */\n              iszero\n              tag_260\n              jumpi\n                /* \"#utility.yul\":11640:11649   */\n              dup3\n                /* \"#utility.yul\":11635:11638   */\n              dup8\n                /* \"#utility.yul\":11631:11650   */\n              add\n                /* \"#utility.yul\":11625:11651   */\n              mload\n                /* \"#utility.yul\":11616:11651   */\n              swap1\n              pop\n                /* \"#utility.yul\":11588:11665   */\n            tag_260:\n                /* \"#utility.yul\":11691:11758   */\n              tag_261\n                /* \"#utility.yul\":11751:11757   */\n              dup6\n                /* \"#utility.yul\":11744:11749   */\n              dup3\n                /* \"#utility.yul\":11691:11758   */\n              tag_131\n              jump\t// in\n            tag_261:\n                /* \"#utility.yul\":11685:11689   */\n              dup7\n                /* \"#utility.yul\":11678:11759   */\n              sstore\n                /* \"#utility.yul\":11547:11769   */\n              pop\n                /* \"#utility.yul\":10882:11769   */\n              jump(tag_258)\n                /* \"#utility.yul\":10912:11530   */\n            tag_259:\n                /* \"#utility.yul\":10964:10968   */\n              0x1f\n                /* \"#utility.yul\":10960:10969   */\n              not\n                /* \"#utility.yul\":10952:10958   */\n              dup5\n                /* \"#utility.yul\":10948:10970   */\n              and\n                /* \"#utility.yul\":10998:11035   */\n              tag_262\n                /* \"#utility.yul\":11030:11034   */\n              dup7\n                /* \"#utility.yul\":10998:11035   */\n              tag_117\n              jump\t// in\n            tag_262:\n                /* \"#utility.yul\":11057:11058   */\n              0x00\n                /* \"#utility.yul\":11071:11279   */\n            tag_263:\n                /* \"#utility.yul\":11085:11092   */\n              dup3\n                /* \"#utility.yul\":11082:11083   */\n              dup2\n                /* \"#utility.yul\":11079:11093   */\n              lt\n                /* \"#utility.yul\":11071:11279   */\n              iszero\n              tag_265\n              jumpi\n                /* \"#utility.yul\":11164:11173   */\n              dup5\n                /* \"#utility.yul\":11159:11162   */\n              dup10\n                /* \"#utility.yul\":11155:11174   */\n              add\n                /* \"#utility.yul\":11149:11175   */\n              mload\n                /* \"#utility.yul\":11141:11147   */\n              dup3\n                /* \"#utility.yul\":11134:11176   */\n              sstore\n                /* \"#utility.yul\":11215:11216   */\n              0x01\n                /* \"#utility.yul\":11207:11213   */\n              dup3\n                /* \"#utility.yul\":11203:11217   */\n              add\n                /* \"#utility.yul\":11193:11217   */\n              swap2\n              pop\n                /* \"#utility.yul\":11262:11264   */\n              0x20\n                /* \"#utility.yul\":11251:11260   */\n              dup6\n                /* \"#utility.yul\":11247:11265   */\n              add\n                /* \"#utility.yul\":11234:11265   */\n              swap5\n              pop\n                /* \"#utility.yul\":11108:11112   */\n              0x20\n                /* \"#utility.yul\":11105:11106   */\n              dup2\n                /* \"#utility.yul\":11101:11113   */\n              add\n                /* \"#utility.yul\":11096:11113   */\n              swap1\n              pop\n                /* \"#utility.yul\":11071:11279   */\n              jump(tag_263)\n            tag_265:\n                /* \"#utility.yul\":11307:11313   */\n              dup7\n                /* \"#utility.yul\":11298:11305   */\n              dup4\n                /* \"#utility.yul\":11295:11314   */\n              lt\n                /* \"#utility.yul\":11292:11471   */\n              iszero\n              tag_266\n              jumpi\n                /* \"#utility.yul\":11365:11374   */\n              dup5\n                /* \"#utility.yul\":11360:11363   */\n              dup10\n                /* \"#utility.yul\":11356:11375   */\n              add\n                /* \"#utility.yul\":11350:11376   */\n              mload\n                /* \"#utility.yul\":11408:11456   */\n              tag_267\n                /* \"#utility.yul\":11450:11454   */\n              0x1f\n                /* \"#utility.yul\":11442:11448   */\n              dup10\n                /* \"#utility.yul\":11438:11455   */\n              and\n                /* \"#utility.yul\":11427:11436   */\n              dup3\n                /* \"#utility.yul\":11408:11456   */\n              tag_130\n              jump\t// in\n            tag_267:\n                /* \"#utility.yul\":11400:11406   */\n              dup4\n                /* \"#utility.yul\":11393:11457   */\n              sstore\n                /* \"#utility.yul\":11315:11471   */\n              pop\n                /* \"#utility.yul\":11292:11471   */\n            tag_266:\n                /* \"#utility.yul\":11517:11518   */\n              0x01\n                /* \"#utility.yul\":11513:11514   */\n              0x02\n                /* \"#utility.yul\":11505:11511   */\n              dup9\n                /* \"#utility.yul\":11501:11515   */\n              mul\n                /* \"#utility.yul\":11497:11519   */\n              add\n                /* \"#utility.yul\":11491:11495   */\n              dup9\n                /* \"#utility.yul\":11484:11520   */\n              sstore\n                /* \"#utility.yul\":10919:11530   */\n              pop\n              pop\n              pop\n                /* \"#utility.yul\":10882:11769   */\n            tag_258:\n              pop\n                /* \"#utility.yul\":10472:11775   */\n              pop\n              pop\n              pop\n                /* \"#utility.yul\":10380:11775   */\n              pop\n              pop\n              jump\t// out\n                /* \"#utility.yul\":11781:11961   */\n            tag_132:\n                /* \"#utility.yul\":11829:11906   */\n              0x4e487b7100000000000000000000000000000000000000000000000000000000\n                /* \"#utility.yul\":11826:11827   */\n              0x00\n                /* \"#utility.yul\":11819:11907   */\n              mstore\n                /* \"#utility.yul\":11926:11930   */\n              0x12\n                /* \"#utility.yul\":11923:11924   */\n              0x04\n                /* \"#utility.yul\":11916:11931   */\n              mstore\n                /* \"#utility.yul\":11950:11954   */\n              0x24\n                /* \"#utility.yul\":11947:11948   */\n              0x00\n                /* \"#utility.yul\":11940:11955   */\n              revert\n                /* \"#utility.yul\":11967:12152   */\n            tag_84:\n                /* \"#utility.yul\":12007:12008   */\n              0x00\n                /* \"#utility.yul\":12024:12044   */\n              tag_270\n                /* \"#utility.yul\":12042:12043   */\n              dup3\n                /* \"#utility.yul\":12024:12044   */\n              tag_93\n              jump\t// in\n            tag_270:\n                /* \"#utility.yul\":12019:12044   */\n              swap2\n              pop\n                /* \"#utility.yul\":12058:12078   */\n              tag_271\n                /* \"#utility.yul\":12076:12077   */\n              dup4\n                /* \"#utility.yul\":12058:12078   */\n              tag_93\n              jump\t// in\n            tag_271:\n                /* \"#utility.yul\":12053:12078   */\n              swap3\n              pop\n                /* \"#utility.yul\":12097:12098   */\n              dup3\n                /* \"#utility.yul\":12087:12122   */\n              tag_272\n              jumpi\n                /* \"#utility.yul\":12102:12120   */\n              tag_273\n              tag_132\n              jump\t// in\n            tag_273:\n                /* \"#utility.yul\":12087:12122   */\n            tag_272:\n                /* \"#utility.yul\":12144:12145   */\n              dup3\n                /* \"#utility.yul\":12141:12142   */\n              dup3\n                /* \"#utility.yul\":12137:12146   */\n              div\n                /* \"#utility.yul\":12132:12146   */\n              swap1\n              pop\n                /* \"#utility.yul\":11967:12152   */\n              swap3\n              swap2\n              pop\n              pop\n              jump\t// out\n\n            auxdata: 0xa26469706673582212205f592b304b3874ea2a695957f378675a42d482900ff837c11dc9b693515da6b664736f6c634300081e0033\n        }\n    }\n\n    auxdata: 0xa264697066735822122050a1bcc4c4d5c7c91a210b757859de6f4a064e31ccf5db83e96a37c135306b3d64736f6c634300081e0033\n}\n",
				"bytecode": {
					"linkReferences": {},
					"object": "6080604052348015600e575f5ffd5b506113cc8061001c5f395ff3fe608060405234801561000f575f5ffd5b5060043610610034575f3560e01c8063412a5a6d146100385780636ebc8c8614610042575b5f5ffd5b610040610072565b005b61005c600480360381019061005791906101d7565b610108565b604051610069919061027c565b60405180910390f35b5f3360405161008090610193565b61008a91906102b5565b604051809103905ff0801580156100a3573d5f5f3e3d5ffd5b5090505f81908060018154018082558091505060019003905f5260205f20015f9091909190916101000a81548173ffffffffffffffffffffffffffffffffffffffff021916908373ffffffffffffffffffffffffffffffffffffffff16021790555050565b5f815f805490508110610150576040517f08c379a000000000000000000000000000000000000000000000000000000000815260040161014790610328565b60405180910390fd5b5f838154811061016357610162610346565b5b905f5260205f20015f9054906101000a900473ffffffffffffffffffffffffffffffffffffffff16915050919050565b6110238061037483390190565b5f5ffd5b5f819050919050565b6101b6816101a4565b81146101c0575f5ffd5b50565b5f813590506101d1816101ad565b92915050565b5f602082840312156101ec576101eb6101a0565b5b5f6101f9848285016101c3565b91505092915050565b5f73ffffffffffffffffffffffffffffffffffffffff82169050919050565b5f819050919050565b5f61024461023f61023a84610202565b610221565b610202565b9050919050565b5f6102558261022a565b9050919050565b5f6102668261024b565b9050919050565b6102768161025c565b82525050565b5f60208201905061028f5f83018461026d565b92915050565b5f61029f82610202565b9050919050565b6102af81610295565b82525050565b5f6020820190506102c85f8301846102a6565b92915050565b5f82825260208201905092915050565b7f6572726f7220696e6465780000000000000000000000000000000000000000005f82015250565b5f610312600b836102ce565b915061031d826102de565b602082019050919050565b5f6020820190508181035f83015261033f81610306565b9050919050565b7f4e487b71000000000000000000000000000000000000000000000000000000005f52603260045260245ffdfe608060405234801561000f575f5ffd5b5060405161102338038061102383398181016040528101906100319190610141565b805f5f6101000a81548173ffffffffffffffffffffffffffffffffffffffff021916908373ffffffffffffffffffffffffffffffffffffffff1602179055506001805f8373ffffffffffffffffffffffffffffffffffffffff1673ffffffffffffffffffffffffffffffffffffffff1681526020019081526020015f205f6101000a81548160ff021916908315150217905550600160025f8282546100d691906101a2565b92505081905550506101d5565b5f5ffd5b5f73ffffffffffffffffffffffffffffffffffffffff82169050919050565b5f610110826100e7565b9050919050565b61012081610106565b811461012a575f5ffd5b50565b5f8151905061013b81610117565b92915050565b5f60208284031215610156576101556100e3565b5b5f6101638482850161012d565b91505092915050565b5f819050919050565b7f4e487b71000000000000000000000000000000000000000000000000000000005f52601160045260245ffd5b5f6101ac8261016c565b91506101b78361016c565b92508282019050808211156101cf576101ce610175565b5b92915050565b610e41806101e25f395ff3fe608060405234801561000f575f5ffd5b5060043610610055575f3560e01c80630121b93f146100595780633f2205241461007557806365e481e214610091578063865df0ad146100ad578063f3796bdc146100c9575b5f5ffd5b610073600480360381019061006e9190610744565b6100e5565b005b61008f600480360381019061008a9190610744565b6102b8565b005b6100ab60048036038101906100a691906108ab565b6103a1565b005b6100c760048036038101906100c29190610744565b610516565b005b6100e360048036038101906100de919061097b565b610639565b005b60015f3373ffffffffffffffffffffffffffffffffffffffff1673ffffffffffffffffffffffffffffffffffffffff1681526020019081526020015f205f9054906101000a900460ff1661016e576040517f08c379a000000000000000000000000000000000000000000000000000000000815260040161016590610a00565b60405180910390fd5b8060045f3373ffffffffffffffffffffffffffffffffffffffff1673ffffffffffffffffffffffffffffffffffffffff1681526020019081526020015f205f8281526020019081526020015f205f9054906101000a900460ff16156101d1575f5ffd5b5f600383815481106101e6576101e5610a1e565b5b905f5260205f20906004020190506001600281111561020857610207610a4b565b5b816003015f9054906101000a900460ff16600281111561022b5761022a610a4b565b5b14610234575f5ffd5b6001816002015f8282546102489190610aa5565b92505081905550600160045f3373ffffffffffffffffffffffffffffffffffffffff1673ffffffffffffffffffffffffffffffffffffffff1681526020019081526020015f205f8581526020019081526020015f205f6101000a81548160ff021916908315150217905550505050565b5f5f9054906101000a900473ffffffffffffffffffffffffffffffffffffffff1673ffffffffffffffffffffffffffffffffffffffff163373ffffffffffffffffffffffffffffffffffffffff161461030f575f5ffd5b5f6003828154811061032457610323610a1e565b5b905f5260205f20906004020190505f600281111561034557610344610a4b565b5b816003015f9054906101000a900460ff16600281111561036857610367610a4b565b5b14610371575f5ffd5b6001816003015f6101000a81548160ff0219169083600281111561039857610397610a4b565b5b02179055505050565b60015f3373ffffffffffffffffffffffffffffffffffffffff1673ffffffffffffffffffffffffffffffffffffffff1681526020019081526020015f205f9054906101000a900460ff1661042a576040517f08c379a000000000000000000000000000000000000000000000000000000000815260040161042190610a00565b60405180910390fd5b60036040518060a001604052808481526020018381526020015f81526020015f600281111561045c5761045b610a4b565b5b81526020015f1515815250908060018154018082558091505060019003905f5260205f2090600402015f909190919091505f820151815f0190816104a09190610cdf565b5060208201518160010190816104b69190610cdf565b50604082015181600201556060820151816003015f6101000a81548160ff021916908360028111156104eb576104ea610a4b565b5b021790555060808201518160030160016101000a81548160ff02191690831515021790555050505050565b5f5f9054906101000a900473ffffffffffffffffffffffffffffffffffffffff1673ffffffffffffffffffffffffffffffffffffffff163373ffffffffffffffffffffffffffffffffffffffff161461056d575f5ffd5b5f6003828154811061058257610581610a1e565b5b905f5260205f2090600402019050600160028111156105a4576105a3610a4b565b5b816003015f9054906101000a900460ff1660028111156105c7576105c6610a4b565b5b146105d0575f5ffd5b6002816003015f6101000a81548160ff021916908360028111156105f7576105f6610a4b565b5b02179055506002805461060a9190610ddb565b816002015411610618575f5ffd5b60018160030160016101000a81548160ff0219169083151502179055505050565b5f5f9054906101000a900473ffffffffffffffffffffffffffffffffffffffff1673ffffffffffffffffffffffffffffffffffffffff163373ffffffffffffffffffffffffffffffffffffffff1614610690575f5ffd5b6001805f8373ffffffffffffffffffffffffffffffffffffffff1673ffffffffffffffffffffffffffffffffffffffff1681526020019081526020015f205f6101000a81548160ff021916908315150217905550600160025f8282546106f69190610aa5565b9250508190555050565b5f604051905090565b5f5ffd5b5f5ffd5b5f819050919050565b61072381610711565b811461072d575f5ffd5b50565b5f8135905061073e8161071a565b92915050565b5f6020828403121561075957610758610709565b5b5f61076684828501610730565b91505092915050565b5f5ffd5b5f5ffd5b5f601f19601f8301169050919050565b7f4e487b71000000000000000000000000000000000000000000000000000000005f52604160045260245ffd5b6107bd82610777565b810181811067ffffffffffffffff821117156107dc576107db610787565b5b80604052505050565b5f6107ee610700565b90506107fa82826107b4565b919050565b5f67ffffffffffffffff82111561081957610818610787565b5b61082282610777565b9050602081019050919050565b828183375f83830152505050565b5f61084f61084a846107ff565b6107e5565b90508281526020810184848401111561086b5761086a610773565b5b61087684828561082f565b509392505050565b5f82601f8301126108925761089161076f565b5b81356108a284826020860161083d565b91505092915050565b5f5f604083850312156108c1576108c0610709565b5b5f83013567ffffffffffffffff8111156108de576108dd61070d565b5b6108ea8582860161087e565b925050602083013567ffffffffffffffff81111561090b5761090a61070d565b5b6109178582860161087e565b9150509250929050565b5f73ffffffffffffffffffffffffffffffffffffffff82169050919050565b5f61094a82610921565b9050919050565b61095a81610940565b8114610964575f5ffd5b50565b5f8135905061097581610951565b92915050565b5f602082840312156109905761098f610709565b5b5f61099d84828501610967565b91505092915050565b5f82825260208201905092915050565b7f6572726f72206d656d62657200000000000000000000000000000000000000005f82015250565b5f6109ea600c836109a6565b91506109f5826109b6565b602082019050919050565b5f6020820190508181035f830152610a17816109de565b9050919050565b7f4e487b71000000000000000000000000000000000000000000000000000000005f52603260045260245ffd5b7f4e487b71000000000000000000000000000000000000000000000000000000005f52602160045260245ffd5b7f4e487b71000000000000000000000000000000000000000000000000000000005f52601160045260245ffd5b5f610aaf82610711565b9150610aba83610711565b9250828201905080821115610ad257610ad1610a78565b5b92915050565b5f81519050919050565b7f4e487b71000000000000000000000000000000000000000000000000000000005f52602260045260245ffd5b5f6002820490506001821680610b2657607f821691505b602082108103610b3957610b38610ae2565b5b50919050565b5f819050815f5260205f209050919050565b5f6020601f8301049050919050565b5f82821b905092915050565b5f60088302610b9b7fffffffffffffffffffffffffffffffffffffffffffffffffffffffffffffffff82610b60565b610ba58683610b60565b95508019841693508086168417925050509392505050565b5f819050919050565b5f610be0610bdb610bd684610711565b610bbd565b610711565b9050919050565b5f819050919050565b610bf983610bc6565b610c0d610c0582610be7565b848454610b6c565b825550505050565b5f5f905090565b610c24610c15565b610c2f818484610bf0565b505050565b5b81811015610c5257610c475f82610c1c565b600181019050610c35565b5050565b601f821115610c9757610c6881610b3f565b610c7184610b51565b81016020851015610c80578190505b610c94610c8c85610b51565b830182610c34565b50505b505050565b5f82821c905092915050565b5f610cb75f1984600802610c9c565b1980831691505092915050565b5f610ccf8383610ca8565b9150826002028217905092915050565b610ce882610ad8565b67ffffffffffffffff811115610d0157610d00610787565b5b610d0b8254610b0f565b610d16828285610c56565b5f60209050601f831160018114610d47575f8415610d35578287015190505b610d3f8582610cc4565b865550610da6565b601f198416610d5586610b3f565b5f5b82811015610d7c57848901518255600182019150602085019450602081019050610d57565b86831015610d995784890151610d95601f891682610ca8565b8355505b6001600288020188555050505b505050505050565b7f4e487b71000000000000000000000000000000000000000000000000000000005f52601260045260245ffd5b5f610de582610711565b9150610df083610711565b925082610e0057610dff610dae565b5b82820490509291505056fea26469706673582212205f592b304b3874ea2a695957f378675a42d482900ff837c11dc9b693515da6b664736f6c634300081e0033a264697066735822122050a1bcc4c4d5c7c91a210b757859de6f4a064e31ccf5db83e96a37c135306b3d64736f6c634300081e0033",
					"opcodes": "PUSH1 0x80 PUSH1 0x40 MSTORE CALLVALUE DUP1 ISZERO PUSH1 0xE JUMPI PUSH0 PUSH0 REVERT JUMPDEST POP PUSH2 0x13CC DUP1 PUSH2 0x1C PUSH0 CODECOPY PUSH0 RETURN INVALID PUSH1 0x80 PUSH1 0x40 MSTORE CALLVALUE DUP1 ISZERO PUSH2 0xF JUMPI PUSH0 PUSH0 REVERT JUMPDEST POP PUSH1 0x4 CALLDATASIZE LT PUSH2 0x34 JUMPI PUSH0 CALLDATALOAD PUSH1 0xE0 SHR DUP1 PUSH4 0x412A5A6D EQ PUSH2 0x38 JUMPI DUP1 PUSH4 0x6EBC8C86 EQ PUSH2 0x42 JUMPI JUMPDEST PUSH0 PUSH0 REVERT JUMPDEST PUSH2 0x40 PUSH2 0x72 JUMP JUMPDEST STOP JUMPDEST PUSH2 0x5C PUSH1 0x4 DUP1 CALLDATASIZE SUB DUP2 ADD SWAP1 PUSH2 0x57 SWAP2 SWAP1 PUSH2 0x1D7 JUMP JUMPDEST PUSH2 0x108 JUMP JUMPDEST PUSH1 0x40 MLOAD PUSH2 0x69 SWAP2 SWAP1 PUSH2 0x27C JUMP JUMPDEST PUSH1 0x40 MLOAD DUP1 SWAP2 SUB SWAP1 RETURN JUMPDEST PUSH0 CALLER PUSH1 0x40 MLOAD PUSH2 0x80 SWAP1 PUSH2 0x193 JUMP JUMPDEST PUSH2 0x8A SWAP2 SWAP1 PUSH2 0x2B5 JUMP JUMPDEST PUSH1 0x40 MLOAD DUP1 SWAP2 SUB SWAP1 PUSH0 CREATE DUP1 ISZERO DUP1 ISZERO PUSH2 0xA3 JUMPI RETURNDATASIZE PUSH0 PUSH0 RETURNDATACOPY RETURNDATASIZE PUSH0 REVERT JUMPDEST POP SWAP1 POP PUSH0 DUP2 SWAP1 DUP1 PUSH1 0x1 DUP2 SLOAD ADD DUP1 DUP3 SSTORE DUP1 SWAP2 POP POP PUSH1 0x1 SWAP1 SUB SWAP1 PUSH0 MSTORE PUSH1 0x20 PUSH0 KECCAK256 ADD PUSH0 SWAP1 SWAP2 SWAP1 SWAP2 SWAP1 SWAP2 PUSH2 0x100 EXP DUP2 SLOAD DUP2 PUSH20 0xFFFFFFFFFFFFFFFFFFFFFFFFFFFFFFFFFFFFFFFF MUL NOT AND SWAP1 DUP4 PUSH20 0xFFFFFFFFFFFFFFFFFFFFFFFFFFFFFFFFFFFFFFFF AND MUL OR SWAP1 SSTORE POP POP JUMP JUMPDEST PUSH0 DUP2 PUSH0 DUP1 SLOAD SWAP1 POP DUP2 LT PUSH2 0x150 JUMPI PUSH1 0x40 MLOAD PUSH32 0x8C379A000000000000000000000000000000000000000000000000000000000 DUP2 MSTORE PUSH1 0x4 ADD PUSH2 0x147 SWAP1 PUSH2 0x328 JUMP JUMPDEST PUSH1 0x40 MLOAD DUP1 SWAP2 SUB SWAP1 REVERT JUMPDEST PUSH0 DUP4 DUP2 SLOAD DUP2 LT PUSH2 0x163 JUMPI PUSH2 0x162 PUSH2 0x346 JUMP JUMPDEST JUMPDEST SWAP1 PUSH0 MSTORE PUSH1 0x20 PUSH0 KECCAK256 ADD PUSH0 SWAP1 SLOAD SWAP1 PUSH2 0x100 EXP SWAP1 DIV PUSH20 0xFFFFFFFFFFFFFFFFFFFFFFFFFFFFFFFFFFFFFFFF AND SWAP2 POP POP SWAP2 SWAP1 POP JUMP JUMPDEST PUSH2 0x1023 DUP1 PUSH2 0x374 DUP4 CODECOPY ADD SWAP1 JUMP JUMPDEST PUSH0 PUSH0 REVERT JUMPDEST PUSH0 DUP2 SWAP1 POP SWAP2 SWAP1 POP JUMP JUMPDEST PUSH2 0x1B6 DUP2 PUSH2 0x1A4 JUMP JUMPDEST DUP2 EQ PUSH2 0x1C0 JUMPI PUSH0 PUSH0 REVERT JUMPDEST POP JUMP JUMPDEST PUSH0 DUP2 CALLDATALOAD SWAP1 POP PUSH2 0x1D1 DUP2 PUSH2 0x1AD JUMP JUMPDEST SWAP3 SWAP2 POP POP JUMP JUMPDEST PUSH0 PUSH1 0x20 DUP3 DUP5 SUB SLT ISZERO PUSH2 0x1EC JUMPI PUSH2 0x1EB PUSH2 0x1A0 JUMP JUMPDEST JUMPDEST PUSH0 PUSH2 0x1F9 DUP5 DUP3 DUP6 ADD PUSH2 0x1C3 JUMP JUMPDEST SWAP2 POP POP SWAP3 SWAP2 POP POP JUMP JUMPDEST PUSH0 PUSH20 0xFFFFFFFFFFFFFFFFFFFFFFFFFFFFFFFFFFFFFFFF DUP3 AND SWAP1 POP SWAP2 SWAP1 POP JUMP JUMPDEST PUSH0 DUP2 SWAP1 POP SWAP2 SWAP1 POP JUMP JUMPDEST PUSH0 PUSH2 0x244 PUSH2 0x23F PUSH2 0x23A DUP5 PUSH2 0x202 JUMP JUMPDEST PUSH2 0x221 JUMP JUMPDEST PUSH2 0x202 JUMP JUMPDEST SWAP1 POP SWAP2 SWAP1 POP JUMP JUMPDEST PUSH0 PUSH2 0x255 DUP3 PUSH2 0x22A JUMP JUMPDEST SWAP1 POP SWAP2 SWAP1 POP JUMP JUMPDEST PUSH0 PUSH2 0x266 DUP3 PUSH2 0x24B JUMP JUMPDEST SWAP1 POP SWAP2 SWAP1 POP JUMP JUMPDEST PUSH2 0x276 DUP2 PUSH2 0x25C JUMP JUMPDEST DUP3 MSTORE POP POP JUMP JUMPDEST PUSH0 PUSH1 0x20 DUP3 ADD SWAP1 POP PUSH2 0x28F PUSH0 DUP4 ADD DUP5 PUSH2 0x26D JUMP JUMPDEST SWAP3 SWAP2 POP POP JUMP JUMPDEST PUSH0 PUSH2 0x29F DUP3 PUSH2 0x202 JUMP JUMPDEST SWAP1 POP SWAP2 SWAP1 POP JUMP JUMPDEST PUSH2 0x2AF DUP2 PUSH2 0x295 JUMP JUMPDEST DUP3 MSTORE POP POP JUMP JUMPDEST PUSH0 PUSH1 0x20 DUP3 ADD SWAP1 POP PUSH2 0x2C8 PUSH0 DUP4 ADD DUP5 PUSH2 0x2A6 JUMP JUMPDEST SWAP3 SWAP2 POP POP JUMP JUMPDEST PUSH0 DUP3 DUP3 MSTORE PUSH1 0x20 DUP3 ADD SWAP1 POP SWAP3 SWAP2 POP POP JUMP JUMPDEST PUSH32 0x6572726F7220696E646578000000000000000000000000000000000000000000 PUSH0 DUP3 ADD MSTORE POP JUMP JUMPDEST PUSH0 PUSH2 0x312 PUSH1 0xB DUP4 PUSH2 0x2CE JUMP JUMPDEST SWAP2 POP PUSH2 0x31D DUP3 PUSH2 0x2DE JUMP JUMPDEST PUSH1 0x20 DUP3 ADD SWAP1 POP SWAP2 SWAP1 POP JUMP JUMPDEST PUSH0 PUSH1 0x20 DUP3 ADD SWAP1 POP DUP2 DUP2 SUB PUSH0 DUP4 ADD MSTORE PUSH2 0x33F DUP2 PUSH2 0x306 JUMP JUMPDEST SWAP1 POP SWAP2 SWAP1 POP JUMP JUMPDEST PUSH32 0x4E487B7100000000000000000000000000000000000000000000000000000000 PUSH0 MSTORE PUSH1 0x32 PUSH1 0x4 MSTORE PUSH1 0x24 PUSH0 REVERT INVALID PUSH1 0x80 PUSH1 0x40 MSTORE CALLVALUE DUP1 ISZERO PUSH2 0xF JUMPI PUSH0 PUSH0 REVERT JUMPDEST POP PUSH1 0x40 MLOAD PUSH2 0x1023 CODESIZE SUB DUP1 PUSH2 0x1023 DUP4 CODECOPY DUP2 DUP2 ADD PUSH1 0x40 MSTORE DUP2 ADD SWAP1 PUSH2 0x31 SWAP2 SWAP1 PUSH2 0x141 JUMP JUMPDEST DUP1 PUSH0 PUSH0 PUSH2 0x100 EXP DUP2 SLOAD DUP2 PUSH20 0xFFFFFFFFFFFFFFFFFFFFFFFFFFFFFFFFFFFFFFFF MUL NOT AND SWAP1 DUP4 PUSH20 0xFFFFFFFFFFFFFFFFFFFFFFFFFFFFFFFFFFFFFFFF AND MUL OR SWAP1 SSTORE POP PUSH1 0x1 DUP1 PUSH0 DUP4 PUSH20 0xFFFFFFFFFFFFFFFFFFFFFFFFFFFFFFFFFFFFFFFF AND PUSH20 0xFFFFFFFFFFFFFFFFFFFFFFFFFFFFFFFFFFFFFFFF AND DUP2 MSTORE PUSH1 0x20 ADD SWAP1 DUP2 MSTORE PUSH1 0x20 ADD PUSH0 KECCAK256 PUSH0 PUSH2 0x100 EXP DUP2 SLOAD DUP2 PUSH1 0xFF MUL NOT AND SWAP1 DUP4 ISZERO ISZERO MUL OR SWAP1 SSTORE POP PUSH1 0x1 PUSH1 0x2 PUSH0 DUP3 DUP3 SLOAD PUSH2 0xD6 SWAP2 SWAP1 PUSH2 0x1A2 JUMP JUMPDEST SWAP3 POP POP DUP2 SWAP1 SSTORE POP POP PUSH2 0x1D5 JUMP JUMPDEST PUSH0 PUSH0 REVERT JUMPDEST PUSH0 PUSH20 0xFFFFFFFFFFFFFFFFFFFFFFFFFFFFFFFFFFFFFFFF DUP3 AND SWAP1 POP SWAP2 SWAP1 POP JUMP JUMPDEST PUSH0 PUSH2 0x110 DUP3 PUSH2 0xE7 JUMP JUMPDEST SWAP1 POP SWAP2 SWAP1 POP JUMP JUMPDEST PUSH2 0x120 DUP2 PUSH2 0x106 JUMP JUMPDEST DUP2 EQ PUSH2 0x12A JUMPI PUSH0 PUSH0 REVERT JUMPDEST POP JUMP JUMPDEST PUSH0 DUP2 MLOAD SWAP1 POP PUSH2 0x13B DUP2 PUSH2 0x117 JUMP JUMPDEST SWAP3 SWAP2 POP POP JUMP JUMPDEST PUSH0 PUSH1 0x20 DUP3 DUP5 SUB SLT ISZERO PUSH2 0x156 JUMPI PUSH2 0x155 PUSH2 0xE3 JUMP JUMPDEST JUMPDEST PUSH0 PUSH2 0x163 DUP5 DUP3 DUP6 ADD PUSH2 0x12D JUMP JUMPDEST SWAP2 POP POP SWAP3 SWAP2 POP POP JUMP JUMPDEST PUSH0 DUP2 SWAP1 POP SWAP2 SWAP1 POP JUMP JUMPDEST PUSH32 0x4E487B7100000000000000000000000000000000000000000000000000000000 PUSH0 MSTORE PUSH1 0x11 PUSH1 0x4 MSTORE PUSH1 0x24 PUSH0 REVERT JUMPDEST PUSH0 PUSH2 0x1AC DUP3 PUSH2 0x16C JUMP JUMPDEST SWAP2 POP PUSH2 0x1B7 DUP4 PUSH2 0x16C JUMP JUMPDEST SWAP3 POP DUP3 DUP3 ADD SWAP1 POP DUP1 DUP3 GT ISZERO PUSH2 0x1CF JUMPI PUSH2 0x1CE PUSH2 0x175 JUMP JUMPDEST JUMPDEST SWAP3 SWAP2 POP POP JUMP JUMPDEST PUSH2 0xE41 DUP1 PUSH2 0x1E2 PUSH0 CODECOPY PUSH0 RETURN INVALID PUSH1 0x80 PUSH1 0x40 MSTORE CALLVALUE DUP1 ISZERO PUSH2 0xF JUMPI PUSH0 PUSH0 REVERT JUMPDEST POP PUSH1 0x4 CALLDATASIZE LT PUSH2 0x55 JUMPI PUSH0 CALLDATALOAD PUSH1 0xE0 SHR DUP1 PUSH4 0x121B93F EQ PUSH2 0x59 JUMPI DUP1 PUSH4 0x3F220524 EQ PUSH2 0x75 JUMPI DUP1 PUSH4 0x65E481E2 EQ PUSH2 0x91 JUMPI DUP1 PUSH4 0x865DF0AD EQ PUSH2 0xAD JUMPI DUP1 PUSH4 0xF3796BDC EQ PUSH2 0xC9 JUMPI JUMPDEST PUSH0 PUSH0 REVERT JUMPDEST PUSH2 0x73 PUSH1 0x4 DUP1 CALLDATASIZE SUB DUP2 ADD SWAP1 PUSH2 0x6E SWAP2 SWAP1 PUSH2 0x744 JUMP JUMPDEST PUSH2 0xE5 JUMP JUMPDEST STOP JUMPDEST PUSH2 0x8F PUSH1 0x4 DUP1 CALLDATASIZE SUB DUP2 ADD SWAP1 PUSH2 0x8A SWAP2 SWAP1 PUSH2 0x744 JUMP JUMPDEST PUSH2 0x2B8 JUMP JUMPDEST STOP JUMPDEST PUSH2 0xAB PUSH1 0x4 DUP1 CALLDATASIZE SUB DUP2 ADD SWAP1 PUSH2 0xA6 SWAP2 SWAP1 PUSH2 0x8AB JUMP JUMPDEST PUSH2 0x3A1 JUMP JUMPDEST STOP JUMPDEST PUSH2 0xC7 PUSH1 0x4 DUP1 CALLDATASIZE SUB DUP2 ADD SWAP1 PUSH2 0xC2 SWAP2 SWAP1 PUSH2 0x744 JUMP JUMPDEST PUSH2 0x516 JUMP JUMPDEST STOP JUMPDEST PUSH2 0xE3 PUSH1 0x4 DUP1 CALLDATASIZE SUB DUP2 ADD SWAP1 PUSH2 0xDE SWAP2 SWAP1 PUSH2 0x97B JUMP JUMPDEST PUSH2 0x639 JUMP JUMPDEST STOP JUMPDEST PUSH1 0x1 PUSH0 CALLER PUSH20 0xFFFFFFFFFFFFFFFFFFFFFFFFFFFFFFFFFFFFFFFF AND PUSH20 0xFFFFFFFFFFFFFFFFFFFFFFFFFFFFFFFFFFFFFFFF AND DUP2 MSTORE PUSH1 0x20 ADD SWAP1 DUP2 MSTORE PUSH1 0x20 ADD PUSH0 KECCAK256 PUSH0 SWAP1 SLOAD SWAP1 PUSH2 0x100 EXP SWAP1 DIV PUSH1 0xFF AND PUSH2 0x16E JUMPI PUSH1 0x40 MLOAD PUSH32 0x8C379A000000000000000000000000000000000000000000000000000000000 DUP2 MSTORE PUSH1 0x4 ADD PUSH2 0x165 SWAP1 PUSH2 0xA00 JUMP JUMPDEST PUSH1 0x40 MLOAD DUP1 SWAP2 SUB SWAP1 REVERT JUMPDEST DUP1 PUSH1 0x4 PUSH0 CALLER PUSH20 0xFFFFFFFFFFFFFFFFFFFFFFFFFFFFFFFFFFFFFFFF AND PUSH20 0xFFFFFFFFFFFFFFFFFFFFFFFFFFFFFFFFFFFFFFFF AND DUP2 MSTORE PUSH1 0x20 ADD SWAP1 DUP2 MSTORE PUSH1 0x20 ADD PUSH0 KECCAK256 PUSH0 DUP3 DUP2 MSTORE PUSH1 0x20 ADD SWAP1 DUP2 MSTORE PUSH1 0x20 ADD PUSH0 KECCAK256 PUSH0 SWAP1 SLOAD SWAP1 PUSH2 0x100 EXP SWAP1 DIV PUSH1 0xFF AND ISZERO PUSH2 0x1D1 JUMPI PUSH0 PUSH0 REVERT JUMPDEST PUSH0 PUSH1 0x3 DUP4 DUP2 SLOAD DUP2 LT PUSH2 0x1E6 JUMPI PUSH2 0x1E5 PUSH2 0xA1E JUMP JUMPDEST JUMPDEST SWAP1 PUSH0 MSTORE PUSH1 0x20 PUSH0 KECCAK256 SWAP1 PUSH1 0x4 MUL ADD SWAP1 POP PUSH1 0x1 PUSH1 0x2 DUP2 GT ISZERO PUSH2 0x208 JUMPI PUSH2 0x207 PUSH2 0xA4B JUMP JUMPDEST JUMPDEST DUP2 PUSH1 0x3 ADD PUSH0 SWAP1 SLOAD SWAP1 PUSH2 0x100 EXP SWAP1 DIV PUSH1 0xFF AND PUSH1 0x2 DUP2 GT ISZERO PUSH2 0x22B JUMPI PUSH2 0x22A PUSH2 0xA4B JUMP JUMPDEST JUMPDEST EQ PUSH2 0x234 JUMPI PUSH0 PUSH0 REVERT JUMPDEST PUSH1 0x1 DUP2 PUSH1 0x2 ADD PUSH0 DUP3 DUP3 SLOAD PUSH2 0x248 SWAP2 SWAP1 PUSH2 0xAA5 JUMP JUMPDEST SWAP3 POP POP DUP2 SWAP1 SSTORE POP PUSH1 0x1 PUSH1 0x4 PUSH0 CALLER PUSH20 0xFFFFFFFFFFFFFFFFFFFFFFFFFFFFFFFFFFFFFFFF AND PUSH20 0xFFFFFFFFFFFFFFFFFFFFFFFFFFFFFFFFFFFFFFFF AND DUP2 MSTORE PUSH1 0x20 ADD SWAP1 DUP2 MSTORE PUSH1 0x20 ADD PUSH0 KECCAK256 PUSH0 DUP6 DUP2 MSTORE PUSH1 0x20 ADD SWAP1 DUP2 MSTORE PUSH1 0x20 ADD PUSH0 KECCAK256 PUSH0 PUSH2 0x100 EXP DUP2 SLOAD DUP2 PUSH1 0xFF MUL NOT AND SWAP1 DUP4 ISZERO ISZERO MUL OR SWAP1 SSTORE POP POP POP POP JUMP JUMPDEST PUSH0 PUSH0 SWAP1 SLOAD SWAP1 PUSH2 0x100 EXP SWAP1 DIV PUSH20 0xFFFFFFFFFFFFFFFFFFFFFFFFFFFFFFFFFFFFFFFF AND PUSH20 0xFFFFFFFFFFFFFFFFFFFFFFFFFFFFFFFFFFFFFFFF AND CALLER PUSH20 0xFFFFFFFFFFFFFFFFFFFFFFFFFFFFFFFFFFFFFFFF AND EQ PUSH2 0x30F JUMPI PUSH0 PUSH0 REVERT JUMPDEST PUSH0 PUSH1 0x3 DUP3 DUP2 SLOAD DUP2 LT PUSH2 0x324 JUMPI PUSH2 0x323 PUSH2 0xA1E JUMP JUMPDEST JUMPDEST SWAP1 PUSH0 MSTORE PUSH1 0x20 PUSH0 KECCAK256 SWAP1 PUSH1 0x4 MUL ADD SWAP1 POP PUSH0 PUSH1 0x2 DUP2 GT ISZERO PUSH2 0x345 JUMPI PUSH2 0x344 PUSH2 0xA4B JUMP JUMPDEST JUMPDEST DUP2 PUSH1 0x3 ADD PUSH0 SWAP1 SLOAD SWAP1 PUSH2 0x100 EXP SWAP1 DIV PUSH1 0xFF AND PUSH1 0x2 DUP2 GT ISZERO PUSH2 0x368 JUMPI PUSH2 0x367 PUSH2 0xA4B JUMP JUMPDEST JUMPDEST EQ PUSH2 0x371 JUMPI PUSH0 PUSH0 REVERT JUMPDEST PUSH1 0x1 DUP2 PUSH1 0x3 ADD PUSH0 PUSH2 0x100 EXP DUP2 SLOAD DUP2 PUSH1 0xFF MUL NOT AND SWAP1 DUP4 PUSH1 0x2 DUP2 GT ISZERO PUSH2 0x398 JUMPI PUSH2 0x397 PUSH2 0xA4B JUMP JUMPDEST JUMPDEST MUL OR SWAP1 SSTORE POP POP POP JUMP JUMPDEST PUSH1 0x1 PUSH0 CALLER PUSH20 0xFFFFFFFFFFFFFFFFFFFFFFFFFFFFFFFFFFFFFFFF AND PUSH20 0xFFFFFFFFFFFFFFFFFFFFFFFFFFFFFFFFFFFFFFFF AND DUP2 MSTORE PUSH1 0x20 ADD SWAP1 DUP2 MSTORE PUSH1 0x20 ADD PUSH0 KECCAK256 PUSH0 SWAP1 SLOAD SWAP1 PUSH2 0x100 EXP SWAP1 DIV PUSH1 0xFF AND PUSH2 0x42A JUMPI PUSH1 0x40 MLOAD PUSH32 0x8C379A000000000000000000000000000000000000000000000000000000000 DUP2 MSTORE PUSH1 0x4 ADD PUSH2 0x421 SWAP1 PUSH2 0xA00 JUMP JUMPDEST PUSH1 0x40 MLOAD DUP1 SWAP2 SUB SWAP1 REVERT JUMPDEST PUSH1 0x3 PUSH1 0x40 MLOAD DUP1 PUSH1 0xA0 ADD PUSH1 0x40 MSTORE DUP1 DUP5 DUP2 MSTORE PUSH1 0x20 ADD DUP4 DUP2 MSTORE PUSH1 0x20 ADD PUSH0 DUP2 MSTORE PUSH1 0x20 ADD PUSH0 PUSH1 0x2 DUP2 GT ISZERO PUSH2 0x45C JUMPI PUSH2 0x45B PUSH2 0xA4B JUMP JUMPDEST JUMPDEST DUP2 MSTORE PUSH1 0x20 ADD PUSH0 ISZERO ISZERO DUP2 MSTORE POP SWAP1 DUP1 PUSH1 0x1 DUP2 SLOAD ADD DUP1 DUP3 SSTORE DUP1 SWAP2 POP POP PUSH1 0x1 SWAP1 SUB SWAP1 PUSH0 MSTORE PUSH1 0x20 PUSH0 KECCAK256 SWAP1 PUSH1 0x4 MUL ADD PUSH0 SWAP1 SWAP2 SWAP1 SWAP2 SWAP1 SWAP2 POP PUSH0 DUP3 ADD MLOAD DUP2 PUSH0 ADD SWAP1 DUP2 PUSH2 0x4A0 SWAP2 SWAP1 PUSH2 0xCDF JUMP JUMPDEST POP PUSH1 0x20 DUP3 ADD MLOAD DUP2 PUSH1 0x1 ADD SWAP1 DUP2 PUSH2 0x4B6 SWAP2 SWAP1 PUSH2 0xCDF JUMP JUMPDEST POP PUSH1 0x40 DUP3 ADD MLOAD DUP2 PUSH1 0x2 ADD SSTORE PUSH1 0x60 DUP3 ADD MLOAD DUP2 PUSH1 0x3 ADD PUSH0 PUSH2 0x100 EXP DUP2 SLOAD DUP2 PUSH1 0xFF MUL NOT AND SWAP1 DUP4 PUSH1 0x2 DUP2 GT ISZERO PUSH2 0x4EB JUMPI PUSH2 0x4EA PUSH2 0xA4B JUMP JUMPDEST JUMPDEST MUL OR SWAP1 SSTORE POP PUSH1 0x80 DUP3 ADD MLOAD DUP2 PUSH1 0x3 ADD PUSH1 0x1 PUSH2 0x100 EXP DUP2 SLOAD DUP2 PUSH1 0xFF MUL NOT AND SWAP1 DUP4 ISZERO ISZERO MUL OR SWAP1 SSTORE POP POP POP POP POP JUMP JUMPDEST PUSH0 PUSH0 SWAP1 SLOAD SWAP1 PUSH2 0x100 EXP SWAP1 DIV PUSH20 0xFFFFFFFFFFFFFFFFFFFFFFFFFFFFFFFFFFFFFFFF AND PUSH20 0xFFFFFFFFFFFFFFFFFFFFFFFFFFFFFFFFFFFFFFFF AND CALLER PUSH20 0xFFFFFFFFFFFFFFFFFFFFFFFFFFFFFFFFFFFFFFFF AND EQ PUSH2 0x56D JUMPI PUSH0 PUSH0 REVERT JUMPDEST PUSH0 PUSH1 0x3 DUP3 DUP2 SLOAD DUP2 LT PUSH2 0x582 JUMPI PUSH2 0x581 PUSH2 0xA1E JUMP JUMPDEST JUMPDEST SWAP1 PUSH0 MSTORE PUSH1 0x20 PUSH0 KECCAK256 SWAP1 PUSH1 0x4 MUL ADD SWAP1 POP PUSH1 0x1 PUSH1 0x2 DUP2 GT ISZERO PUSH2 0x5A4 JUMPI PUSH2 0x5A3 PUSH2 0xA4B JUMP JUMPDEST JUMPDEST DUP2 PUSH1 0x3 ADD PUSH0 SWAP1 SLOAD SWAP1 PUSH2 0x100 EXP SWAP1 DIV PUSH1 0xFF AND PUSH1 0x2 DUP2 GT ISZERO PUSH2 0x5C7 JUMPI PUSH2 0x5C6 PUSH2 0xA4B JUMP JUMPDEST JUMPDEST EQ PUSH2 0x5D0 JUMPI PUSH0 PUSH0 REVERT JUMPDEST PUSH1 0x2 DUP2 PUSH1 0x3 ADD PUSH0 PUSH2 0x100 EXP DUP2 SLOAD DUP2 PUSH1 0xFF MUL NOT AND SWAP1 DUP4 PUSH1 0x2 DUP2 GT ISZERO PUSH2 0x5F7 JUMPI PUSH2 0x5F6 PUSH2 0xA4B JUMP JUMPDEST JUMPDEST MUL OR SWAP1 SSTORE POP PUSH1 0x2 DUP1 SLOAD PUSH2 0x60A SWAP2 SWAP1 PUSH2 0xDDB JUMP JUMPDEST DUP2 PUSH1 0x2 ADD SLOAD GT PUSH2 0x618 JUMPI PUSH0 PUSH0 REVERT JUMPDEST PUSH1 0x1 DUP2 PUSH1 0x3 ADD PUSH1 0x1 PUSH2 0x100 EXP DUP2 SLOAD DUP2 PUSH1 0xFF MUL NOT AND SWAP1 DUP4 ISZERO ISZERO MUL OR SWAP1 SSTORE POP POP POP JUMP JUMPDEST PUSH0 PUSH0 SWAP1 SLOAD SWAP1 PUSH2 0x100 EXP SWAP1 DIV PUSH20 0xFFFFFFFFFFFFFFFFFFFFFFFFFFFFFFFFFFFFFFFF AND PUSH20 0xFFFFFFFFFFFFFFFFFFFFFFFFFFFFFFFFFFFFFFFF AND CALLER PUSH20 0xFFFFFFFFFFFFFFFFFFFFFFFFFFFFFFFFFFFFFFFF AND EQ PUSH2 0x690 JUMPI PUSH0 PUSH0 REVERT JUMPDEST PUSH1 0x1 DUP1 PUSH0 DUP4 PUSH20 0xFFFFFFFFFFFFFFFFFFFFFFFFFFFFFFFFFFFFFFFF AND PUSH20 0xFFFFFFFFFFFFFFFFFFFFFFFFFFFFFFFFFFFFFFFF AND DUP2 MSTORE PUSH1 0x20 ADD SWAP1 DUP2 MSTORE PUSH1 0x20 ADD PUSH0 KECCAK256 PUSH0 PUSH2 0x100 EXP DUP2 SLOAD DUP2 PUSH1 0xFF MUL NOT AND SWAP1 DUP4 ISZERO ISZERO MUL OR SWAP1 SSTORE POP PUSH1 0x1 PUSH1 0x2 PUSH0 DUP3 DUP3 SLOAD PUSH2 0x6F6 SWAP2 SWAP1 PUSH2 0xAA5 JUMP JUMPDEST SWAP3 POP POP DUP2 SWAP1 SSTORE POP POP JUMP JUMPDEST PUSH0 PUSH1 0x40 MLOAD SWAP1 POP SWAP1 JUMP JUMPDEST PUSH0 PUSH0 REVERT JUMPDEST PUSH0 PUSH0 REVERT JUMPDEST PUSH0 DUP2 SWAP1 POP SWAP2 SWAP1 POP JUMP JUMPDEST PUSH2 0x723 DUP2 PUSH2 0x711 JUMP JUMPDEST DUP2 EQ PUSH2 0x72D JUMPI PUSH0 PUSH0 REVERT JUMPDEST POP JUMP JUMPDEST PUSH0 DUP2 CALLDATALOAD SWAP1 POP PUSH2 0x73E DUP2 PUSH2 0x71A JUMP JUMPDEST SWAP3 SWAP2 POP POP JUMP JUMPDEST PUSH0 PUSH1 0x20 DUP3 DUP5 SUB SLT ISZERO PUSH2 0x759 JUMPI PUSH2 0x758 PUSH2 0x709 JUMP JUMPDEST JUMPDEST PUSH0 PUSH2 0x766 DUP5 DUP3 DUP6 ADD PUSH2 0x730 JUMP JUMPDEST SWAP2 POP POP SWAP3 SWAP2 POP POP JUMP JUMPDEST PUSH0 PUSH0 REVERT JUMPDEST PUSH0 PUSH0 REVERT JUMPDEST PUSH0 PUSH1 0x1F NOT PUSH1 0x1F DUP4 ADD AND SWAP1 POP SWAP2 SWAP1 POP JUMP JUMPDEST PUSH32 0x4E487B7100000000000000000000000000000000000000000000000000000000 PUSH0 MSTORE PUSH1 0x41 PUSH1 0x4 MSTORE PUSH1 0x24 PUSH0 REVERT JUMPDEST PUSH2 0x7BD DUP3 PUSH2 0x777 JUMP JUMPDEST DUP2 ADD DUP2 DUP2 LT PUSH8 0xFFFFFFFFFFFFFFFF DUP3 GT OR ISZERO PUSH2 0x7DC JUMPI PUSH2 0x7DB PUSH2 0x787 JUMP JUMPDEST JUMPDEST DUP1 PUSH1 0x40 MSTORE POP POP POP JUMP JUMPDEST PUSH0 PUSH2 0x7EE PUSH2 0x700 JUMP JUMPDEST SWAP1 POP PUSH2 0x7FA DUP3 DUP3 PUSH2 0x7B4 JUMP JUMPDEST SWAP2 SWAP1 POP JUMP JUMPDEST PUSH0 PUSH8 0xFFFFFFFFFFFFFFFF DUP3 GT ISZERO PUSH2 0x819 JUMPI PUSH2 0x818 PUSH2 0x787 JUMP JUMPDEST JUMPDEST PUSH2 0x822 DUP3 PUSH2 0x777 JUMP JUMPDEST SWAP1 POP PUSH1 0x20 DUP2 ADD SWAP1 POP SWAP2 SWAP1 POP JUMP JUMPDEST DUP3 DUP2 DUP4 CALLDATACOPY PUSH0 DUP4 DUP4 ADD MSTORE POP POP POP JUMP JUMPDEST PUSH0 PUSH2 0x84F PUSH2 0x84A DUP5 PUSH2 0x7FF JUMP JUMPDEST PUSH2 0x7E5 JUMP JUMPDEST SWAP1 POP DUP3 DUP2 MSTORE PUSH1 0x20 DUP2 ADD DUP5 DUP5 DUP5 ADD GT ISZERO PUSH2 0x86B JUMPI PUSH2 0x86A PUSH2 0x773 JUMP JUMPDEST JUMPDEST PUSH2 0x876 DUP5 DUP3 DUP6 PUSH2 0x82F JUMP JUMPDEST POP SWAP4 SWAP3 POP POP POP JUMP JUMPDEST PUSH0 DUP3 PUSH1 0x1F DUP4 ADD SLT PUSH2 0x892 JUMPI PUSH2 0x891 PUSH2 0x76F JUMP JUMPDEST JUMPDEST DUP2 CALLDATALOAD PUSH2 0x8A2 DUP5 DUP3 PUSH1 0x20 DUP7 ADD PUSH2 0x83D JUMP JUMPDEST SWAP2 POP POP SWAP3 SWAP2 POP POP JUMP JUMPDEST PUSH0 PUSH0 PUSH1 0x40 DUP4 DUP6 SUB SLT ISZERO PUSH2 0x8C1 JUMPI PUSH2 0x8C0 PUSH2 0x709 JUMP JUMPDEST JUMPDEST PUSH0 DUP4 ADD CALLDATALOAD PUSH8 0xFFFFFFFFFFFFFFFF DUP2 GT ISZERO PUSH2 0x8DE JUMPI PUSH2 0x8DD PUSH2 0x70D JUMP JUMPDEST JUMPDEST PUSH2 0x8EA DUP6 DUP3 DUP7 ADD PUSH2 0x87E JUMP JUMPDEST SWAP3 POP POP PUSH1 0x20 DUP4 ADD CALLDATALOAD PUSH8 0xFFFFFFFFFFFFFFFF DUP2 GT ISZERO PUSH2 0x90B JUMPI PUSH2 0x90A PUSH2 0x70D JUMP JUMPDEST JUMPDEST PUSH2 0x917 DUP6 DUP3 DUP7 ADD PUSH2 0x87E JUMP JUMPDEST SWAP2 POP POP SWAP3 POP SWAP3 SWAP1 POP JUMP JUMPDEST PUSH0 PUSH20 0xFFFFFFFFFFFFFFFFFFFFFFFFFFFFFFFFFFFFFFFF DUP3 AND SWAP1 POP SWAP2 SWAP1 POP JUMP JUMPDEST PUSH0 PUSH2 0x94A DUP3 PUSH2 0x921 JUMP JUMPDEST SWAP1 POP SWAP2 SWAP1 POP JUMP JUMPDEST PUSH2 0x95A DUP2 PUSH2 0x940 JUMP JUMPDEST DUP2 EQ PUSH2 0x964 JUMPI PUSH0 PUSH0 REVERT JUMPDEST POP JUMP JUMPDEST PUSH0 DUP2 CALLDATALOAD SWAP1 POP PUSH2 0x975 DUP2 PUSH2 0x951 JUMP JUMPDEST SWAP3 SWAP2 POP POP JUMP JUMPDEST PUSH0 PUSH1 0x20 DUP3 DUP5 SUB SLT ISZERO PUSH2 0x990 JUMPI PUSH2 0x98F PUSH2 0x709 JUMP JUMPDEST JUMPDEST PUSH0 PUSH2 0x99D DUP5 DUP3 DUP6 ADD PUSH2 0x967 JUMP JUMPDEST SWAP2 POP POP SWAP3 SWAP2 POP POP JUMP JUMPDEST PUSH0 DUP3 DUP3 MSTORE PUSH1 0x20 DUP3 ADD SWAP1 POP SWAP3 SWAP2 POP POP JUMP JUMPDEST PUSH32 0x6572726F72206D656D6265720000000000000000000000000000000000000000 PUSH0 DUP3 ADD MSTORE POP JUMP JUMPDEST PUSH0 PUSH2 0x9EA PUSH1 0xC DUP4 PUSH2 0x9A6 JUMP JUMPDEST SWAP2 POP PUSH2 0x9F5 DUP3 PUSH2 0x9B6 JUMP JUMPDEST PUSH1 0x20 DUP3 ADD SWAP1 POP SWAP2 SWAP1 POP JUMP JUMPDEST PUSH0 PUSH1 0x20 DUP3 ADD SWAP1 POP DUP2 DUP2 SUB PUSH0 DUP4 ADD MSTORE PUSH2 0xA17 DUP2 PUSH2 0x9DE JUMP JUMPDEST SWAP1 POP SWAP2 SWAP1 POP JUMP JUMPDEST PUSH32 0x4E487B7100000000000000000000000000000000000000000000000000000000 PUSH0 MSTORE PUSH1 0x32 PUSH1 0x4 MSTORE PUSH1 0x24 PUSH0 REVERT JUMPDEST PUSH32 0x4E487B7100000000000000000000000000000000000000000000000000000000 PUSH0 MSTORE PUSH1 0x21 PUSH1 0x4 MSTORE PUSH1 0x24 PUSH0 REVERT JUMPDEST PUSH32 0x4E487B7100000000000000000000000000000000000000000000000000000000 PUSH0 MSTORE PUSH1 0x11 PUSH1 0x4 MSTORE PUSH1 0x24 PUSH0 REVERT JUMPDEST PUSH0 PUSH2 0xAAF DUP3 PUSH2 0x711 JUMP JUMPDEST SWAP2 POP PUSH2 0xABA DUP4 PUSH2 0x711 JUMP JUMPDEST SWAP3 POP DUP3 DUP3 ADD SWAP1 POP DUP1 DUP3 GT ISZERO PUSH2 0xAD2 JUMPI PUSH2 0xAD1 PUSH2 0xA78 JUMP JUMPDEST JUMPDEST SWAP3 SWAP2 POP POP JUMP JUMPDEST PUSH0 DUP2 MLOAD SWAP1 POP SWAP2 SWAP1 POP JUMP JUMPDEST PUSH32 0x4E487B7100000000000000000000000000000000000000000000000000000000 PUSH0 MSTORE PUSH1 0x22 PUSH1 0x4 MSTORE PUSH1 0x24 PUSH0 REVERT JUMPDEST PUSH0 PUSH1 0x2 DUP3 DIV SWAP1 POP PUSH1 0x1 DUP3 AND DUP1 PUSH2 0xB26 JUMPI PUSH1 0x7F DUP3 AND SWAP2 POP JUMPDEST PUSH1 0x20 DUP3 LT DUP2 SUB PUSH2 0xB39 JUMPI PUSH2 0xB38 PUSH2 0xAE2 JUMP JUMPDEST JUMPDEST POP SWAP2 SWAP1 POP JUMP JUMPDEST PUSH0 DUP2 SWAP1 POP DUP2 PUSH0 MSTORE PUSH1 0x20 PUSH0 KECCAK256 SWAP1 POP SWAP2 SWAP1 POP JUMP JUMPDEST PUSH0 PUSH1 0x20 PUSH1 0x1F DUP4 ADD DIV SWAP1 POP SWAP2 SWAP1 POP JUMP JUMPDEST PUSH0 DUP3 DUP3 SHL SWAP1 POP SWAP3 SWAP2 POP POP JUMP JUMPDEST PUSH0 PUSH1 0x8 DUP4 MUL PUSH2 0xB9B PUSH32 0xFFFFFFFFFFFFFFFFFFFFFFFFFFFFFFFFFFFFFFFFFFFFFFFFFFFFFFFFFFFFFFFF DUP3 PUSH2 0xB60 JUMP JUMPDEST PUSH2 0xBA5 DUP7 DUP4 PUSH2 0xB60 JUMP JUMPDEST SWAP6 POP DUP1 NOT DUP5 AND SWAP4 POP DUP1 DUP7 AND DUP5 OR SWAP3 POP POP POP SWAP4 SWAP3 POP POP POP JUMP JUMPDEST PUSH0 DUP2 SWAP1 POP SWAP2 SWAP1 POP JUMP JUMPDEST PUSH0 PUSH2 0xBE0 PUSH2 0xBDB PUSH2 0xBD6 DUP5 PUSH2 0x711 JUMP JUMPDEST PUSH2 0xBBD JUMP JUMPDEST PUSH2 0x711 JUMP JUMPDEST SWAP1 POP SWAP2 SWAP1 POP JUMP JUMPDEST PUSH0 DUP2 SWAP1 POP SWAP2 SWAP1 POP JUMP JUMPDEST PUSH2 0xBF9 DUP4 PUSH2 0xBC6 JUMP JUMPDEST PUSH2 0xC0D PUSH2 0xC05 DUP3 PUSH2 0xBE7 JUMP JUMPDEST DUP5 DUP5 SLOAD PUSH2 0xB6C JUMP JUMPDEST DUP3 SSTORE POP POP POP POP JUMP JUMPDEST PUSH0 PUSH0 SWAP1 POP SWAP1 JUMP JUMPDEST PUSH2 0xC24 PUSH2 0xC15 JUMP JUMPDEST PUSH2 0xC2F DUP2 DUP5 DUP5 PUSH2 0xBF0 JUMP JUMPDEST POP POP POP JUMP JUMPDEST JUMPDEST DUP2 DUP2 LT ISZERO PUSH2 0xC52 JUMPI PUSH2 0xC47 PUSH0 DUP3 PUSH2 0xC1C JUMP JUMPDEST PUSH1 0x1 DUP2 ADD SWAP1 POP PUSH2 0xC35 JUMP JUMPDEST POP POP JUMP JUMPDEST PUSH1 0x1F DUP3 GT ISZERO PUSH2 0xC97 JUMPI PUSH2 0xC68 DUP2 PUSH2 0xB3F JUMP JUMPDEST PUSH2 0xC71 DUP5 PUSH2 0xB51 JUMP JUMPDEST DUP2 ADD PUSH1 0x20 DUP6 LT ISZERO PUSH2 0xC80 JUMPI DUP2 SWAP1 POP JUMPDEST PUSH2 0xC94 PUSH2 0xC8C DUP6 PUSH2 0xB51 JUMP JUMPDEST DUP4 ADD DUP3 PUSH2 0xC34 JUMP JUMPDEST POP POP JUMPDEST POP POP POP JUMP JUMPDEST PUSH0 DUP3 DUP3 SHR SWAP1 POP SWAP3 SWAP2 POP POP JUMP JUMPDEST PUSH0 PUSH2 0xCB7 PUSH0 NOT DUP5 PUSH1 0x8 MUL PUSH2 0xC9C JUMP JUMPDEST NOT DUP1 DUP4 AND SWAP2 POP POP SWAP3 SWAP2 POP POP JUMP JUMPDEST PUSH0 PUSH2 0xCCF DUP4 DUP4 PUSH2 0xCA8 JUMP JUMPDEST SWAP2 POP DUP3 PUSH1 0x2 MUL DUP3 OR SWAP1 POP SWAP3 SWAP2 POP POP JUMP JUMPDEST PUSH2 0xCE8 DUP3 PUSH2 0xAD8 JUMP JUMPDEST PUSH8 0xFFFFFFFFFFFFFFFF DUP2 GT ISZERO PUSH2 0xD01 JUMPI PUSH2 0xD00 PUSH2 0x787 JUMP JUMPDEST JUMPDEST PUSH2 0xD0B DUP3 SLOAD PUSH2 0xB0F JUMP JUMPDEST PUSH2 0xD16 DUP3 DUP3 DUP6 PUSH2 0xC56 JUMP JUMPDEST PUSH0 PUSH1 0x20 SWAP1 POP PUSH1 0x1F DUP4 GT PUSH1 0x1 DUP2 EQ PUSH2 0xD47 JUMPI PUSH0 DUP5 ISZERO PUSH2 0xD35 JUMPI DUP3 DUP8 ADD MLOAD SWAP1 POP JUMPDEST PUSH2 0xD3F DUP6 DUP3 PUSH2 0xCC4 JUMP JUMPDEST DUP7 SSTORE POP PUSH2 0xDA6 JUMP JUMPDEST PUSH1 0x1F NOT DUP5 AND PUSH2 0xD55 DUP7 PUSH2 0xB3F JUMP JUMPDEST PUSH0 JUMPDEST DUP3 DUP2 LT ISZERO PUSH2 0xD7C JUMPI DUP5 DUP10 ADD MLOAD DUP3 SSTORE PUSH1 0x1 DUP3 ADD SWAP2 POP PUSH1 0x20 DUP6 ADD SWAP5 POP PUSH1 0x20 DUP2 ADD SWAP1 POP PUSH2 0xD57 JUMP JUMPDEST DUP7 DUP4 LT ISZERO PUSH2 0xD99 JUMPI DUP5 DUP10 ADD MLOAD PUSH2 0xD95 PUSH1 0x1F DUP10 AND DUP3 PUSH2 0xCA8 JUMP JUMPDEST DUP4 SSTORE POP JUMPDEST PUSH1 0x1 PUSH1 0x2 DUP9 MUL ADD DUP9 SSTORE POP POP POP JUMPDEST POP POP POP POP POP POP JUMP JUMPDEST PUSH32 0x4E487B7100000000000000000000000000000000000000000000000000000000 PUSH0 MSTORE PUSH1 0x12 PUSH1 0x4 MSTORE PUSH1 0x24 PUSH0 REVERT JUMPDEST PUSH0 PUSH2 0xDE5 DUP3 PUSH2 0x711 JUMP JUMPDEST SWAP2 POP PUSH2 0xDF0 DUP4 PUSH2 0x711 JUMP JUMPDEST SWAP3 POP DUP3 PUSH2 0xE00 JUMPI PUSH2 0xDFF PUSH2 0xDAE JUMP JUMPDEST JUMPDEST DUP3 DUP3 DIV SWAP1 POP SWAP3 SWAP2 POP POP JUMP INVALID LOG2 PUSH5 0x6970667358 0x22 SLT KECCAK256 PUSH0 MSIZE 0x2B ADDRESS 0x4B CODESIZE PUSH21 0xEA2A695957F378675A42D482900FF837C11DC9B693 MLOAD TSTORE 0xA6 0xB6 PUSH5 0x736F6C6343 STOP ADDMOD 0x1E STOP CALLER LOG2 PUSH5 0x6970667358 0x22 SLT KECCAK256 POP LOG1 0xBC 0xC4 0xC4 0xD5 0xC7 0xC9 BYTE 0x21 SIGNEXTEND PUSH22 0x7859DE6F4A064E31CCF5DB83E96A37C135306B3D6473 PUSH16 0x6C634300081E00330000000000000000 "
				},
				"gasEstimates": {
					"creation": {
						"codeDepositCost": "1013600",
						"executionCost": "1052",
						"totalCost": "1014652"
					},
					"external": {
						"createContract()": "infinite",
						"getContract(uint256)": "infinite"
					}
				},
				"methodIdentifiers": {
					"createContract()": "412a5a6d",
					"getContract(uint256)": "6ebc8c86"
				}
			},
			"storageLayout": {
				"storage": [
					{
						"astId": 259,
						"contract": "contracts/Factory.sol:Factory",
						"label": "DAOs",
						"offset": 0,
						"slot": "0",
						"type": "t_array(t_contract(DAO)252)dyn_storage"
					}
				],
				"types": {
					"t_array(t_contract(DAO)252)dyn_storage": {
						"base": "t_contract(DAO)252",
						"encoding": "dynamic_array",
						"label": "contract DAO[]",
						"numberOfBytes": "32"
					},
					"t_contract(DAO)252": {
						"encoding": "inplace",
						"label": "contract DAO",
						"numberOfBytes": "20"
					}
				}
			},
			"userdoc": {
				"kind": "user",
				"methods": {},
				"version": 1
			}
		}
	}
}